{
  "contracts/Fidelink.sol": {
    "Fidelink": {
      "abi": [
        {
          "inputs": [],
          "stateMutability": "nonpayable",
          "type": "constructor"
        },
        {
          "inputs": [
            {
              "internalType": "address",
              "name": "spender",
              "type": "address"
            },
            {
              "internalType": "uint256",
              "name": "allowance",
              "type": "uint256"
            },
            {
              "internalType": "uint256",
              "name": "needed",
              "type": "uint256"
            }
          ],
          "name": "ERC20InsufficientAllowance",
          "type": "error"
        },
        {
          "inputs": [
            {
              "internalType": "address",
              "name": "sender",
              "type": "address"
            },
            {
              "internalType": "uint256",
              "name": "balance",
              "type": "uint256"
            },
            {
              "internalType": "uint256",
              "name": "needed",
              "type": "uint256"
            }
          ],
          "name": "ERC20InsufficientBalance",
          "type": "error"
        },
        {
          "inputs": [
            {
              "internalType": "address",
              "name": "approver",
              "type": "address"
            }
          ],
          "name": "ERC20InvalidApprover",
          "type": "error"
        },
        {
          "inputs": [
            {
              "internalType": "address",
              "name": "receiver",
              "type": "address"
            }
          ],
          "name": "ERC20InvalidReceiver",
          "type": "error"
        },
        {
          "inputs": [
            {
              "internalType": "address",
              "name": "sender",
              "type": "address"
            }
          ],
          "name": "ERC20InvalidSender",
          "type": "error"
        },
        {
          "inputs": [
            {
              "internalType": "address",
              "name": "spender",
              "type": "address"
            }
          ],
          "name": "ERC20InvalidSpender",
          "type": "error"
        },
        {
          "inputs": [
            {
              "internalType": "address",
              "name": "owner",
              "type": "address"
            }
          ],
          "name": "OwnableInvalidOwner",
          "type": "error"
        },
        {
          "inputs": [
            {
              "internalType": "address",
              "name": "account",
              "type": "address"
            }
          ],
          "name": "OwnableUnauthorizedAccount",
          "type": "error"
        },
        {
          "anonymous": false,
          "inputs": [
            {
              "indexed": true,
              "internalType": "address",
              "name": "owner",
              "type": "address"
            },
            {
              "indexed": true,
              "internalType": "address",
              "name": "spender",
              "type": "address"
            },
            {
              "indexed": false,
              "internalType": "uint256",
              "name": "value",
              "type": "uint256"
            }
          ],
          "name": "Approval",
          "type": "event"
        },
        {
          "anonymous": false,
          "inputs": [
            {
              "indexed": true,
              "internalType": "address",
              "name": "consumerAddress",
              "type": "address"
            },
            {
              "indexed": true,
              "internalType": "address",
              "name": "merchantAddress",
              "type": "address"
            }
          ],
          "name": "ConsumerAdded",
          "type": "event"
        },
        {
          "anonymous": false,
          "inputs": [
            {
              "indexed": true,
              "internalType": "address",
              "name": "consumerAddress",
              "type": "address"
            },
            {
              "indexed": true,
              "internalType": "address",
              "name": "merchantAddress",
              "type": "address"
            }
          ],
          "name": "ConsumerDisabled",
          "type": "event"
        },
        {
          "anonymous": false,
          "inputs": [
            {
              "indexed": true,
              "internalType": "address",
              "name": "consumerAddress",
              "type": "address"
            },
            {
              "indexed": true,
              "internalType": "address",
              "name": "merchantAddress",
              "type": "address"
            }
          ],
          "name": "ConsumerEnabled",
          "type": "event"
        },
        {
          "anonymous": false,
          "inputs": [
            {
              "indexed": true,
              "internalType": "address",
              "name": "merchantAddress",
              "type": "address"
            },
            {
              "indexed": false,
              "internalType": "string",
              "name": "name",
              "type": "string"
            },
            {
              "indexed": true,
              "internalType": "address",
              "name": "owner",
              "type": "address"
            }
          ],
          "name": "MerchantAdded",
          "type": "event"
        },
        {
          "anonymous": false,
          "inputs": [
            {
              "indexed": true,
              "internalType": "address",
              "name": "merchantAddress",
              "type": "address"
            },
            {
              "indexed": true,
              "internalType": "address",
              "name": "owner",
              "type": "address"
            }
          ],
          "name": "MerchantDisabled",
          "type": "event"
        },
        {
          "anonymous": false,
          "inputs": [
            {
              "indexed": true,
              "internalType": "address",
              "name": "merchantAddress",
              "type": "address"
            },
            {
              "indexed": true,
              "internalType": "address",
              "name": "owner",
              "type": "address"
            }
          ],
          "name": "MerchantEnabled",
          "type": "event"
        },
        {
          "anonymous": false,
          "inputs": [
            {
              "indexed": true,
              "internalType": "address",
              "name": "previousOwner",
              "type": "address"
            },
            {
              "indexed": true,
              "internalType": "address",
              "name": "newOwner",
              "type": "address"
            }
          ],
          "name": "OwnershipTransferred",
          "type": "event"
        },
        {
          "anonymous": false,
          "inputs": [
            {
              "indexed": true,
              "internalType": "address",
              "name": "merchant",
              "type": "address"
            },
            {
              "indexed": true,
              "internalType": "address",
              "name": "consumer",
              "type": "address"
            },
            {
              "indexed": false,
              "internalType": "uint256",
              "name": "amount",
              "type": "uint256"
            }
          ],
          "name": "TokenMinted",
          "type": "event"
        },
        {
          "anonymous": false,
          "inputs": [
            {
              "indexed": true,
              "internalType": "address",
              "name": "consumer",
              "type": "address"
            },
            {
              "indexed": true,
              "internalType": "address",
              "name": "merchant",
              "type": "address"
            },
            {
              "indexed": false,
              "internalType": "uint256",
              "name": "amount",
              "type": "uint256"
            }
          ],
          "name": "TokenSpent",
          "type": "event"
        },
        {
          "anonymous": false,
          "inputs": [
            {
              "indexed": true,
              "internalType": "address",
              "name": "from",
              "type": "address"
            },
            {
              "indexed": true,
              "internalType": "address",
              "name": "to",
              "type": "address"
            },
            {
              "indexed": false,
              "internalType": "uint256",
              "name": "value",
              "type": "uint256"
            }
          ],
          "name": "Transfer",
          "type": "event"
        },
        {
          "inputs": [
            {
              "internalType": "address",
              "name": "_consumer",
              "type": "address"
            }
          ],
          "name": "addConsumer",
          "outputs": [],
          "stateMutability": "nonpayable",
          "type": "function"
        },
        {
          "inputs": [
            {
              "internalType": "address",
              "name": "_merchant",
              "type": "address"
            },
            {
              "internalType": "string",
              "name": "_name",
              "type": "string"
            }
          ],
          "name": "addMerchant",
          "outputs": [],
          "stateMutability": "nonpayable",
          "type": "function"
        },
        {
          "inputs": [
            {
              "internalType": "address",
              "name": "owner",
              "type": "address"
            },
            {
              "internalType": "address",
              "name": "spender",
              "type": "address"
            }
          ],
          "name": "allowance",
          "outputs": [
            {
              "internalType": "uint256",
              "name": "",
              "type": "uint256"
            }
          ],
          "stateMutability": "view",
          "type": "function"
        },
        {
          "inputs": [
            {
              "internalType": "address",
              "name": "",
              "type": "address"
            },
            {
              "internalType": "uint256",
              "name": "",
              "type": "uint256"
            }
          ],
          "name": "approve",
          "outputs": [
            {
              "internalType": "bool",
              "name": "",
              "type": "bool"
            }
          ],
          "stateMutability": "pure",
          "type": "function"
        },
        {
          "inputs": [
            {
              "internalType": "address",
              "name": "account",
              "type": "address"
            }
          ],
          "name": "balanceOf",
          "outputs": [
            {
              "internalType": "uint256",
              "name": "",
              "type": "uint256"
            }
          ],
          "stateMutability": "view",
          "type": "function"
        },
        {
          "inputs": [
            {
              "internalType": "address",
              "name": "",
              "type": "address"
            }
          ],
          "name": "consumers",
          "outputs": [
            {
              "internalType": "bool",
              "name": "isActive",
              "type": "bool"
            },
            {
              "internalType": "bool",
              "name": "hasBeenRegistered",
              "type": "bool"
            }
          ],
          "stateMutability": "view",
          "type": "function"
        },
        {
          "inputs": [],
          "name": "decimals",
          "outputs": [
            {
              "internalType": "uint8",
              "name": "",
              "type": "uint8"
            }
          ],
          "stateMutability": "view",
          "type": "function"
        },
        {
          "inputs": [
            {
              "internalType": "address",
              "name": "_consumer",
              "type": "address"
            }
          ],
          "name": "disableConsumer",
          "outputs": [],
          "stateMutability": "nonpayable",
          "type": "function"
        },
        {
          "inputs": [
            {
              "internalType": "address",
              "name": "_merchant",
              "type": "address"
            }
          ],
          "name": "disableMerchant",
          "outputs": [],
          "stateMutability": "nonpayable",
          "type": "function"
        },
        {
          "inputs": [
            {
              "internalType": "address",
              "name": "_consumer",
              "type": "address"
            }
          ],
          "name": "enableConsumer",
          "outputs": [],
          "stateMutability": "nonpayable",
          "type": "function"
        },
        {
          "inputs": [
            {
              "internalType": "address",
              "name": "_merchant",
              "type": "address"
            }
          ],
          "name": "enableMerchant",
          "outputs": [],
          "stateMutability": "nonpayable",
          "type": "function"
        },
        {
          "inputs": [],
          "name": "getBalance",
          "outputs": [
            {
              "internalType": "uint256",
              "name": "balance",
              "type": "uint256"
            }
          ],
          "stateMutability": "view",
          "type": "function"
        },
        {
          "inputs": [],
          "name": "getBalanceByMerchant",
          "outputs": [
            {
              "internalType": "address[]",
              "name": "merchantsArray",
              "type": "address[]"
            },
            {
              "internalType": "uint256[]",
              "name": "balancesArray",
              "type": "uint256[]"
            }
          ],
          "stateMutability": "view",
          "type": "function"
        },
        {
          "inputs": [
            {
              "internalType": "address",
              "name": "_consumer",
              "type": "address"
            }
          ],
          "name": "getConsumer",
          "outputs": [
            {
              "components": [
                {
                  "internalType": "bool",
                  "name": "isActive",
                  "type": "bool"
                },
                {
                  "internalType": "bool",
                  "name": "hasBeenRegistered",
                  "type": "bool"
                }
              ],
              "internalType": "struct Fidelink.Consumer",
              "name": "",
              "type": "tuple"
            }
          ],
          "stateMutability": "view",
          "type": "function"
        },
        {
          "inputs": [],
          "name": "getExpirationDuration",
          "outputs": [
            {
              "internalType": "uint256",
              "name": "",
              "type": "uint256"
            }
          ],
          "stateMutability": "view",
          "type": "function"
        },
        {
          "inputs": [],
          "name": "getExpirationMerchantPercentage",
          "outputs": [
            {
              "internalType": "uint256",
              "name": "",
              "type": "uint256"
            }
          ],
          "stateMutability": "view",
          "type": "function"
        },
        {
          "inputs": [],
          "name": "getExpirationOwnerPercentage",
          "outputs": [
            {
              "internalType": "uint256",
              "name": "",
              "type": "uint256"
            }
          ],
          "stateMutability": "view",
          "type": "function"
        },
        {
          "inputs": [
            {
              "internalType": "address",
              "name": "_merchant",
              "type": "address"
            }
          ],
          "name": "getMerchant",
          "outputs": [
            {
              "components": [
                {
                  "internalType": "string",
                  "name": "name",
                  "type": "string"
                },
                {
                  "internalType": "bool",
                  "name": "isActive",
                  "type": "bool"
                },
                {
                  "internalType": "bool",
                  "name": "hasBeenRegistered",
                  "type": "bool"
                }
              ],
              "internalType": "struct Fidelink.Merchant",
              "name": "",
              "type": "tuple"
            }
          ],
          "stateMutability": "view",
          "type": "function"
        },
        {
          "inputs": [],
          "name": "getRedistributionMerchantPercentage",
          "outputs": [
            {
              "internalType": "uint256",
              "name": "",
              "type": "uint256"
            }
          ],
          "stateMutability": "view",
          "type": "function"
        },
        {
          "inputs": [],
          "name": "getRedistributionOwnerPercentage",
          "outputs": [
            {
              "internalType": "uint256",
              "name": "",
              "type": "uint256"
            }
          ],
          "stateMutability": "view",
          "type": "function"
        },
        {
          "inputs": [
            {
              "internalType": "address",
              "name": "",
              "type": "address"
            }
          ],
          "name": "merchants",
          "outputs": [
            {
              "internalType": "string",
              "name": "name",
              "type": "string"
            },
            {
              "internalType": "bool",
              "name": "isActive",
              "type": "bool"
            },
            {
              "internalType": "bool",
              "name": "hasBeenRegistered",
              "type": "bool"
            }
          ],
          "stateMutability": "view",
          "type": "function"
        },
        {
          "inputs": [
            {
              "internalType": "address",
              "name": "_to",
              "type": "address"
            },
            {
              "internalType": "uint256",
              "name": "_amount",
              "type": "uint256"
            }
          ],
          "name": "mintTokens",
          "outputs": [],
          "stateMutability": "nonpayable",
          "type": "function"
        },
        {
          "inputs": [],
          "name": "name",
          "outputs": [
            {
              "internalType": "string",
              "name": "",
              "type": "string"
            }
          ],
          "stateMutability": "view",
          "type": "function"
        },
        {
          "inputs": [],
          "name": "owner",
          "outputs": [
            {
              "internalType": "address",
              "name": "",
              "type": "address"
            }
          ],
          "stateMutability": "view",
          "type": "function"
        },
        {
          "inputs": [],
          "name": "renounceOwnership",
          "outputs": [],
          "stateMutability": "nonpayable",
          "type": "function"
        },
        {
          "inputs": [
            {
              "internalType": "uint256",
              "name": "newExpirationDuration",
              "type": "uint256"
            }
          ],
          "name": "setExpirationDuration",
          "outputs": [],
          "stateMutability": "nonpayable",
          "type": "function"
        },
        {
          "inputs": [
            {
              "internalType": "uint256",
              "name": "newExpirationDuration",
              "type": "uint256"
            }
          ],
          "name": "setExpirationMerchantPercentage",
          "outputs": [],
          "stateMutability": "nonpayable",
          "type": "function"
        },
        {
          "inputs": [
            {
              "internalType": "uint256",
              "name": "newExpirationDuration",
              "type": "uint256"
            }
          ],
          "name": "setExpirationOwnerPercentage",
          "outputs": [],
          "stateMutability": "nonpayable",
          "type": "function"
        },
        {
          "inputs": [
            {
              "internalType": "uint256",
              "name": "newExpirationDuration",
              "type": "uint256"
            }
          ],
          "name": "setRedistributionMerchantPercentage",
          "outputs": [],
          "stateMutability": "nonpayable",
          "type": "function"
        },
        {
          "inputs": [
            {
              "internalType": "uint256",
              "name": "newExpirationDuration",
              "type": "uint256"
            }
          ],
          "name": "setRedistributionOwnerPercentage",
          "outputs": [],
          "stateMutability": "nonpayable",
          "type": "function"
        },
        {
          "inputs": [
            {
              "internalType": "address",
              "name": "_to",
              "type": "address"
            },
            {
              "internalType": "uint256",
              "name": "_amount",
              "type": "uint256"
            }
          ],
          "name": "spendTokens",
          "outputs": [],
          "stateMutability": "nonpayable",
          "type": "function"
        },
        {
          "inputs": [],
          "name": "symbol",
          "outputs": [
            {
              "internalType": "string",
              "name": "",
              "type": "string"
            }
          ],
          "stateMutability": "view",
          "type": "function"
        },
        {
          "inputs": [],
          "name": "totalSupply",
          "outputs": [
            {
              "internalType": "uint256",
              "name": "",
              "type": "uint256"
            }
          ],
          "stateMutability": "view",
          "type": "function"
        },
        {
          "inputs": [
            {
              "internalType": "address",
              "name": "",
              "type": "address"
            },
            {
              "internalType": "uint256",
              "name": "",
              "type": "uint256"
            }
          ],
          "name": "transfer",
          "outputs": [
            {
              "internalType": "bool",
              "name": "",
              "type": "bool"
            }
          ],
          "stateMutability": "pure",
          "type": "function"
        },
        {
          "inputs": [
            {
              "internalType": "address",
              "name": "",
              "type": "address"
            },
            {
              "internalType": "address",
              "name": "",
              "type": "address"
            },
            {
              "internalType": "uint256",
              "name": "",
              "type": "uint256"
            }
          ],
          "name": "transferFrom",
          "outputs": [
            {
              "internalType": "bool",
              "name": "",
              "type": "bool"
            }
          ],
          "stateMutability": "pure",
          "type": "function"
        },
        {
          "inputs": [
            {
              "internalType": "address",
              "name": "newOwner",
              "type": "address"
            }
          ],
          "name": "transferOwnership",
          "outputs": [],
          "stateMutability": "nonpayable",
          "type": "function"
        },
        {
          "inputs": [
            {
              "internalType": "address",
              "name": "_consumer",
              "type": "address"
            }
          ],
          "name": "updateConsumerTokens",
          "outputs": [],
          "stateMutability": "nonpayable",
          "type": "function"
        }
      ],
      "evm": {
        "bytecode": {
          "linkReferences": {},
          "object": "608060405262ed4e00600655601e60075560146008556012600955600c600a5534801561002b57600080fd5b50336040518060400160405280600881526020017f466964656c696e6b0000000000000000000000000000000000000000000000008152506040518060400160405280600381526020017f46444c000000000000000000000000000000000000000000000000000000000081525081600390816100a89190610458565b5080600490816100b89190610458565b505050600073ffffffffffffffffffffffffffffffffffffffff168173ffffffffffffffffffffffffffffffffffffffff160361012d5760006040517f1e4fbdf7000000000000000000000000000000000000000000000000000000008152600401610124919061056b565b60405180910390fd5b61013c8161014260201b60201c565b50610586565b6000600560009054906101000a900473ffffffffffffffffffffffffffffffffffffffff16905081600560006101000a81548173ffffffffffffffffffffffffffffffffffffffff021916908373ffffffffffffffffffffffffffffffffffffffff1602179055508173ffffffffffffffffffffffffffffffffffffffff168173ffffffffffffffffffffffffffffffffffffffff167f8be0079c531659141344cd1fd0a4f28419497f9722a3daafe3b4186f6b6457e060405160405180910390a35050565b600081519050919050565b7f4e487b7100000000000000000000000000000000000000000000000000000000600052604160045260246000fd5b7f4e487b7100000000000000000000000000000000000000000000000000000000600052602260045260246000fd5b6000600282049050600182168061028957607f821691505b60208210810361029c5761029b610242565b5b50919050565b60008190508160005260206000209050919050565b60006020601f8301049050919050565b600082821b905092915050565b6000600883026103047fffffffffffffffffffffffffffffffffffffffffffffffffffffffffffffffff826102c7565b61030e86836102c7565b95508019841693508086168417925050509392505050565b6000819050919050565b6000819050919050565b600061035561035061034b84610326565b610330565b610326565b9050919050565b6000819050919050565b61036f8361033a565b61038361037b8261035c565b8484546102d4565b825550505050565b600090565b61039861038b565b6103a3818484610366565b505050565b5b818110156103c7576103bc600082610390565b6001810190506103a9565b5050565b601f82111561040c576103dd816102a2565b6103e6846102b7565b810160208510156103f5578190505b610409610401856102b7565b8301826103a8565b50505b505050565b600082821c905092915050565b600061042f60001984600802610411565b1980831691505092915050565b6000610448838361041e565b9150826002028217905092915050565b61046182610208565b67ffffffffffffffff81111561047a57610479610213565b5b6104848254610271565b61048f8282856103cb565b600060209050601f8311600181146104c257600084156104b0578287015190505b6104ba858261043c565b865550610522565b601f1984166104d0866102a2565b60005b828110156104f8578489015182556001820191506020850194506020810190506104d3565b868310156105155784890151610511601f89168261041e565b8355505b6001600288020188555050505b505050505050565b600073ffffffffffffffffffffffffffffffffffffffff82169050919050565b60006105558261052a565b9050919050565b6105658161054a565b82525050565b6000602082019050610580600083018461055c565b92915050565b614770806105956000396000f3fe608060405234801561001057600080fd5b50600436106102275760003560e01c80637c6d115b11610130578063af06610d116100b8578063dd62ed3e1161007c578063dd62ed3e14610640578063ee14e93914610670578063f0dda65c146106a2578063f2fde38b146106be578063f5febbd7146106da57610227565b8063af06610d1461059a578063b2734eaf146105b8578063ba0b3d8c146105e8578063ba5b810e14610606578063cd6269bd1461062257610227565b806393175bb7116100ff57806393175bb7146104e157806395d89b4114610500578063993084e81461051e578063a848a2021461054e578063a9059cbb1461056a57610227565b80637c6d115b1461046f57806382ff33cf1461048b5780638335e61a146104a75780638da5cb5b146104c357610227565b80633d4248a3116101b3578063626485a311610182578063626485a3146103df57806370a08231146103fb578063715018a61461042b57806371e070ac146104355780637477a5a01461045157610227565b80633d4248a31461036d57806340800868146103895780635dec8ae9146103a7578063613416ac146103c357610227565b806312065fe0116101fa57806312065fe0146102c757806318160ddd146102e55780631ae3228d1461030357806323b872dd1461031f578063313ce5671461034f57610227565b806306fdde031461022c578063095ea7b31461024a5780630bf536681461027a578063112940f9146102ab575b600080fd5b6102346106f6565b60405161024191906130de565b60405180910390f35b610264600480360381019061025f919061319e565b610788565b60405161027191906131f9565b60405180910390f35b610294600480360381019061028f9190613214565b6107c5565b6040516102a2929190613241565b60405180910390f35b6102c560048036038101906102c09190613214565b610803565b005b6102cf610a1c565b6040516102dc9190613279565b60405180910390f35b6102ed610a2c565b6040516102fa9190613279565b60405180910390f35b61031d60048036038101906103189190613214565b610a36565b005b61033960048036038101906103349190613294565b610a4a565b60405161034691906131f9565b60405180910390f35b610357610a87565b6040516103649190613303565b60405180910390f35b61038760048036038101906103829190613214565b610a90565b005b610391610c6e565b60405161039e9190613279565b60405180910390f35b6103c160048036038101906103bc919061319e565b610c78565b005b6103dd60048036038101906103d89190613383565b611118565b005b6103f960048036038101906103f491906133e3565b611319565b005b61041560048036038101906104109190613214565b61136e565b6040516104229190613279565b60405180910390f35b6104336113b6565b005b61044f600480360381019061044a91906133e3565b6113ca565b005b6104596113dc565b6040516104669190613279565b60405180910390f35b61048960048036038101906104849190613214565b6113e6565b005b6104a560048036038101906104a09190613214565b6115c5565b005b6104c160048036038101906104bc91906133e3565b61182a565b005b6104cb61183c565b6040516104d8919061341f565b60405180910390f35b6104e9611866565b6040516104f79291906135b6565b60405180910390f35b610508611cf0565b60405161051591906130de565b60405180910390f35b61053860048036038101906105339190613214565b611d82565b604051610545919061362b565b60405180910390f35b610568600480360381019061056391906133e3565b611f6c565b005b610584600480360381019061057f919061319e565b611f7e565b60405161059191906131f9565b60405180910390f35b6105a2611fbb565b6040516105af9190613279565b60405180910390f35b6105d260048036038101906105cd9190613214565b611fc5565b6040516105df91906136e0565b60405180910390f35b6105f061217d565b6040516105fd9190613279565b60405180910390f35b610620600480360381019061061b9190613214565b612187565b005b61062a6123ed565b6040516106379190613279565b60405180910390f35b61065a60048036038101906106559190613702565b6123f7565b6040516106679190613279565b60405180910390f35b61068a60048036038101906106859190613214565b61247e565b60405161069993929190613742565b60405180910390f35b6106bc60048036038101906106b7919061319e565b61254a565b005b6106d860048036038101906106d39190613214565b612814565b005b6106f460048036038101906106ef91906133e3565b61289a565b005b606060038054610705906137af565b80601f0160208091040260200160405190810160405280929190818152602001828054610731906137af565b801561077e5780601f106107535761010080835404028352916020019161077e565b820191906000526020600020905b81548152906001019060200180831161076157829003601f168201915b5050505050905090565b60006040517f08c379a00000000000000000000000000000000000000000000000000000000081526004016107bc9061382c565b60405180910390fd5b600c6020528060005260406000206000915090508060000160009054906101000a900460ff16908060000160019054906101000a900460ff16905082565b600b60003373ffffffffffffffffffffffffffffffffffffffff1673ffffffffffffffffffffffffffffffffffffffff16815260200190815260200160002060010160009054906101000a900460ff16610892576040517f08c379a0000000000000000000000000000000000000000000000000000000008152600401610889906138be565b60405180910390fd5b600c60008273ffffffffffffffffffffffffffffffffffffffff1673ffffffffffffffffffffffffffffffffffffffff16815260200190815260200160002060000160019054906101000a900460ff1615610922576040517f08c379a00000000000000000000000000000000000000000000000000000000081526004016109199061392a565b60405180910390fd5b604051806040016040528060011515815260200160011515815250600c60008373ffffffffffffffffffffffffffffffffffffffff1673ffffffffffffffffffffffffffffffffffffffff16815260200190815260200160002060008201518160000160006101000a81548160ff02191690831515021790555060208201518160000160016101000a81548160ff0219169083151502179055509050503373ffffffffffffffffffffffffffffffffffffffff168173ffffffffffffffffffffffffffffffffffffffff167fb300042a9da91faf83435f77f20a481b85ae790affaf775b955c44e2769a71f660405160405180910390a350565b6000610a273361136e565b905090565b6000600254905090565b610a3e6128ac565b610a4781612933565b50565b60006040517f08c379a0000000000000000000000000000000000000000000000000000000008152600401610a7e90613996565b60405180910390fd5b60006012905090565b610a986128ac565b600b60008273ffffffffffffffffffffffffffffffffffffffff1673ffffffffffffffffffffffffffffffffffffffff16815260200190815260200160002060010160019054906101000a900460ff16610b27576040517f08c379a0000000000000000000000000000000000000000000000000000000008152600401610b1e90613a02565b60405180910390fd5b600b60008273ffffffffffffffffffffffffffffffffffffffff1673ffffffffffffffffffffffffffffffffffffffff16815260200190815260200160002060010160009054906101000a900460ff16610bb6576040517f08c379a0000000000000000000000000000000000000000000000000000000008152600401610bad90613a6e565b60405180910390fd5b6000600b60008373ffffffffffffffffffffffffffffffffffffffff1673ffffffffffffffffffffffffffffffffffffffff16815260200190815260200160002060010160006101000a81548160ff0219169083151502179055503373ffffffffffffffffffffffffffffffffffffffff168173ffffffffffffffffffffffffffffffffffffffff167f31b730967aa3afedf1a1cbfcb5c3f17c58b34f7c7e4added70883e9c87fca0d060405160405180910390a350565b6000600654905090565b600c60003373ffffffffffffffffffffffffffffffffffffffff1673ffffffffffffffffffffffffffffffffffffffff16815260200190815260200160002060000160009054906101000a900460ff16610d07576040517f08c379a0000000000000000000000000000000000000000000000000000000008152600401610cfe90613b00565b60405180910390fd5b600b60008373ffffffffffffffffffffffffffffffffffffffff1673ffffffffffffffffffffffffffffffffffffffff16815260200190815260200160002060010160009054906101000a900460ff16610d96576040517f08c379a0000000000000000000000000000000000000000000000000000000008152600401610d8d90613b92565b60405180910390fd5b60008111610dd9576040517f08c379a0000000000000000000000000000000000000000000000000000000008152600401610dd090613bfe565b60405180910390fd5b610de23361136e565b811115610e24576040517f08c379a0000000000000000000000000000000000000000000000000000000008152600401610e1b90613c6a565b60405180910390fd5b610e2d33612933565b6000819050600080600080600d60003373ffffffffffffffffffffffffffffffffffffffff1673ffffffffffffffffffffffffffffffffffffffff168152602001908152602001600020905060005b818054905081108015610e8f5750600086115b15611051576000828281548110610ea957610ea8613c8a565b5b9060005260206000209060030201905060008782600101541015610ed1578160010154610ed3565b875b90508973ffffffffffffffffffffffffffffffffffffffff168260000160009054906101000a900473ffffffffffffffffffffffffffffffffffffffff1673ffffffffffffffffffffffffffffffffffffffff1603610f3f578087610f389190613ce8565b9650611013565b6000606460095483610f519190613d1c565b610f5b9190613d8d565b905060006064600a5484610f6f9190613d1c565b610f799190613d8d565b90508188610f879190613ce8565b97508087610f959190613ce8565b96506000881115610fb357610fb233610fac61183c565b8a612ba2565b5b6000871115610fec57610feb338560000160009054906101000a900473ffffffffffffffffffffffffffffffffffffffff1689612ba2565b5b808284610ff99190613dbe565b6110039190613dbe565b8961100e9190613ce8565b985050505b808260010160008282546110279190613dbe565b92505081905550808861103a9190613dbe565b97505050808061104990613df2565b915050610e7c565b5060008514611095576040517f08c379a000000000000000000000000000000000000000000000000000000000815260040161108c90613e86565b60405180910390fd5b60008411156110aa576110a9338886612ba2565b5b8673ffffffffffffffffffffffffffffffffffffffff163373ffffffffffffffffffffffffffffffffffffffff167f64a4dd35aaec4fe7cb17eee474588ea05a013c00c804d85714118a1eed4c6277886040516111079190613279565b60405180910390a350505050505050565b6111206128ac565b600b60008473ffffffffffffffffffffffffffffffffffffffff1673ffffffffffffffffffffffffffffffffffffffff16815260200190815260200160002060010160019054906101000a900460ff16156111b0576040517f08c379a00000000000000000000000000000000000000000000000000000000081526004016111a790613ef2565b60405180910390fd5b604051806060016040528083838080601f016020809104026020016040519081016040528093929190818152602001838380828437600081840152601f19601f82011690508083019250505050505050815260200160011515815260200160011515815250600b60008573ffffffffffffffffffffffffffffffffffffffff1673ffffffffffffffffffffffffffffffffffffffff168152602001908152602001600020600082015181600001908161126991906140ed565b5060208201518160010160006101000a81548160ff02191690831515021790555060408201518160010160016101000a81548160ff0219169083151502179055509050503373ffffffffffffffffffffffffffffffffffffffff168373ffffffffffffffffffffffffffffffffffffffff167feb73e6bccec18645f7ac6f72e4889ef17a2eeb68b33b193f37d498beb34f0b73848460405161130c9291906141fb565b60405180910390a3505050565b6113216128ac565b60008111611364576040517f08c379a000000000000000000000000000000000000000000000000000000000815260040161135b90614291565b60405180910390fd5b8060068190555050565b60008060008373ffffffffffffffffffffffffffffffffffffffff1673ffffffffffffffffffffffffffffffffffffffff168152602001908152602001600020549050919050565b6113be6128ac565b6113c86000612c96565b565b6113d26128ac565b8060098190555050565b6000600954905090565b6113ee6128ac565b600b60008273ffffffffffffffffffffffffffffffffffffffff1673ffffffffffffffffffffffffffffffffffffffff16815260200190815260200160002060010160019054906101000a900460ff1661147d576040517f08c379a000000000000000000000000000000000000000000000000000000000815260040161147490613a02565b60405180910390fd5b600b60008273ffffffffffffffffffffffffffffffffffffffff1673ffffffffffffffffffffffffffffffffffffffff16815260200190815260200160002060010160009054906101000a900460ff161561150d576040517f08c379a0000000000000000000000000000000000000000000000000000000008152600401611504906142fd565b60405180910390fd5b6001600b60008373ffffffffffffffffffffffffffffffffffffffff1673ffffffffffffffffffffffffffffffffffffffff16815260200190815260200160002060010160006101000a81548160ff0219169083151502179055503373ffffffffffffffffffffffffffffffffffffffff168173ffffffffffffffffffffffffffffffffffffffff167fbe1bf78d2314c21cd36028d0862bf1d94485178957e8e67bc7a3f0ac0dff4c8a60405160405180910390a350565b600b60003373ffffffffffffffffffffffffffffffffffffffff1673ffffffffffffffffffffffffffffffffffffffff16815260200190815260200160002060010160009054906101000a900460ff16611654576040517f08c379a000000000000000000000000000000000000000000000000000000000815260040161164b906138be565b60405180910390fd5b600c60008273ffffffffffffffffffffffffffffffffffffffff1673ffffffffffffffffffffffffffffffffffffffff16815260200190815260200160002060000160019054906101000a900460ff166116e3576040517f08c379a00000000000000000000000000000000000000000000000000000000081526004016116da90614369565b60405180910390fd5b600c60008273ffffffffffffffffffffffffffffffffffffffff1673ffffffffffffffffffffffffffffffffffffffff16815260200190815260200160002060000160009054906101000a900460ff16611772576040517f08c379a0000000000000000000000000000000000000000000000000000000008152600401611769906143d5565b60405180910390fd5b6000600c60008373ffffffffffffffffffffffffffffffffffffffff1673ffffffffffffffffffffffffffffffffffffffff16815260200190815260200160002060000160006101000a81548160ff0219169083151502179055503373ffffffffffffffffffffffffffffffffffffffff168173ffffffffffffffffffffffffffffffffffffffff167f6c10308b293b0427b53963d76d7ed3a44ddb3deac505a3bb199635d6092b886e60405160405180910390a350565b6118326128ac565b80600a8190555050565b6000600560009054906101000a900473ffffffffffffffffffffffffffffffffffffffff16905090565b606080600c60003373ffffffffffffffffffffffffffffffffffffffff1673ffffffffffffffffffffffffffffffffffffffff16815260200190815260200160002060000160009054906101000a900460ff166118f8576040517f08c379a00000000000000000000000000000000000000000000000000000000081526004016118ef90613b00565b60405180910390fd5b6000600d60003373ffffffffffffffffffffffffffffffffffffffff1673ffffffffffffffffffffffffffffffffffffffff16815260200190815260200160002090506000818054905067ffffffffffffffff81111561195b5761195a613f12565b5b6040519080825280602002602001820160405280156119895781602001602082028036833780820191505090505b5090506000828054905067ffffffffffffffff8111156119ac576119ab613f12565b5b6040519080825280602002602001820160405280156119da5781602001602082028036833780820191505090505b5090506000805b8480549050811015611b96576000858281548110611a0257611a01613c8a565b5b906000526020600020906003020160000160009054906101000a900473ffffffffffffffffffffffffffffffffffffffff1690506000868381548110611a4b57611a4a613c8a565b5b906000526020600020906003020160010154905060006001905060005b85811015611b02578373ffffffffffffffffffffffffffffffffffffffff16888281518110611a9a57611a99613c8a565b5b602002602001015173ffffffffffffffffffffffffffffffffffffffff1603611af55782878281518110611ad157611ad0613c8a565b5b60200260200101818151611ae59190613ce8565b9150818152505060009150611b02565b8080600101915050611a68565b508015611b865782878681518110611b1d57611b1c613c8a565b5b602002602001019073ffffffffffffffffffffffffffffffffffffffff16908173ffffffffffffffffffffffffffffffffffffffff168152505081868681518110611b6b57611b6a613c8a565b5b6020026020010181815250508480611b8290613df2565b9550505b50505080806001019150506119e1565b508067ffffffffffffffff811115611bb157611bb0613f12565b5b604051908082528060200260200182016040528015611bdf5781602001602082028036833780820191505090505b5095508067ffffffffffffffff811115611bfc57611bfb613f12565b5b604051908082528060200260200182016040528015611c2a5781602001602082028036833780820191505090505b50945060005b81811015611ce757838181518110611c4b57611c4a613c8a565b5b6020026020010151878281518110611c6657611c65613c8a565b5b602002602001019073ffffffffffffffffffffffffffffffffffffffff16908173ffffffffffffffffffffffffffffffffffffffff1681525050828181518110611cb357611cb2613c8a565b5b6020026020010151868281518110611cce57611ccd613c8a565b5b6020026020010181815250508080600101915050611c30565b50505050509091565b606060048054611cff906137af565b80601f0160208091040260200160405190810160405280929190818152602001828054611d2b906137af565b8015611d785780601f10611d4d57610100808354040283529160200191611d78565b820191906000526020600020905b815481529060010190602001808311611d5b57829003601f168201915b5050505050905090565b611d8a61300b565b611d9261183c565b73ffffffffffffffffffffffffffffffffffffffff163373ffffffffffffffffffffffffffffffffffffffff161480611e175750600b60003373ffffffffffffffffffffffffffffffffffffffff1673ffffffffffffffffffffffffffffffffffffffff16815260200190815260200160002060010160009054906101000a900460ff165b611e56576040517f08c379a0000000000000000000000000000000000000000000000000000000008152600401611e4d90614467565b60405180910390fd5b600c60008373ffffffffffffffffffffffffffffffffffffffff1673ffffffffffffffffffffffffffffffffffffffff16815260200190815260200160002060000160019054906101000a900460ff16611ee5576040517f08c379a0000000000000000000000000000000000000000000000000000000008152600401611edc90614369565b60405180910390fd5b600c60008373ffffffffffffffffffffffffffffffffffffffff1673ffffffffffffffffffffffffffffffffffffffff1681526020019081526020016000206040518060400160405290816000820160009054906101000a900460ff161515151581526020016000820160019054906101000a900460ff1615151515815250509050919050565b611f746128ac565b8060078190555050565b60006040517f08c379a0000000000000000000000000000000000000000000000000000000008152600401611fb290613996565b60405180910390fd5b6000600854905090565b611fcd613029565b611fd56128ac565b600b60008373ffffffffffffffffffffffffffffffffffffffff1673ffffffffffffffffffffffffffffffffffffffff16815260200190815260200160002060010160019054906101000a900460ff16612064576040517f08c379a000000000000000000000000000000000000000000000000000000000815260040161205b90613a02565b60405180910390fd5b600b60008373ffffffffffffffffffffffffffffffffffffffff1673ffffffffffffffffffffffffffffffffffffffff1681526020019081526020016000206040518060600160405290816000820180546120be906137af565b80601f01602080910402602001604051908101604052809291908181526020018280546120ea906137af565b80156121375780601f1061210c57610100808354040283529160200191612137565b820191906000526020600020905b81548152906001019060200180831161211a57829003601f168201915b505050505081526020016001820160009054906101000a900460ff161515151581526020016001820160019054906101000a900460ff1615151515815250509050919050565b6000600754905090565b600b60003373ffffffffffffffffffffffffffffffffffffffff1673ffffffffffffffffffffffffffffffffffffffff16815260200190815260200160002060010160009054906101000a900460ff16612216576040517f08c379a000000000000000000000000000000000000000000000000000000000815260040161220d906138be565b60405180910390fd5b600c60008273ffffffffffffffffffffffffffffffffffffffff1673ffffffffffffffffffffffffffffffffffffffff16815260200190815260200160002060000160019054906101000a900460ff166122a5576040517f08c379a000000000000000000000000000000000000000000000000000000000815260040161229c90614369565b60405180910390fd5b600c60008273ffffffffffffffffffffffffffffffffffffffff1673ffffffffffffffffffffffffffffffffffffffff16815260200190815260200160002060000160009054906101000a900460ff1615612335576040517f08c379a000000000000000000000000000000000000000000000000000000000815260040161232c906144d3565b60405180910390fd5b6001600c60008373ffffffffffffffffffffffffffffffffffffffff1673ffffffffffffffffffffffffffffffffffffffff16815260200190815260200160002060000160006101000a81548160ff0219169083151502179055503373ffffffffffffffffffffffffffffffffffffffff168173ffffffffffffffffffffffffffffffffffffffff167fc716f45f9b4bca673d35ed1050d1b551542210e116cc85ad2ad531487eaaa17c60405160405180910390a350565b6000600a54905090565b6000600160008473ffffffffffffffffffffffffffffffffffffffff1673ffffffffffffffffffffffffffffffffffffffff16815260200190815260200160002060008373ffffffffffffffffffffffffffffffffffffffff1673ffffffffffffffffffffffffffffffffffffffff16815260200190815260200160002054905092915050565b600b6020528060005260406000206000915090508060000180546124a1906137af565b80601f01602080910402602001604051908101604052809291908181526020018280546124cd906137af565b801561251a5780601f106124ef5761010080835404028352916020019161251a565b820191906000526020600020905b8154815290600101906020018083116124fd57829003601f168201915b5050505050908060010160009054906101000a900460ff16908060010160019054906101000a900460ff16905083565b600b60003373ffffffffffffffffffffffffffffffffffffffff1673ffffffffffffffffffffffffffffffffffffffff16815260200190815260200160002060010160009054906101000a900460ff166125d9576040517f08c379a00000000000000000000000000000000000000000000000000000000081526004016125d0906138be565b60405180910390fd5b600c60008373ffffffffffffffffffffffffffffffffffffffff1673ffffffffffffffffffffffffffffffffffffffff16815260200190815260200160002060000160009054906101000a900460ff16612668576040517f08c379a000000000000000000000000000000000000000000000000000000000815260040161265f90614565565b60405180910390fd5b600081116126ab576040517f08c379a00000000000000000000000000000000000000000000000000000000081526004016126a290613bfe565b60405180910390fd5b6126b58282612d5c565b600d60008373ffffffffffffffffffffffffffffffffffffffff1673ffffffffffffffffffffffffffffffffffffffff16815260200190815260200160002060405180606001604052803373ffffffffffffffffffffffffffffffffffffffff16815260200183815260200142815250908060018154018082558091505060019003906000526020600020906003020160009091909190915060008201518160000160006101000a81548173ffffffffffffffffffffffffffffffffffffffff021916908373ffffffffffffffffffffffffffffffffffffffff160217905550602082015181600101556040820151816002015550508173ffffffffffffffffffffffffffffffffffffffff163373ffffffffffffffffffffffffffffffffffffffff167fdf1b2b09e9800d31c599375056be9f9e4eb37f078102643600c4e149714efaad836040516128089190613279565b60405180910390a35050565b61281c6128ac565b600073ffffffffffffffffffffffffffffffffffffffff168173ffffffffffffffffffffffffffffffffffffffff160361288e5760006040517f1e4fbdf7000000000000000000000000000000000000000000000000000000008152600401612885919061341f565b60405180910390fd5b61289781612c96565b50565b6128a26128ac565b8060088190555050565b6128b4612dde565b73ffffffffffffffffffffffffffffffffffffffff166128d261183c565b73ffffffffffffffffffffffffffffffffffffffff1614612931576128f5612dde565b6040517f118cdaa7000000000000000000000000000000000000000000000000000000008152600401612928919061341f565b60405180910390fd5b565b600c60008273ffffffffffffffffffffffffffffffffffffffff1673ffffffffffffffffffffffffffffffffffffffff16815260200190815260200160002060000160019054906101000a900460ff166129c2576040517f08c379a00000000000000000000000000000000000000000000000000000000081526004016129b990614369565b60405180910390fd5b6000600d60008373ffffffffffffffffffffffffffffffffffffffff1673ffffffffffffffffffffffffffffffffffffffff1681526020019081526020016000209050600042905060005b8280549050811015612b9c576000838281548110612a2e57612a2d613c8a565b5b906000526020600020906003020190506000816002015484612a509190613dbe565b9050600654811115612b8d57600060065482612a6c9190613d8d565b90506000816002612a7d91906146b8565b8460010154612a8c9190613d8d565b8460010154612a9b9190613dbe565b9050816002612aaa91906146b8565b8460010154612ab99190613d8d565b84600101819055506000811115612b625760006064600260075484612ade9190613d1c565b612ae89190613d1c565b612af29190613d8d565b905060006064600260085485612b089190613d1c565b612b129190613d1c565b612b1c9190613d8d565b9050612b308a612b2a61183c565b84612ba2565b612b5f8a8760000160009054906101000a900473ffffffffffffffffffffffffffffffffffffffff1683612ba2565b50505b60065482612b709190613d1c565b846002016000828254612b839190613ce8565b9250508190555050505b50508080600101915050612a0d565b50505050565b600073ffffffffffffffffffffffffffffffffffffffff168373ffffffffffffffffffffffffffffffffffffffff1603612c145760006040517f96c6fd1e000000000000000000000000000000000000000000000000000000008152600401612c0b919061341f565b60405180910390fd5b600073ffffffffffffffffffffffffffffffffffffffff168273ffffffffffffffffffffffffffffffffffffffff1603612c865760006040517fec442f05000000000000000000000000000000000000000000000000000000008152600401612c7d919061341f565b60405180910390fd5b612c91838383612de6565b505050565b6000600560009054906101000a900473ffffffffffffffffffffffffffffffffffffffff16905081600560006101000a81548173ffffffffffffffffffffffffffffffffffffffff021916908373ffffffffffffffffffffffffffffffffffffffff1602179055508173ffffffffffffffffffffffffffffffffffffffff168173ffffffffffffffffffffffffffffffffffffffff167f8be0079c531659141344cd1fd0a4f28419497f9722a3daafe3b4186f6b6457e060405160405180910390a35050565b600073ffffffffffffffffffffffffffffffffffffffff168273ffffffffffffffffffffffffffffffffffffffff1603612dce5760006040517fec442f05000000000000000000000000000000000000000000000000000000008152600401612dc5919061341f565b60405180910390fd5b612dda60008383612de6565b5050565b600033905090565b600073ffffffffffffffffffffffffffffffffffffffff168373ffffffffffffffffffffffffffffffffffffffff1603612e38578060026000828254612e2c9190613ce8565b92505081905550612f0b565b60008060008573ffffffffffffffffffffffffffffffffffffffff1673ffffffffffffffffffffffffffffffffffffffff16815260200190815260200160002054905081811015612ec4578381836040517fe450d38c000000000000000000000000000000000000000000000000000000008152600401612ebb93929190614703565b60405180910390fd5b8181036000808673ffffffffffffffffffffffffffffffffffffffff1673ffffffffffffffffffffffffffffffffffffffff16815260200190815260200160002081905550505b600073ffffffffffffffffffffffffffffffffffffffff168273ffffffffffffffffffffffffffffffffffffffff1603612f545780600260008282540392505081905550612fa1565b806000808473ffffffffffffffffffffffffffffffffffffffff1673ffffffffffffffffffffffffffffffffffffffff168152602001908152602001600020600082825401925050819055505b8173ffffffffffffffffffffffffffffffffffffffff168373ffffffffffffffffffffffffffffffffffffffff167fddf252ad1be2c89b69c2b068fc378daa952ba7f163c4a11628f55a4df523b3ef83604051612ffe9190613279565b60405180910390a3505050565b60405180604001604052806000151581526020016000151581525090565b6040518060600160405280606081526020016000151581526020016000151581525090565b600081519050919050565b600082825260208201905092915050565b60005b8381101561308857808201518184015260208101905061306d565b60008484015250505050565b6000601f19601f8301169050919050565b60006130b08261304e565b6130ba8185613059565b93506130ca81856020860161306a565b6130d381613094565b840191505092915050565b600060208201905081810360008301526130f881846130a5565b905092915050565b600080fd5b600080fd5b600073ffffffffffffffffffffffffffffffffffffffff82169050919050565b60006131358261310a565b9050919050565b6131458161312a565b811461315057600080fd5b50565b6000813590506131628161313c565b92915050565b6000819050919050565b61317b81613168565b811461318657600080fd5b50565b60008135905061319881613172565b92915050565b600080604083850312156131b5576131b4613100565b5b60006131c385828601613153565b92505060206131d485828601613189565b9150509250929050565b60008115159050919050565b6131f3816131de565b82525050565b600060208201905061320e60008301846131ea565b92915050565b60006020828403121561322a57613229613100565b5b600061323884828501613153565b91505092915050565b600060408201905061325660008301856131ea565b61326360208301846131ea565b9392505050565b61327381613168565b82525050565b600060208201905061328e600083018461326a565b92915050565b6000806000606084860312156132ad576132ac613100565b5b60006132bb86828701613153565b93505060206132cc86828701613153565b92505060406132dd86828701613189565b9150509250925092565b600060ff82169050919050565b6132fd816132e7565b82525050565b600060208201905061331860008301846132f4565b92915050565b600080fd5b600080fd5b600080fd5b60008083601f8401126133435761334261331e565b5b8235905067ffffffffffffffff8111156133605761335f613323565b5b60208301915083600182028301111561337c5761337b613328565b5b9250929050565b60008060006040848603121561339c5761339b613100565b5b60006133aa86828701613153565b935050602084013567ffffffffffffffff8111156133cb576133ca613105565b5b6133d78682870161332d565b92509250509250925092565b6000602082840312156133f9576133f8613100565b5b600061340784828501613189565b91505092915050565b6134198161312a565b82525050565b60006020820190506134346000830184613410565b92915050565b600081519050919050565b600082825260208201905092915050565b6000819050602082019050919050565b61346f8161312a565b82525050565b60006134818383613466565b60208301905092915050565b6000602082019050919050565b60006134a58261343a565b6134af8185613445565b93506134ba83613456565b8060005b838110156134eb5781516134d28882613475565b97506134dd8361348d565b9250506001810190506134be565b5085935050505092915050565b600081519050919050565b600082825260208201905092915050565b6000819050602082019050919050565b61352d81613168565b82525050565b600061353f8383613524565b60208301905092915050565b6000602082019050919050565b6000613563826134f8565b61356d8185613503565b935061357883613514565b8060005b838110156135a95781516135908882613533565b975061359b8361354b565b92505060018101905061357c565b5085935050505092915050565b600060408201905081810360008301526135d0818561349a565b905081810360208301526135e48184613558565b90509392505050565b6135f6816131de565b82525050565b60408201600082015161361260008501826135ed565b50602082015161362560208501826135ed565b50505050565b600060408201905061364060008301846135fc565b92915050565b600082825260208201905092915050565b60006136628261304e565b61366c8185613646565b935061367c81856020860161306a565b61368581613094565b840191505092915050565b600060608301600083015184820360008601526136ad8282613657565b91505060208301516136c260208601826135ed565b5060408301516136d560408601826135ed565b508091505092915050565b600060208201905081810360008301526136fa8184613690565b905092915050565b6000806040838503121561371957613718613100565b5b600061372785828601613153565b925050602061373885828601613153565b9150509250929050565b6000606082019050818103600083015261375c81866130a5565b905061376b60208301856131ea565b61377860408301846131ea565b949350505050565b7f4e487b7100000000000000000000000000000000000000000000000000000000600052602260045260246000fd5b600060028204905060018216806137c757607f821691505b6020821081036137da576137d9613780565b5b50919050565b7f417070726f76652069732064697361626c656400000000000000000000000000600082015250565b6000613816601383613059565b9150613821826137e0565b602082019050919050565b6000602082019050818103600083015261384581613809565b9050919050565b7f4f6e6c7920616374697665206d65726368616e74732063616e2063616c6c207460008201527f6869732066756e6374696f6e0000000000000000000000000000000000000000602082015250565b60006138a8602c83613059565b91506138b38261384c565b604082019050919050565b600060208201905081810360008301526138d78161389b565b9050919050565b7f436f6e73756d657220616c726561647920657869737473000000000000000000600082015250565b6000613914601783613059565b915061391f826138de565b602082019050919050565b6000602082019050818103600083015261394381613907565b9050919050565b7f5472616e736665722069732064697361626c6564000000000000000000000000600082015250565b6000613980601483613059565b915061398b8261394a565b602082019050919050565b600060208201905081810360008301526139af81613973565b9050919050565b7f4d65726368616e7420646f6573206e6f74206578697374000000000000000000600082015250565b60006139ec601783613059565b91506139f7826139b6565b602082019050919050565b60006020820190508181036000830152613a1b816139df565b9050919050565b7f4d65726368616e7420616c72656164792064697361626c656400000000000000600082015250565b6000613a58601983613059565b9150613a6382613a22565b602082019050919050565b60006020820190508181036000830152613a8781613a4b565b9050919050565b7f4f6e6c792061637469766520636f6e73756d6572732063616e2063616c6c207460008201527f6869732066756e6374696f6e0000000000000000000000000000000000000000602082015250565b6000613aea602c83613059565b9150613af582613a8e565b604082019050919050565b60006020820190508181036000830152613b1981613add565b9050919050565b7f4d65726368616e7420646f6573206e6f74206578697374206f7220697320646960008201527f7361626c65640000000000000000000000000000000000000000000000000000602082015250565b6000613b7c602683613059565b9150613b8782613b20565b604082019050919050565b60006020820190508181036000830152613bab81613b6f565b9050919050565b7f416d6f756e74206d7573742062652067726561746572207468616e2030000000600082015250565b6000613be8601d83613059565b9150613bf382613bb2565b602082019050919050565b60006020820190508181036000830152613c1781613bdb565b9050919050565b7f596f7520646f6e2774206861766520656e6f75676820746f6b656e7300000000600082015250565b6000613c54601c83613059565b9150613c5f82613c1e565b602082019050919050565b60006020820190508181036000830152613c8381613c47565b9050919050565b7f4e487b7100000000000000000000000000000000000000000000000000000000600052603260045260246000fd5b7f4e487b7100000000000000000000000000000000000000000000000000000000600052601160045260246000fd5b6000613cf382613168565b9150613cfe83613168565b9250828201905080821115613d1657613d15613cb9565b5b92915050565b6000613d2782613168565b9150613d3283613168565b9250828202613d4081613168565b91508282048414831517613d5757613d56613cb9565b5b5092915050565b7f4e487b7100000000000000000000000000000000000000000000000000000000600052601260045260246000fd5b6000613d9882613168565b9150613da383613168565b925082613db357613db2613d5e565b5b828204905092915050565b6000613dc982613168565b9150613dd483613168565b9250828203905081811115613dec57613deb613cb9565b5b92915050565b6000613dfd82613168565b91507fffffffffffffffffffffffffffffffffffffffffffffffffffffffffffffffff8203613e2f57613e2e613cb9565b5b600182019050919050565b7f4e6f7420656e6f7567682076616c696420746f6b656e73000000000000000000600082015250565b6000613e70601783613059565b9150613e7b82613e3a565b602082019050919050565b60006020820190508181036000830152613e9f81613e63565b9050919050565b7f4d65726368616e7420616c726561647920657869737473000000000000000000600082015250565b6000613edc601783613059565b9150613ee782613ea6565b602082019050919050565b60006020820190508181036000830152613f0b81613ecf565b9050919050565b7f4e487b7100000000000000000000000000000000000000000000000000000000600052604160045260246000fd5b60008190508160005260206000209050919050565b60006020601f8301049050919050565b600082821b905092915050565b600060088302613fa37fffffffffffffffffffffffffffffffffffffffffffffffffffffffffffffffff82613f66565b613fad8683613f66565b95508019841693508086168417925050509392505050565b6000819050919050565b6000613fea613fe5613fe084613168565b613fc5565b613168565b9050919050565b6000819050919050565b61400483613fcf565b61401861401082613ff1565b848454613f73565b825550505050565b600090565b61402d614020565b614038818484613ffb565b505050565b5b8181101561405c57614051600082614025565b60018101905061403e565b5050565b601f8211156140a15761407281613f41565b61407b84613f56565b8101602085101561408a578190505b61409e61409685613f56565b83018261403d565b50505b505050565b600082821c905092915050565b60006140c4600019846008026140a6565b1980831691505092915050565b60006140dd83836140b3565b9150826002028217905092915050565b6140f68261304e565b67ffffffffffffffff81111561410f5761410e613f12565b5b61411982546137af565b614124828285614060565b600060209050601f8311600181146141575760008415614145578287015190505b61414f85826140d1565b8655506141b7565b601f19841661416586613f41565b60005b8281101561418d57848901518255600182019150602085019450602081019050614168565b868310156141aa57848901516141a6601f8916826140b3565b8355505b6001600288020188555050505b505050505050565b82818337600083830152505050565b60006141da8385613059565b93506141e78385846141bf565b6141f083613094565b840190509392505050565b600060208201905081810360008301526142168184866141ce565b90509392505050565b7f45787069726174696f6e206475726174696f6e206d757374206265206772656160008201527f746572207468616e207a65726f00000000000000000000000000000000000000602082015250565b600061427b602d83613059565b91506142868261421f565b604082019050919050565b600060208201905081810360008301526142aa8161426e565b9050919050565b7f4d65726368616e7420616c726561647920616374697665000000000000000000600082015250565b60006142e7601783613059565b91506142f2826142b1565b602082019050919050565b60006020820190508181036000830152614316816142da565b9050919050565b7f436f6e73756d657220646f6573206e6f74206578697374000000000000000000600082015250565b6000614353601783613059565b915061435e8261431d565b602082019050919050565b6000602082019050818103600083015261438281614346565b9050919050565b7f436f6e73756d657220616c72656164792064697361626c656400000000000000600082015250565b60006143bf601983613059565b91506143ca82614389565b602082019050919050565b600060208201905081810360008301526143ee816143b2565b9050919050565b7f4f6e6c79206f776e6572206f7220616374697665206d65726368616e7473206360008201527f616e2063616c6c20746869732066756e6374696f6e0000000000000000000000602082015250565b6000614451603583613059565b915061445c826143f5565b604082019050919050565b6000602082019050818103600083015261448081614444565b9050919050565b7f436f6e73756d657220616c726561647920616374697665000000000000000000600082015250565b60006144bd601783613059565b91506144c882614487565b602082019050919050565b600060208201905081810360008301526144ec816144b0565b9050919050565b7f436f6e73756d657220646f6573206e6f74206578697374206f7220697320646960008201527f7361626c65640000000000000000000000000000000000000000000000000000602082015250565b600061454f602683613059565b915061455a826144f3565b604082019050919050565b6000602082019050818103600083015261457e81614542565b9050919050565b60008160011c9050919050565b6000808291508390505b60018511156145dc578086048111156145b8576145b7613cb9565b5b60018516156145c75780820291505b80810290506145d585614585565b945061459c565b94509492505050565b6000826145f557600190506146b1565b8161460357600090506146b1565b8160018114614619576002811461462357614652565b60019150506146b1565b60ff84111561463557614634613cb9565b5b8360020a91508482111561464c5761464b613cb9565b5b506146b1565b5060208310610133831016604e8410600b84101617156146875782820a90508381111561468257614681613cb9565b5b6146b1565b6146948484846001614592565b925090508184048111156146ab576146aa613cb9565b5b81810290505b9392505050565b60006146c382613168565b91506146ce83613168565b92506146fb7fffffffffffffffffffffffffffffffffffffffffffffffffffffffffffffffff84846145e5565b905092915050565b60006060820190506147186000830186613410565b614725602083018561326a565b614732604083018461326a565b94935050505056fea26469706673582212204cc0cd8ada08a28a95c89ab80183622e4ea9ae0a7cb8382f4b646879efca396864736f6c634300081c0033",
          "opcodes": "PUSH1 0x80 PUSH1 0x40 MSTORE PUSH3 0xED4E00 PUSH1 0x6 SSTORE PUSH1 0x1E PUSH1 0x7 SSTORE PUSH1 0x14 PUSH1 0x8 SSTORE PUSH1 0x12 PUSH1 0x9 SSTORE PUSH1 0xC PUSH1 0xA SSTORE CALLVALUE DUP1 ISZERO PUSH2 0x2B JUMPI PUSH1 0x0 DUP1 REVERT JUMPDEST POP CALLER PUSH1 0x40 MLOAD DUP1 PUSH1 0x40 ADD PUSH1 0x40 MSTORE DUP1 PUSH1 0x8 DUP2 MSTORE PUSH1 0x20 ADD PUSH32 0x466964656C696E6B000000000000000000000000000000000000000000000000 DUP2 MSTORE POP PUSH1 0x40 MLOAD DUP1 PUSH1 0x40 ADD PUSH1 0x40 MSTORE DUP1 PUSH1 0x3 DUP2 MSTORE PUSH1 0x20 ADD PUSH32 0x46444C0000000000000000000000000000000000000000000000000000000000 DUP2 MSTORE POP DUP2 PUSH1 0x3 SWAP1 DUP2 PUSH2 0xA8 SWAP2 SWAP1 PUSH2 0x458 JUMP JUMPDEST POP DUP1 PUSH1 0x4 SWAP1 DUP2 PUSH2 0xB8 SWAP2 SWAP1 PUSH2 0x458 JUMP JUMPDEST POP POP POP PUSH1 0x0 PUSH20 0xFFFFFFFFFFFFFFFFFFFFFFFFFFFFFFFFFFFFFFFF AND DUP2 PUSH20 0xFFFFFFFFFFFFFFFFFFFFFFFFFFFFFFFFFFFFFFFF AND SUB PUSH2 0x12D JUMPI PUSH1 0x0 PUSH1 0x40 MLOAD PUSH32 0x1E4FBDF700000000000000000000000000000000000000000000000000000000 DUP2 MSTORE PUSH1 0x4 ADD PUSH2 0x124 SWAP2 SWAP1 PUSH2 0x56B JUMP JUMPDEST PUSH1 0x40 MLOAD DUP1 SWAP2 SUB SWAP1 REVERT JUMPDEST PUSH2 0x13C DUP2 PUSH2 0x142 PUSH1 0x20 SHL PUSH1 0x20 SHR JUMP JUMPDEST POP PUSH2 0x586 JUMP JUMPDEST PUSH1 0x0 PUSH1 0x5 PUSH1 0x0 SWAP1 SLOAD SWAP1 PUSH2 0x100 EXP SWAP1 DIV PUSH20 0xFFFFFFFFFFFFFFFFFFFFFFFFFFFFFFFFFFFFFFFF AND SWAP1 POP DUP2 PUSH1 0x5 PUSH1 0x0 PUSH2 0x100 EXP DUP2 SLOAD DUP2 PUSH20 0xFFFFFFFFFFFFFFFFFFFFFFFFFFFFFFFFFFFFFFFF MUL NOT AND SWAP1 DUP4 PUSH20 0xFFFFFFFFFFFFFFFFFFFFFFFFFFFFFFFFFFFFFFFF AND MUL OR SWAP1 SSTORE POP DUP2 PUSH20 0xFFFFFFFFFFFFFFFFFFFFFFFFFFFFFFFFFFFFFFFF AND DUP2 PUSH20 0xFFFFFFFFFFFFFFFFFFFFFFFFFFFFFFFFFFFFFFFF AND PUSH32 0x8BE0079C531659141344CD1FD0A4F28419497F9722A3DAAFE3B4186F6B6457E0 PUSH1 0x40 MLOAD PUSH1 0x40 MLOAD DUP1 SWAP2 SUB SWAP1 LOG3 POP POP JUMP JUMPDEST PUSH1 0x0 DUP2 MLOAD SWAP1 POP SWAP2 SWAP1 POP JUMP JUMPDEST PUSH32 0x4E487B7100000000000000000000000000000000000000000000000000000000 PUSH1 0x0 MSTORE PUSH1 0x41 PUSH1 0x4 MSTORE PUSH1 0x24 PUSH1 0x0 REVERT JUMPDEST PUSH32 0x4E487B7100000000000000000000000000000000000000000000000000000000 PUSH1 0x0 MSTORE PUSH1 0x22 PUSH1 0x4 MSTORE PUSH1 0x24 PUSH1 0x0 REVERT JUMPDEST PUSH1 0x0 PUSH1 0x2 DUP3 DIV SWAP1 POP PUSH1 0x1 DUP3 AND DUP1 PUSH2 0x289 JUMPI PUSH1 0x7F DUP3 AND SWAP2 POP JUMPDEST PUSH1 0x20 DUP3 LT DUP2 SUB PUSH2 0x29C JUMPI PUSH2 0x29B PUSH2 0x242 JUMP JUMPDEST JUMPDEST POP SWAP2 SWAP1 POP JUMP JUMPDEST PUSH1 0x0 DUP2 SWAP1 POP DUP2 PUSH1 0x0 MSTORE PUSH1 0x20 PUSH1 0x0 KECCAK256 SWAP1 POP SWAP2 SWAP1 POP JUMP JUMPDEST PUSH1 0x0 PUSH1 0x20 PUSH1 0x1F DUP4 ADD DIV SWAP1 POP SWAP2 SWAP1 POP JUMP JUMPDEST PUSH1 0x0 DUP3 DUP3 SHL SWAP1 POP SWAP3 SWAP2 POP POP JUMP JUMPDEST PUSH1 0x0 PUSH1 0x8 DUP4 MUL PUSH2 0x304 PUSH32 0xFFFFFFFFFFFFFFFFFFFFFFFFFFFFFFFFFFFFFFFFFFFFFFFFFFFFFFFFFFFFFFFF DUP3 PUSH2 0x2C7 JUMP JUMPDEST PUSH2 0x30E DUP7 DUP4 PUSH2 0x2C7 JUMP JUMPDEST SWAP6 POP DUP1 NOT DUP5 AND SWAP4 POP DUP1 DUP7 AND DUP5 OR SWAP3 POP POP POP SWAP4 SWAP3 POP POP POP JUMP JUMPDEST PUSH1 0x0 DUP2 SWAP1 POP SWAP2 SWAP1 POP JUMP JUMPDEST PUSH1 0x0 DUP2 SWAP1 POP SWAP2 SWAP1 POP JUMP JUMPDEST PUSH1 0x0 PUSH2 0x355 PUSH2 0x350 PUSH2 0x34B DUP5 PUSH2 0x326 JUMP JUMPDEST PUSH2 0x330 JUMP JUMPDEST PUSH2 0x326 JUMP JUMPDEST SWAP1 POP SWAP2 SWAP1 POP JUMP JUMPDEST PUSH1 0x0 DUP2 SWAP1 POP SWAP2 SWAP1 POP JUMP JUMPDEST PUSH2 0x36F DUP4 PUSH2 0x33A JUMP JUMPDEST PUSH2 0x383 PUSH2 0x37B DUP3 PUSH2 0x35C JUMP JUMPDEST DUP5 DUP5 SLOAD PUSH2 0x2D4 JUMP JUMPDEST DUP3 SSTORE POP POP POP POP JUMP JUMPDEST PUSH1 0x0 SWAP1 JUMP JUMPDEST PUSH2 0x398 PUSH2 0x38B JUMP JUMPDEST PUSH2 0x3A3 DUP2 DUP5 DUP5 PUSH2 0x366 JUMP JUMPDEST POP POP POP JUMP JUMPDEST JUMPDEST DUP2 DUP2 LT ISZERO PUSH2 0x3C7 JUMPI PUSH2 0x3BC PUSH1 0x0 DUP3 PUSH2 0x390 JUMP JUMPDEST PUSH1 0x1 DUP2 ADD SWAP1 POP PUSH2 0x3A9 JUMP JUMPDEST POP POP JUMP JUMPDEST PUSH1 0x1F DUP3 GT ISZERO PUSH2 0x40C JUMPI PUSH2 0x3DD DUP2 PUSH2 0x2A2 JUMP JUMPDEST PUSH2 0x3E6 DUP5 PUSH2 0x2B7 JUMP JUMPDEST DUP2 ADD PUSH1 0x20 DUP6 LT ISZERO PUSH2 0x3F5 JUMPI DUP2 SWAP1 POP JUMPDEST PUSH2 0x409 PUSH2 0x401 DUP6 PUSH2 0x2B7 JUMP JUMPDEST DUP4 ADD DUP3 PUSH2 0x3A8 JUMP JUMPDEST POP POP JUMPDEST POP POP POP JUMP JUMPDEST PUSH1 0x0 DUP3 DUP3 SHR SWAP1 POP SWAP3 SWAP2 POP POP JUMP JUMPDEST PUSH1 0x0 PUSH2 0x42F PUSH1 0x0 NOT DUP5 PUSH1 0x8 MUL PUSH2 0x411 JUMP JUMPDEST NOT DUP1 DUP4 AND SWAP2 POP POP SWAP3 SWAP2 POP POP JUMP JUMPDEST PUSH1 0x0 PUSH2 0x448 DUP4 DUP4 PUSH2 0x41E JUMP JUMPDEST SWAP2 POP DUP3 PUSH1 0x2 MUL DUP3 OR SWAP1 POP SWAP3 SWAP2 POP POP JUMP JUMPDEST PUSH2 0x461 DUP3 PUSH2 0x208 JUMP JUMPDEST PUSH8 0xFFFFFFFFFFFFFFFF DUP2 GT ISZERO PUSH2 0x47A JUMPI PUSH2 0x479 PUSH2 0x213 JUMP JUMPDEST JUMPDEST PUSH2 0x484 DUP3 SLOAD PUSH2 0x271 JUMP JUMPDEST PUSH2 0x48F DUP3 DUP3 DUP6 PUSH2 0x3CB JUMP JUMPDEST PUSH1 0x0 PUSH1 0x20 SWAP1 POP PUSH1 0x1F DUP4 GT PUSH1 0x1 DUP2 EQ PUSH2 0x4C2 JUMPI PUSH1 0x0 DUP5 ISZERO PUSH2 0x4B0 JUMPI DUP3 DUP8 ADD MLOAD SWAP1 POP JUMPDEST PUSH2 0x4BA DUP6 DUP3 PUSH2 0x43C JUMP JUMPDEST DUP7 SSTORE POP PUSH2 0x522 JUMP JUMPDEST PUSH1 0x1F NOT DUP5 AND PUSH2 0x4D0 DUP7 PUSH2 0x2A2 JUMP JUMPDEST PUSH1 0x0 JUMPDEST DUP3 DUP2 LT ISZERO PUSH2 0x4F8 JUMPI DUP5 DUP10 ADD MLOAD DUP3 SSTORE PUSH1 0x1 DUP3 ADD SWAP2 POP PUSH1 0x20 DUP6 ADD SWAP5 POP PUSH1 0x20 DUP2 ADD SWAP1 POP PUSH2 0x4D3 JUMP JUMPDEST DUP7 DUP4 LT ISZERO PUSH2 0x515 JUMPI DUP5 DUP10 ADD MLOAD PUSH2 0x511 PUSH1 0x1F DUP10 AND DUP3 PUSH2 0x41E JUMP JUMPDEST DUP4 SSTORE POP JUMPDEST PUSH1 0x1 PUSH1 0x2 DUP9 MUL ADD DUP9 SSTORE POP POP POP JUMPDEST POP POP POP POP POP POP JUMP JUMPDEST PUSH1 0x0 PUSH20 0xFFFFFFFFFFFFFFFFFFFFFFFFFFFFFFFFFFFFFFFF DUP3 AND SWAP1 POP SWAP2 SWAP1 POP JUMP JUMPDEST PUSH1 0x0 PUSH2 0x555 DUP3 PUSH2 0x52A JUMP JUMPDEST SWAP1 POP SWAP2 SWAP1 POP JUMP JUMPDEST PUSH2 0x565 DUP2 PUSH2 0x54A JUMP JUMPDEST DUP3 MSTORE POP POP JUMP JUMPDEST PUSH1 0x0 PUSH1 0x20 DUP3 ADD SWAP1 POP PUSH2 0x580 PUSH1 0x0 DUP4 ADD DUP5 PUSH2 0x55C JUMP JUMPDEST SWAP3 SWAP2 POP POP JUMP JUMPDEST PUSH2 0x4770 DUP1 PUSH2 0x595 PUSH1 0x0 CODECOPY PUSH1 0x0 RETURN INVALID PUSH1 0x80 PUSH1 0x40 MSTORE CALLVALUE DUP1 ISZERO PUSH2 0x10 JUMPI PUSH1 0x0 DUP1 REVERT JUMPDEST POP PUSH1 0x4 CALLDATASIZE LT PUSH2 0x227 JUMPI PUSH1 0x0 CALLDATALOAD PUSH1 0xE0 SHR DUP1 PUSH4 0x7C6D115B GT PUSH2 0x130 JUMPI DUP1 PUSH4 0xAF06610D GT PUSH2 0xB8 JUMPI DUP1 PUSH4 0xDD62ED3E GT PUSH2 0x7C JUMPI DUP1 PUSH4 0xDD62ED3E EQ PUSH2 0x640 JUMPI DUP1 PUSH4 0xEE14E939 EQ PUSH2 0x670 JUMPI DUP1 PUSH4 0xF0DDA65C EQ PUSH2 0x6A2 JUMPI DUP1 PUSH4 0xF2FDE38B EQ PUSH2 0x6BE JUMPI DUP1 PUSH4 0xF5FEBBD7 EQ PUSH2 0x6DA JUMPI PUSH2 0x227 JUMP JUMPDEST DUP1 PUSH4 0xAF06610D EQ PUSH2 0x59A JUMPI DUP1 PUSH4 0xB2734EAF EQ PUSH2 0x5B8 JUMPI DUP1 PUSH4 0xBA0B3D8C EQ PUSH2 0x5E8 JUMPI DUP1 PUSH4 0xBA5B810E EQ PUSH2 0x606 JUMPI DUP1 PUSH4 0xCD6269BD EQ PUSH2 0x622 JUMPI PUSH2 0x227 JUMP JUMPDEST DUP1 PUSH4 0x93175BB7 GT PUSH2 0xFF JUMPI DUP1 PUSH4 0x93175BB7 EQ PUSH2 0x4E1 JUMPI DUP1 PUSH4 0x95D89B41 EQ PUSH2 0x500 JUMPI DUP1 PUSH4 0x993084E8 EQ PUSH2 0x51E JUMPI DUP1 PUSH4 0xA848A202 EQ PUSH2 0x54E JUMPI DUP1 PUSH4 0xA9059CBB EQ PUSH2 0x56A JUMPI PUSH2 0x227 JUMP JUMPDEST DUP1 PUSH4 0x7C6D115B EQ PUSH2 0x46F JUMPI DUP1 PUSH4 0x82FF33CF EQ PUSH2 0x48B JUMPI DUP1 PUSH4 0x8335E61A EQ PUSH2 0x4A7 JUMPI DUP1 PUSH4 0x8DA5CB5B EQ PUSH2 0x4C3 JUMPI PUSH2 0x227 JUMP JUMPDEST DUP1 PUSH4 0x3D4248A3 GT PUSH2 0x1B3 JUMPI DUP1 PUSH4 0x626485A3 GT PUSH2 0x182 JUMPI DUP1 PUSH4 0x626485A3 EQ PUSH2 0x3DF JUMPI DUP1 PUSH4 0x70A08231 EQ PUSH2 0x3FB JUMPI DUP1 PUSH4 0x715018A6 EQ PUSH2 0x42B JUMPI DUP1 PUSH4 0x71E070AC EQ PUSH2 0x435 JUMPI DUP1 PUSH4 0x7477A5A0 EQ PUSH2 0x451 JUMPI PUSH2 0x227 JUMP JUMPDEST DUP1 PUSH4 0x3D4248A3 EQ PUSH2 0x36D JUMPI DUP1 PUSH4 0x40800868 EQ PUSH2 0x389 JUMPI DUP1 PUSH4 0x5DEC8AE9 EQ PUSH2 0x3A7 JUMPI DUP1 PUSH4 0x613416AC EQ PUSH2 0x3C3 JUMPI PUSH2 0x227 JUMP JUMPDEST DUP1 PUSH4 0x12065FE0 GT PUSH2 0x1FA JUMPI DUP1 PUSH4 0x12065FE0 EQ PUSH2 0x2C7 JUMPI DUP1 PUSH4 0x18160DDD EQ PUSH2 0x2E5 JUMPI DUP1 PUSH4 0x1AE3228D EQ PUSH2 0x303 JUMPI DUP1 PUSH4 0x23B872DD EQ PUSH2 0x31F JUMPI DUP1 PUSH4 0x313CE567 EQ PUSH2 0x34F JUMPI PUSH2 0x227 JUMP JUMPDEST DUP1 PUSH4 0x6FDDE03 EQ PUSH2 0x22C JUMPI DUP1 PUSH4 0x95EA7B3 EQ PUSH2 0x24A JUMPI DUP1 PUSH4 0xBF53668 EQ PUSH2 0x27A JUMPI DUP1 PUSH4 0x112940F9 EQ PUSH2 0x2AB JUMPI JUMPDEST PUSH1 0x0 DUP1 REVERT JUMPDEST PUSH2 0x234 PUSH2 0x6F6 JUMP JUMPDEST PUSH1 0x40 MLOAD PUSH2 0x241 SWAP2 SWAP1 PUSH2 0x30DE JUMP JUMPDEST PUSH1 0x40 MLOAD DUP1 SWAP2 SUB SWAP1 RETURN JUMPDEST PUSH2 0x264 PUSH1 0x4 DUP1 CALLDATASIZE SUB DUP2 ADD SWAP1 PUSH2 0x25F SWAP2 SWAP1 PUSH2 0x319E JUMP JUMPDEST PUSH2 0x788 JUMP JUMPDEST PUSH1 0x40 MLOAD PUSH2 0x271 SWAP2 SWAP1 PUSH2 0x31F9 JUMP JUMPDEST PUSH1 0x40 MLOAD DUP1 SWAP2 SUB SWAP1 RETURN JUMPDEST PUSH2 0x294 PUSH1 0x4 DUP1 CALLDATASIZE SUB DUP2 ADD SWAP1 PUSH2 0x28F SWAP2 SWAP1 PUSH2 0x3214 JUMP JUMPDEST PUSH2 0x7C5 JUMP JUMPDEST PUSH1 0x40 MLOAD PUSH2 0x2A2 SWAP3 SWAP2 SWAP1 PUSH2 0x3241 JUMP JUMPDEST PUSH1 0x40 MLOAD DUP1 SWAP2 SUB SWAP1 RETURN JUMPDEST PUSH2 0x2C5 PUSH1 0x4 DUP1 CALLDATASIZE SUB DUP2 ADD SWAP1 PUSH2 0x2C0 SWAP2 SWAP1 PUSH2 0x3214 JUMP JUMPDEST PUSH2 0x803 JUMP JUMPDEST STOP JUMPDEST PUSH2 0x2CF PUSH2 0xA1C JUMP JUMPDEST PUSH1 0x40 MLOAD PUSH2 0x2DC SWAP2 SWAP1 PUSH2 0x3279 JUMP JUMPDEST PUSH1 0x40 MLOAD DUP1 SWAP2 SUB SWAP1 RETURN JUMPDEST PUSH2 0x2ED PUSH2 0xA2C JUMP JUMPDEST PUSH1 0x40 MLOAD PUSH2 0x2FA SWAP2 SWAP1 PUSH2 0x3279 JUMP JUMPDEST PUSH1 0x40 MLOAD DUP1 SWAP2 SUB SWAP1 RETURN JUMPDEST PUSH2 0x31D PUSH1 0x4 DUP1 CALLDATASIZE SUB DUP2 ADD SWAP1 PUSH2 0x318 SWAP2 SWAP1 PUSH2 0x3214 JUMP JUMPDEST PUSH2 0xA36 JUMP JUMPDEST STOP JUMPDEST PUSH2 0x339 PUSH1 0x4 DUP1 CALLDATASIZE SUB DUP2 ADD SWAP1 PUSH2 0x334 SWAP2 SWAP1 PUSH2 0x3294 JUMP JUMPDEST PUSH2 0xA4A JUMP JUMPDEST PUSH1 0x40 MLOAD PUSH2 0x346 SWAP2 SWAP1 PUSH2 0x31F9 JUMP JUMPDEST PUSH1 0x40 MLOAD DUP1 SWAP2 SUB SWAP1 RETURN JUMPDEST PUSH2 0x357 PUSH2 0xA87 JUMP JUMPDEST PUSH1 0x40 MLOAD PUSH2 0x364 SWAP2 SWAP1 PUSH2 0x3303 JUMP JUMPDEST PUSH1 0x40 MLOAD DUP1 SWAP2 SUB SWAP1 RETURN JUMPDEST PUSH2 0x387 PUSH1 0x4 DUP1 CALLDATASIZE SUB DUP2 ADD SWAP1 PUSH2 0x382 SWAP2 SWAP1 PUSH2 0x3214 JUMP JUMPDEST PUSH2 0xA90 JUMP JUMPDEST STOP JUMPDEST PUSH2 0x391 PUSH2 0xC6E JUMP JUMPDEST PUSH1 0x40 MLOAD PUSH2 0x39E SWAP2 SWAP1 PUSH2 0x3279 JUMP JUMPDEST PUSH1 0x40 MLOAD DUP1 SWAP2 SUB SWAP1 RETURN JUMPDEST PUSH2 0x3C1 PUSH1 0x4 DUP1 CALLDATASIZE SUB DUP2 ADD SWAP1 PUSH2 0x3BC SWAP2 SWAP1 PUSH2 0x319E JUMP JUMPDEST PUSH2 0xC78 JUMP JUMPDEST STOP JUMPDEST PUSH2 0x3DD PUSH1 0x4 DUP1 CALLDATASIZE SUB DUP2 ADD SWAP1 PUSH2 0x3D8 SWAP2 SWAP1 PUSH2 0x3383 JUMP JUMPDEST PUSH2 0x1118 JUMP JUMPDEST STOP JUMPDEST PUSH2 0x3F9 PUSH1 0x4 DUP1 CALLDATASIZE SUB DUP2 ADD SWAP1 PUSH2 0x3F4 SWAP2 SWAP1 PUSH2 0x33E3 JUMP JUMPDEST PUSH2 0x1319 JUMP JUMPDEST STOP JUMPDEST PUSH2 0x415 PUSH1 0x4 DUP1 CALLDATASIZE SUB DUP2 ADD SWAP1 PUSH2 0x410 SWAP2 SWAP1 PUSH2 0x3214 JUMP JUMPDEST PUSH2 0x136E JUMP JUMPDEST PUSH1 0x40 MLOAD PUSH2 0x422 SWAP2 SWAP1 PUSH2 0x3279 JUMP JUMPDEST PUSH1 0x40 MLOAD DUP1 SWAP2 SUB SWAP1 RETURN JUMPDEST PUSH2 0x433 PUSH2 0x13B6 JUMP JUMPDEST STOP JUMPDEST PUSH2 0x44F PUSH1 0x4 DUP1 CALLDATASIZE SUB DUP2 ADD SWAP1 PUSH2 0x44A SWAP2 SWAP1 PUSH2 0x33E3 JUMP JUMPDEST PUSH2 0x13CA JUMP JUMPDEST STOP JUMPDEST PUSH2 0x459 PUSH2 0x13DC JUMP JUMPDEST PUSH1 0x40 MLOAD PUSH2 0x466 SWAP2 SWAP1 PUSH2 0x3279 JUMP JUMPDEST PUSH1 0x40 MLOAD DUP1 SWAP2 SUB SWAP1 RETURN JUMPDEST PUSH2 0x489 PUSH1 0x4 DUP1 CALLDATASIZE SUB DUP2 ADD SWAP1 PUSH2 0x484 SWAP2 SWAP1 PUSH2 0x3214 JUMP JUMPDEST PUSH2 0x13E6 JUMP JUMPDEST STOP JUMPDEST PUSH2 0x4A5 PUSH1 0x4 DUP1 CALLDATASIZE SUB DUP2 ADD SWAP1 PUSH2 0x4A0 SWAP2 SWAP1 PUSH2 0x3214 JUMP JUMPDEST PUSH2 0x15C5 JUMP JUMPDEST STOP JUMPDEST PUSH2 0x4C1 PUSH1 0x4 DUP1 CALLDATASIZE SUB DUP2 ADD SWAP1 PUSH2 0x4BC SWAP2 SWAP1 PUSH2 0x33E3 JUMP JUMPDEST PUSH2 0x182A JUMP JUMPDEST STOP JUMPDEST PUSH2 0x4CB PUSH2 0x183C JUMP JUMPDEST PUSH1 0x40 MLOAD PUSH2 0x4D8 SWAP2 SWAP1 PUSH2 0x341F JUMP JUMPDEST PUSH1 0x40 MLOAD DUP1 SWAP2 SUB SWAP1 RETURN JUMPDEST PUSH2 0x4E9 PUSH2 0x1866 JUMP JUMPDEST PUSH1 0x40 MLOAD PUSH2 0x4F7 SWAP3 SWAP2 SWAP1 PUSH2 0x35B6 JUMP JUMPDEST PUSH1 0x40 MLOAD DUP1 SWAP2 SUB SWAP1 RETURN JUMPDEST PUSH2 0x508 PUSH2 0x1CF0 JUMP JUMPDEST PUSH1 0x40 MLOAD PUSH2 0x515 SWAP2 SWAP1 PUSH2 0x30DE JUMP JUMPDEST PUSH1 0x40 MLOAD DUP1 SWAP2 SUB SWAP1 RETURN JUMPDEST PUSH2 0x538 PUSH1 0x4 DUP1 CALLDATASIZE SUB DUP2 ADD SWAP1 PUSH2 0x533 SWAP2 SWAP1 PUSH2 0x3214 JUMP JUMPDEST PUSH2 0x1D82 JUMP JUMPDEST PUSH1 0x40 MLOAD PUSH2 0x545 SWAP2 SWAP1 PUSH2 0x362B JUMP JUMPDEST PUSH1 0x40 MLOAD DUP1 SWAP2 SUB SWAP1 RETURN JUMPDEST PUSH2 0x568 PUSH1 0x4 DUP1 CALLDATASIZE SUB DUP2 ADD SWAP1 PUSH2 0x563 SWAP2 SWAP1 PUSH2 0x33E3 JUMP JUMPDEST PUSH2 0x1F6C JUMP JUMPDEST STOP JUMPDEST PUSH2 0x584 PUSH1 0x4 DUP1 CALLDATASIZE SUB DUP2 ADD SWAP1 PUSH2 0x57F SWAP2 SWAP1 PUSH2 0x319E JUMP JUMPDEST PUSH2 0x1F7E JUMP JUMPDEST PUSH1 0x40 MLOAD PUSH2 0x591 SWAP2 SWAP1 PUSH2 0x31F9 JUMP JUMPDEST PUSH1 0x40 MLOAD DUP1 SWAP2 SUB SWAP1 RETURN JUMPDEST PUSH2 0x5A2 PUSH2 0x1FBB JUMP JUMPDEST PUSH1 0x40 MLOAD PUSH2 0x5AF SWAP2 SWAP1 PUSH2 0x3279 JUMP JUMPDEST PUSH1 0x40 MLOAD DUP1 SWAP2 SUB SWAP1 RETURN JUMPDEST PUSH2 0x5D2 PUSH1 0x4 DUP1 CALLDATASIZE SUB DUP2 ADD SWAP1 PUSH2 0x5CD SWAP2 SWAP1 PUSH2 0x3214 JUMP JUMPDEST PUSH2 0x1FC5 JUMP JUMPDEST PUSH1 0x40 MLOAD PUSH2 0x5DF SWAP2 SWAP1 PUSH2 0x36E0 JUMP JUMPDEST PUSH1 0x40 MLOAD DUP1 SWAP2 SUB SWAP1 RETURN JUMPDEST PUSH2 0x5F0 PUSH2 0x217D JUMP JUMPDEST PUSH1 0x40 MLOAD PUSH2 0x5FD SWAP2 SWAP1 PUSH2 0x3279 JUMP JUMPDEST PUSH1 0x40 MLOAD DUP1 SWAP2 SUB SWAP1 RETURN JUMPDEST PUSH2 0x620 PUSH1 0x4 DUP1 CALLDATASIZE SUB DUP2 ADD SWAP1 PUSH2 0x61B SWAP2 SWAP1 PUSH2 0x3214 JUMP JUMPDEST PUSH2 0x2187 JUMP JUMPDEST STOP JUMPDEST PUSH2 0x62A PUSH2 0x23ED JUMP JUMPDEST PUSH1 0x40 MLOAD PUSH2 0x637 SWAP2 SWAP1 PUSH2 0x3279 JUMP JUMPDEST PUSH1 0x40 MLOAD DUP1 SWAP2 SUB SWAP1 RETURN JUMPDEST PUSH2 0x65A PUSH1 0x4 DUP1 CALLDATASIZE SUB DUP2 ADD SWAP1 PUSH2 0x655 SWAP2 SWAP1 PUSH2 0x3702 JUMP JUMPDEST PUSH2 0x23F7 JUMP JUMPDEST PUSH1 0x40 MLOAD PUSH2 0x667 SWAP2 SWAP1 PUSH2 0x3279 JUMP JUMPDEST PUSH1 0x40 MLOAD DUP1 SWAP2 SUB SWAP1 RETURN JUMPDEST PUSH2 0x68A PUSH1 0x4 DUP1 CALLDATASIZE SUB DUP2 ADD SWAP1 PUSH2 0x685 SWAP2 SWAP1 PUSH2 0x3214 JUMP JUMPDEST PUSH2 0x247E JUMP JUMPDEST PUSH1 0x40 MLOAD PUSH2 0x699 SWAP4 SWAP3 SWAP2 SWAP1 PUSH2 0x3742 JUMP JUMPDEST PUSH1 0x40 MLOAD DUP1 SWAP2 SUB SWAP1 RETURN JUMPDEST PUSH2 0x6BC PUSH1 0x4 DUP1 CALLDATASIZE SUB DUP2 ADD SWAP1 PUSH2 0x6B7 SWAP2 SWAP1 PUSH2 0x319E JUMP JUMPDEST PUSH2 0x254A JUMP JUMPDEST STOP JUMPDEST PUSH2 0x6D8 PUSH1 0x4 DUP1 CALLDATASIZE SUB DUP2 ADD SWAP1 PUSH2 0x6D3 SWAP2 SWAP1 PUSH2 0x3214 JUMP JUMPDEST PUSH2 0x2814 JUMP JUMPDEST STOP JUMPDEST PUSH2 0x6F4 PUSH1 0x4 DUP1 CALLDATASIZE SUB DUP2 ADD SWAP1 PUSH2 0x6EF SWAP2 SWAP1 PUSH2 0x33E3 JUMP JUMPDEST PUSH2 0x289A JUMP JUMPDEST STOP JUMPDEST PUSH1 0x60 PUSH1 0x3 DUP1 SLOAD PUSH2 0x705 SWAP1 PUSH2 0x37AF JUMP JUMPDEST DUP1 PUSH1 0x1F ADD PUSH1 0x20 DUP1 SWAP2 DIV MUL PUSH1 0x20 ADD PUSH1 0x40 MLOAD SWAP1 DUP2 ADD PUSH1 0x40 MSTORE DUP1 SWAP3 SWAP2 SWAP1 DUP2 DUP2 MSTORE PUSH1 0x20 ADD DUP3 DUP1 SLOAD PUSH2 0x731 SWAP1 PUSH2 0x37AF JUMP JUMPDEST DUP1 ISZERO PUSH2 0x77E JUMPI DUP1 PUSH1 0x1F LT PUSH2 0x753 JUMPI PUSH2 0x100 DUP1 DUP4 SLOAD DIV MUL DUP4 MSTORE SWAP2 PUSH1 0x20 ADD SWAP2 PUSH2 0x77E JUMP JUMPDEST DUP3 ADD SWAP2 SWAP1 PUSH1 0x0 MSTORE PUSH1 0x20 PUSH1 0x0 KECCAK256 SWAP1 JUMPDEST DUP2 SLOAD DUP2 MSTORE SWAP1 PUSH1 0x1 ADD SWAP1 PUSH1 0x20 ADD DUP1 DUP4 GT PUSH2 0x761 JUMPI DUP3 SWAP1 SUB PUSH1 0x1F AND DUP3 ADD SWAP2 JUMPDEST POP POP POP POP POP SWAP1 POP SWAP1 JUMP JUMPDEST PUSH1 0x0 PUSH1 0x40 MLOAD PUSH32 0x8C379A000000000000000000000000000000000000000000000000000000000 DUP2 MSTORE PUSH1 0x4 ADD PUSH2 0x7BC SWAP1 PUSH2 0x382C JUMP JUMPDEST PUSH1 0x40 MLOAD DUP1 SWAP2 SUB SWAP1 REVERT JUMPDEST PUSH1 0xC PUSH1 0x20 MSTORE DUP1 PUSH1 0x0 MSTORE PUSH1 0x40 PUSH1 0x0 KECCAK256 PUSH1 0x0 SWAP2 POP SWAP1 POP DUP1 PUSH1 0x0 ADD PUSH1 0x0 SWAP1 SLOAD SWAP1 PUSH2 0x100 EXP SWAP1 DIV PUSH1 0xFF AND SWAP1 DUP1 PUSH1 0x0 ADD PUSH1 0x1 SWAP1 SLOAD SWAP1 PUSH2 0x100 EXP SWAP1 DIV PUSH1 0xFF AND SWAP1 POP DUP3 JUMP JUMPDEST PUSH1 0xB PUSH1 0x0 CALLER PUSH20 0xFFFFFFFFFFFFFFFFFFFFFFFFFFFFFFFFFFFFFFFF AND PUSH20 0xFFFFFFFFFFFFFFFFFFFFFFFFFFFFFFFFFFFFFFFF AND DUP2 MSTORE PUSH1 0x20 ADD SWAP1 DUP2 MSTORE PUSH1 0x20 ADD PUSH1 0x0 KECCAK256 PUSH1 0x1 ADD PUSH1 0x0 SWAP1 SLOAD SWAP1 PUSH2 0x100 EXP SWAP1 DIV PUSH1 0xFF AND PUSH2 0x892 JUMPI PUSH1 0x40 MLOAD PUSH32 0x8C379A000000000000000000000000000000000000000000000000000000000 DUP2 MSTORE PUSH1 0x4 ADD PUSH2 0x889 SWAP1 PUSH2 0x38BE JUMP JUMPDEST PUSH1 0x40 MLOAD DUP1 SWAP2 SUB SWAP1 REVERT JUMPDEST PUSH1 0xC PUSH1 0x0 DUP3 PUSH20 0xFFFFFFFFFFFFFFFFFFFFFFFFFFFFFFFFFFFFFFFF AND PUSH20 0xFFFFFFFFFFFFFFFFFFFFFFFFFFFFFFFFFFFFFFFF AND DUP2 MSTORE PUSH1 0x20 ADD SWAP1 DUP2 MSTORE PUSH1 0x20 ADD PUSH1 0x0 KECCAK256 PUSH1 0x0 ADD PUSH1 0x1 SWAP1 SLOAD SWAP1 PUSH2 0x100 EXP SWAP1 DIV PUSH1 0xFF AND ISZERO PUSH2 0x922 JUMPI PUSH1 0x40 MLOAD PUSH32 0x8C379A000000000000000000000000000000000000000000000000000000000 DUP2 MSTORE PUSH1 0x4 ADD PUSH2 0x919 SWAP1 PUSH2 0x392A JUMP JUMPDEST PUSH1 0x40 MLOAD DUP1 SWAP2 SUB SWAP1 REVERT JUMPDEST PUSH1 0x40 MLOAD DUP1 PUSH1 0x40 ADD PUSH1 0x40 MSTORE DUP1 PUSH1 0x1 ISZERO ISZERO DUP2 MSTORE PUSH1 0x20 ADD PUSH1 0x1 ISZERO ISZERO DUP2 MSTORE POP PUSH1 0xC PUSH1 0x0 DUP4 PUSH20 0xFFFFFFFFFFFFFFFFFFFFFFFFFFFFFFFFFFFFFFFF AND PUSH20 0xFFFFFFFFFFFFFFFFFFFFFFFFFFFFFFFFFFFFFFFF AND DUP2 MSTORE PUSH1 0x20 ADD SWAP1 DUP2 MSTORE PUSH1 0x20 ADD PUSH1 0x0 KECCAK256 PUSH1 0x0 DUP3 ADD MLOAD DUP2 PUSH1 0x0 ADD PUSH1 0x0 PUSH2 0x100 EXP DUP2 SLOAD DUP2 PUSH1 0xFF MUL NOT AND SWAP1 DUP4 ISZERO ISZERO MUL OR SWAP1 SSTORE POP PUSH1 0x20 DUP3 ADD MLOAD DUP2 PUSH1 0x0 ADD PUSH1 0x1 PUSH2 0x100 EXP DUP2 SLOAD DUP2 PUSH1 0xFF MUL NOT AND SWAP1 DUP4 ISZERO ISZERO MUL OR SWAP1 SSTORE POP SWAP1 POP POP CALLER PUSH20 0xFFFFFFFFFFFFFFFFFFFFFFFFFFFFFFFFFFFFFFFF AND DUP2 PUSH20 0xFFFFFFFFFFFFFFFFFFFFFFFFFFFFFFFFFFFFFFFF AND PUSH32 0xB300042A9DA91FAF83435F77F20A481B85AE790AFFAF775B955C44E2769A71F6 PUSH1 0x40 MLOAD PUSH1 0x40 MLOAD DUP1 SWAP2 SUB SWAP1 LOG3 POP JUMP JUMPDEST PUSH1 0x0 PUSH2 0xA27 CALLER PUSH2 0x136E JUMP JUMPDEST SWAP1 POP SWAP1 JUMP JUMPDEST PUSH1 0x0 PUSH1 0x2 SLOAD SWAP1 POP SWAP1 JUMP JUMPDEST PUSH2 0xA3E PUSH2 0x28AC JUMP JUMPDEST PUSH2 0xA47 DUP2 PUSH2 0x2933 JUMP JUMPDEST POP JUMP JUMPDEST PUSH1 0x0 PUSH1 0x40 MLOAD PUSH32 0x8C379A000000000000000000000000000000000000000000000000000000000 DUP2 MSTORE PUSH1 0x4 ADD PUSH2 0xA7E SWAP1 PUSH2 0x3996 JUMP JUMPDEST PUSH1 0x40 MLOAD DUP1 SWAP2 SUB SWAP1 REVERT JUMPDEST PUSH1 0x0 PUSH1 0x12 SWAP1 POP SWAP1 JUMP JUMPDEST PUSH2 0xA98 PUSH2 0x28AC JUMP JUMPDEST PUSH1 0xB PUSH1 0x0 DUP3 PUSH20 0xFFFFFFFFFFFFFFFFFFFFFFFFFFFFFFFFFFFFFFFF AND PUSH20 0xFFFFFFFFFFFFFFFFFFFFFFFFFFFFFFFFFFFFFFFF AND DUP2 MSTORE PUSH1 0x20 ADD SWAP1 DUP2 MSTORE PUSH1 0x20 ADD PUSH1 0x0 KECCAK256 PUSH1 0x1 ADD PUSH1 0x1 SWAP1 SLOAD SWAP1 PUSH2 0x100 EXP SWAP1 DIV PUSH1 0xFF AND PUSH2 0xB27 JUMPI PUSH1 0x40 MLOAD PUSH32 0x8C379A000000000000000000000000000000000000000000000000000000000 DUP2 MSTORE PUSH1 0x4 ADD PUSH2 0xB1E SWAP1 PUSH2 0x3A02 JUMP JUMPDEST PUSH1 0x40 MLOAD DUP1 SWAP2 SUB SWAP1 REVERT JUMPDEST PUSH1 0xB PUSH1 0x0 DUP3 PUSH20 0xFFFFFFFFFFFFFFFFFFFFFFFFFFFFFFFFFFFFFFFF AND PUSH20 0xFFFFFFFFFFFFFFFFFFFFFFFFFFFFFFFFFFFFFFFF AND DUP2 MSTORE PUSH1 0x20 ADD SWAP1 DUP2 MSTORE PUSH1 0x20 ADD PUSH1 0x0 KECCAK256 PUSH1 0x1 ADD PUSH1 0x0 SWAP1 SLOAD SWAP1 PUSH2 0x100 EXP SWAP1 DIV PUSH1 0xFF AND PUSH2 0xBB6 JUMPI PUSH1 0x40 MLOAD PUSH32 0x8C379A000000000000000000000000000000000000000000000000000000000 DUP2 MSTORE PUSH1 0x4 ADD PUSH2 0xBAD SWAP1 PUSH2 0x3A6E JUMP JUMPDEST PUSH1 0x40 MLOAD DUP1 SWAP2 SUB SWAP1 REVERT JUMPDEST PUSH1 0x0 PUSH1 0xB PUSH1 0x0 DUP4 PUSH20 0xFFFFFFFFFFFFFFFFFFFFFFFFFFFFFFFFFFFFFFFF AND PUSH20 0xFFFFFFFFFFFFFFFFFFFFFFFFFFFFFFFFFFFFFFFF AND DUP2 MSTORE PUSH1 0x20 ADD SWAP1 DUP2 MSTORE PUSH1 0x20 ADD PUSH1 0x0 KECCAK256 PUSH1 0x1 ADD PUSH1 0x0 PUSH2 0x100 EXP DUP2 SLOAD DUP2 PUSH1 0xFF MUL NOT AND SWAP1 DUP4 ISZERO ISZERO MUL OR SWAP1 SSTORE POP CALLER PUSH20 0xFFFFFFFFFFFFFFFFFFFFFFFFFFFFFFFFFFFFFFFF AND DUP2 PUSH20 0xFFFFFFFFFFFFFFFFFFFFFFFFFFFFFFFFFFFFFFFF AND PUSH32 0x31B730967AA3AFEDF1A1CBFCB5C3F17C58B34F7C7E4ADDED70883E9C87FCA0D0 PUSH1 0x40 MLOAD PUSH1 0x40 MLOAD DUP1 SWAP2 SUB SWAP1 LOG3 POP JUMP JUMPDEST PUSH1 0x0 PUSH1 0x6 SLOAD SWAP1 POP SWAP1 JUMP JUMPDEST PUSH1 0xC PUSH1 0x0 CALLER PUSH20 0xFFFFFFFFFFFFFFFFFFFFFFFFFFFFFFFFFFFFFFFF AND PUSH20 0xFFFFFFFFFFFFFFFFFFFFFFFFFFFFFFFFFFFFFFFF AND DUP2 MSTORE PUSH1 0x20 ADD SWAP1 DUP2 MSTORE PUSH1 0x20 ADD PUSH1 0x0 KECCAK256 PUSH1 0x0 ADD PUSH1 0x0 SWAP1 SLOAD SWAP1 PUSH2 0x100 EXP SWAP1 DIV PUSH1 0xFF AND PUSH2 0xD07 JUMPI PUSH1 0x40 MLOAD PUSH32 0x8C379A000000000000000000000000000000000000000000000000000000000 DUP2 MSTORE PUSH1 0x4 ADD PUSH2 0xCFE SWAP1 PUSH2 0x3B00 JUMP JUMPDEST PUSH1 0x40 MLOAD DUP1 SWAP2 SUB SWAP1 REVERT JUMPDEST PUSH1 0xB PUSH1 0x0 DUP4 PUSH20 0xFFFFFFFFFFFFFFFFFFFFFFFFFFFFFFFFFFFFFFFF AND PUSH20 0xFFFFFFFFFFFFFFFFFFFFFFFFFFFFFFFFFFFFFFFF AND DUP2 MSTORE PUSH1 0x20 ADD SWAP1 DUP2 MSTORE PUSH1 0x20 ADD PUSH1 0x0 KECCAK256 PUSH1 0x1 ADD PUSH1 0x0 SWAP1 SLOAD SWAP1 PUSH2 0x100 EXP SWAP1 DIV PUSH1 0xFF AND PUSH2 0xD96 JUMPI PUSH1 0x40 MLOAD PUSH32 0x8C379A000000000000000000000000000000000000000000000000000000000 DUP2 MSTORE PUSH1 0x4 ADD PUSH2 0xD8D SWAP1 PUSH2 0x3B92 JUMP JUMPDEST PUSH1 0x40 MLOAD DUP1 SWAP2 SUB SWAP1 REVERT JUMPDEST PUSH1 0x0 DUP2 GT PUSH2 0xDD9 JUMPI PUSH1 0x40 MLOAD PUSH32 0x8C379A000000000000000000000000000000000000000000000000000000000 DUP2 MSTORE PUSH1 0x4 ADD PUSH2 0xDD0 SWAP1 PUSH2 0x3BFE JUMP JUMPDEST PUSH1 0x40 MLOAD DUP1 SWAP2 SUB SWAP1 REVERT JUMPDEST PUSH2 0xDE2 CALLER PUSH2 0x136E JUMP JUMPDEST DUP2 GT ISZERO PUSH2 0xE24 JUMPI PUSH1 0x40 MLOAD PUSH32 0x8C379A000000000000000000000000000000000000000000000000000000000 DUP2 MSTORE PUSH1 0x4 ADD PUSH2 0xE1B SWAP1 PUSH2 0x3C6A JUMP JUMPDEST PUSH1 0x40 MLOAD DUP1 SWAP2 SUB SWAP1 REVERT JUMPDEST PUSH2 0xE2D CALLER PUSH2 0x2933 JUMP JUMPDEST PUSH1 0x0 DUP2 SWAP1 POP PUSH1 0x0 DUP1 PUSH1 0x0 DUP1 PUSH1 0xD PUSH1 0x0 CALLER PUSH20 0xFFFFFFFFFFFFFFFFFFFFFFFFFFFFFFFFFFFFFFFF AND PUSH20 0xFFFFFFFFFFFFFFFFFFFFFFFFFFFFFFFFFFFFFFFF AND DUP2 MSTORE PUSH1 0x20 ADD SWAP1 DUP2 MSTORE PUSH1 0x20 ADD PUSH1 0x0 KECCAK256 SWAP1 POP PUSH1 0x0 JUMPDEST DUP2 DUP1 SLOAD SWAP1 POP DUP2 LT DUP1 ISZERO PUSH2 0xE8F JUMPI POP PUSH1 0x0 DUP7 GT JUMPDEST ISZERO PUSH2 0x1051 JUMPI PUSH1 0x0 DUP3 DUP3 DUP2 SLOAD DUP2 LT PUSH2 0xEA9 JUMPI PUSH2 0xEA8 PUSH2 0x3C8A JUMP JUMPDEST JUMPDEST SWAP1 PUSH1 0x0 MSTORE PUSH1 0x20 PUSH1 0x0 KECCAK256 SWAP1 PUSH1 0x3 MUL ADD SWAP1 POP PUSH1 0x0 DUP8 DUP3 PUSH1 0x1 ADD SLOAD LT ISZERO PUSH2 0xED1 JUMPI DUP2 PUSH1 0x1 ADD SLOAD PUSH2 0xED3 JUMP JUMPDEST DUP8 JUMPDEST SWAP1 POP DUP10 PUSH20 0xFFFFFFFFFFFFFFFFFFFFFFFFFFFFFFFFFFFFFFFF AND DUP3 PUSH1 0x0 ADD PUSH1 0x0 SWAP1 SLOAD SWAP1 PUSH2 0x100 EXP SWAP1 DIV PUSH20 0xFFFFFFFFFFFFFFFFFFFFFFFFFFFFFFFFFFFFFFFF AND PUSH20 0xFFFFFFFFFFFFFFFFFFFFFFFFFFFFFFFFFFFFFFFF AND SUB PUSH2 0xF3F JUMPI DUP1 DUP8 PUSH2 0xF38 SWAP2 SWAP1 PUSH2 0x3CE8 JUMP JUMPDEST SWAP7 POP PUSH2 0x1013 JUMP JUMPDEST PUSH1 0x0 PUSH1 0x64 PUSH1 0x9 SLOAD DUP4 PUSH2 0xF51 SWAP2 SWAP1 PUSH2 0x3D1C JUMP JUMPDEST PUSH2 0xF5B SWAP2 SWAP1 PUSH2 0x3D8D JUMP JUMPDEST SWAP1 POP PUSH1 0x0 PUSH1 0x64 PUSH1 0xA SLOAD DUP5 PUSH2 0xF6F SWAP2 SWAP1 PUSH2 0x3D1C JUMP JUMPDEST PUSH2 0xF79 SWAP2 SWAP1 PUSH2 0x3D8D JUMP JUMPDEST SWAP1 POP DUP2 DUP9 PUSH2 0xF87 SWAP2 SWAP1 PUSH2 0x3CE8 JUMP JUMPDEST SWAP8 POP DUP1 DUP8 PUSH2 0xF95 SWAP2 SWAP1 PUSH2 0x3CE8 JUMP JUMPDEST SWAP7 POP PUSH1 0x0 DUP9 GT ISZERO PUSH2 0xFB3 JUMPI PUSH2 0xFB2 CALLER PUSH2 0xFAC PUSH2 0x183C JUMP JUMPDEST DUP11 PUSH2 0x2BA2 JUMP JUMPDEST JUMPDEST PUSH1 0x0 DUP8 GT ISZERO PUSH2 0xFEC JUMPI PUSH2 0xFEB CALLER DUP6 PUSH1 0x0 ADD PUSH1 0x0 SWAP1 SLOAD SWAP1 PUSH2 0x100 EXP SWAP1 DIV PUSH20 0xFFFFFFFFFFFFFFFFFFFFFFFFFFFFFFFFFFFFFFFF AND DUP10 PUSH2 0x2BA2 JUMP JUMPDEST JUMPDEST DUP1 DUP3 DUP5 PUSH2 0xFF9 SWAP2 SWAP1 PUSH2 0x3DBE JUMP JUMPDEST PUSH2 0x1003 SWAP2 SWAP1 PUSH2 0x3DBE JUMP JUMPDEST DUP10 PUSH2 0x100E SWAP2 SWAP1 PUSH2 0x3CE8 JUMP JUMPDEST SWAP9 POP POP POP JUMPDEST DUP1 DUP3 PUSH1 0x1 ADD PUSH1 0x0 DUP3 DUP3 SLOAD PUSH2 0x1027 SWAP2 SWAP1 PUSH2 0x3DBE JUMP JUMPDEST SWAP3 POP POP DUP2 SWAP1 SSTORE POP DUP1 DUP9 PUSH2 0x103A SWAP2 SWAP1 PUSH2 0x3DBE JUMP JUMPDEST SWAP8 POP POP POP DUP1 DUP1 PUSH2 0x1049 SWAP1 PUSH2 0x3DF2 JUMP JUMPDEST SWAP2 POP POP PUSH2 0xE7C JUMP JUMPDEST POP PUSH1 0x0 DUP6 EQ PUSH2 0x1095 JUMPI PUSH1 0x40 MLOAD PUSH32 0x8C379A000000000000000000000000000000000000000000000000000000000 DUP2 MSTORE PUSH1 0x4 ADD PUSH2 0x108C SWAP1 PUSH2 0x3E86 JUMP JUMPDEST PUSH1 0x40 MLOAD DUP1 SWAP2 SUB SWAP1 REVERT JUMPDEST PUSH1 0x0 DUP5 GT ISZERO PUSH2 0x10AA JUMPI PUSH2 0x10A9 CALLER DUP9 DUP7 PUSH2 0x2BA2 JUMP JUMPDEST JUMPDEST DUP7 PUSH20 0xFFFFFFFFFFFFFFFFFFFFFFFFFFFFFFFFFFFFFFFF AND CALLER PUSH20 0xFFFFFFFFFFFFFFFFFFFFFFFFFFFFFFFFFFFFFFFF AND PUSH32 0x64A4DD35AAEC4FE7CB17EEE474588EA05A013C00C804D85714118A1EED4C6277 DUP9 PUSH1 0x40 MLOAD PUSH2 0x1107 SWAP2 SWAP1 PUSH2 0x3279 JUMP JUMPDEST PUSH1 0x40 MLOAD DUP1 SWAP2 SUB SWAP1 LOG3 POP POP POP POP POP POP POP JUMP JUMPDEST PUSH2 0x1120 PUSH2 0x28AC JUMP JUMPDEST PUSH1 0xB PUSH1 0x0 DUP5 PUSH20 0xFFFFFFFFFFFFFFFFFFFFFFFFFFFFFFFFFFFFFFFF AND PUSH20 0xFFFFFFFFFFFFFFFFFFFFFFFFFFFFFFFFFFFFFFFF AND DUP2 MSTORE PUSH1 0x20 ADD SWAP1 DUP2 MSTORE PUSH1 0x20 ADD PUSH1 0x0 KECCAK256 PUSH1 0x1 ADD PUSH1 0x1 SWAP1 SLOAD SWAP1 PUSH2 0x100 EXP SWAP1 DIV PUSH1 0xFF AND ISZERO PUSH2 0x11B0 JUMPI PUSH1 0x40 MLOAD PUSH32 0x8C379A000000000000000000000000000000000000000000000000000000000 DUP2 MSTORE PUSH1 0x4 ADD PUSH2 0x11A7 SWAP1 PUSH2 0x3EF2 JUMP JUMPDEST PUSH1 0x40 MLOAD DUP1 SWAP2 SUB SWAP1 REVERT JUMPDEST PUSH1 0x40 MLOAD DUP1 PUSH1 0x60 ADD PUSH1 0x40 MSTORE DUP1 DUP4 DUP4 DUP1 DUP1 PUSH1 0x1F ADD PUSH1 0x20 DUP1 SWAP2 DIV MUL PUSH1 0x20 ADD PUSH1 0x40 MLOAD SWAP1 DUP2 ADD PUSH1 0x40 MSTORE DUP1 SWAP4 SWAP3 SWAP2 SWAP1 DUP2 DUP2 MSTORE PUSH1 0x20 ADD DUP4 DUP4 DUP1 DUP3 DUP5 CALLDATACOPY PUSH1 0x0 DUP2 DUP5 ADD MSTORE PUSH1 0x1F NOT PUSH1 0x1F DUP3 ADD AND SWAP1 POP DUP1 DUP4 ADD SWAP3 POP POP POP POP POP POP POP DUP2 MSTORE PUSH1 0x20 ADD PUSH1 0x1 ISZERO ISZERO DUP2 MSTORE PUSH1 0x20 ADD PUSH1 0x1 ISZERO ISZERO DUP2 MSTORE POP PUSH1 0xB PUSH1 0x0 DUP6 PUSH20 0xFFFFFFFFFFFFFFFFFFFFFFFFFFFFFFFFFFFFFFFF AND PUSH20 0xFFFFFFFFFFFFFFFFFFFFFFFFFFFFFFFFFFFFFFFF AND DUP2 MSTORE PUSH1 0x20 ADD SWAP1 DUP2 MSTORE PUSH1 0x20 ADD PUSH1 0x0 KECCAK256 PUSH1 0x0 DUP3 ADD MLOAD DUP2 PUSH1 0x0 ADD SWAP1 DUP2 PUSH2 0x1269 SWAP2 SWAP1 PUSH2 0x40ED JUMP JUMPDEST POP PUSH1 0x20 DUP3 ADD MLOAD DUP2 PUSH1 0x1 ADD PUSH1 0x0 PUSH2 0x100 EXP DUP2 SLOAD DUP2 PUSH1 0xFF MUL NOT AND SWAP1 DUP4 ISZERO ISZERO MUL OR SWAP1 SSTORE POP PUSH1 0x40 DUP3 ADD MLOAD DUP2 PUSH1 0x1 ADD PUSH1 0x1 PUSH2 0x100 EXP DUP2 SLOAD DUP2 PUSH1 0xFF MUL NOT AND SWAP1 DUP4 ISZERO ISZERO MUL OR SWAP1 SSTORE POP SWAP1 POP POP CALLER PUSH20 0xFFFFFFFFFFFFFFFFFFFFFFFFFFFFFFFFFFFFFFFF AND DUP4 PUSH20 0xFFFFFFFFFFFFFFFFFFFFFFFFFFFFFFFFFFFFFFFF AND PUSH32 0xEB73E6BCCEC18645F7AC6F72E4889EF17A2EEB68B33B193F37D498BEB34F0B73 DUP5 DUP5 PUSH1 0x40 MLOAD PUSH2 0x130C SWAP3 SWAP2 SWAP1 PUSH2 0x41FB JUMP JUMPDEST PUSH1 0x40 MLOAD DUP1 SWAP2 SUB SWAP1 LOG3 POP POP POP JUMP JUMPDEST PUSH2 0x1321 PUSH2 0x28AC JUMP JUMPDEST PUSH1 0x0 DUP2 GT PUSH2 0x1364 JUMPI PUSH1 0x40 MLOAD PUSH32 0x8C379A000000000000000000000000000000000000000000000000000000000 DUP2 MSTORE PUSH1 0x4 ADD PUSH2 0x135B SWAP1 PUSH2 0x4291 JUMP JUMPDEST PUSH1 0x40 MLOAD DUP1 SWAP2 SUB SWAP1 REVERT JUMPDEST DUP1 PUSH1 0x6 DUP2 SWAP1 SSTORE POP POP JUMP JUMPDEST PUSH1 0x0 DUP1 PUSH1 0x0 DUP4 PUSH20 0xFFFFFFFFFFFFFFFFFFFFFFFFFFFFFFFFFFFFFFFF AND PUSH20 0xFFFFFFFFFFFFFFFFFFFFFFFFFFFFFFFFFFFFFFFF AND DUP2 MSTORE PUSH1 0x20 ADD SWAP1 DUP2 MSTORE PUSH1 0x20 ADD PUSH1 0x0 KECCAK256 SLOAD SWAP1 POP SWAP2 SWAP1 POP JUMP JUMPDEST PUSH2 0x13BE PUSH2 0x28AC JUMP JUMPDEST PUSH2 0x13C8 PUSH1 0x0 PUSH2 0x2C96 JUMP JUMPDEST JUMP JUMPDEST PUSH2 0x13D2 PUSH2 0x28AC JUMP JUMPDEST DUP1 PUSH1 0x9 DUP2 SWAP1 SSTORE POP POP JUMP JUMPDEST PUSH1 0x0 PUSH1 0x9 SLOAD SWAP1 POP SWAP1 JUMP JUMPDEST PUSH2 0x13EE PUSH2 0x28AC JUMP JUMPDEST PUSH1 0xB PUSH1 0x0 DUP3 PUSH20 0xFFFFFFFFFFFFFFFFFFFFFFFFFFFFFFFFFFFFFFFF AND PUSH20 0xFFFFFFFFFFFFFFFFFFFFFFFFFFFFFFFFFFFFFFFF AND DUP2 MSTORE PUSH1 0x20 ADD SWAP1 DUP2 MSTORE PUSH1 0x20 ADD PUSH1 0x0 KECCAK256 PUSH1 0x1 ADD PUSH1 0x1 SWAP1 SLOAD SWAP1 PUSH2 0x100 EXP SWAP1 DIV PUSH1 0xFF AND PUSH2 0x147D JUMPI PUSH1 0x40 MLOAD PUSH32 0x8C379A000000000000000000000000000000000000000000000000000000000 DUP2 MSTORE PUSH1 0x4 ADD PUSH2 0x1474 SWAP1 PUSH2 0x3A02 JUMP JUMPDEST PUSH1 0x40 MLOAD DUP1 SWAP2 SUB SWAP1 REVERT JUMPDEST PUSH1 0xB PUSH1 0x0 DUP3 PUSH20 0xFFFFFFFFFFFFFFFFFFFFFFFFFFFFFFFFFFFFFFFF AND PUSH20 0xFFFFFFFFFFFFFFFFFFFFFFFFFFFFFFFFFFFFFFFF AND DUP2 MSTORE PUSH1 0x20 ADD SWAP1 DUP2 MSTORE PUSH1 0x20 ADD PUSH1 0x0 KECCAK256 PUSH1 0x1 ADD PUSH1 0x0 SWAP1 SLOAD SWAP1 PUSH2 0x100 EXP SWAP1 DIV PUSH1 0xFF AND ISZERO PUSH2 0x150D JUMPI PUSH1 0x40 MLOAD PUSH32 0x8C379A000000000000000000000000000000000000000000000000000000000 DUP2 MSTORE PUSH1 0x4 ADD PUSH2 0x1504 SWAP1 PUSH2 0x42FD JUMP JUMPDEST PUSH1 0x40 MLOAD DUP1 SWAP2 SUB SWAP1 REVERT JUMPDEST PUSH1 0x1 PUSH1 0xB PUSH1 0x0 DUP4 PUSH20 0xFFFFFFFFFFFFFFFFFFFFFFFFFFFFFFFFFFFFFFFF AND PUSH20 0xFFFFFFFFFFFFFFFFFFFFFFFFFFFFFFFFFFFFFFFF AND DUP2 MSTORE PUSH1 0x20 ADD SWAP1 DUP2 MSTORE PUSH1 0x20 ADD PUSH1 0x0 KECCAK256 PUSH1 0x1 ADD PUSH1 0x0 PUSH2 0x100 EXP DUP2 SLOAD DUP2 PUSH1 0xFF MUL NOT AND SWAP1 DUP4 ISZERO ISZERO MUL OR SWAP1 SSTORE POP CALLER PUSH20 0xFFFFFFFFFFFFFFFFFFFFFFFFFFFFFFFFFFFFFFFF AND DUP2 PUSH20 0xFFFFFFFFFFFFFFFFFFFFFFFFFFFFFFFFFFFFFFFF AND PUSH32 0xBE1BF78D2314C21CD36028D0862BF1D94485178957E8E67BC7A3F0AC0DFF4C8A PUSH1 0x40 MLOAD PUSH1 0x40 MLOAD DUP1 SWAP2 SUB SWAP1 LOG3 POP JUMP JUMPDEST PUSH1 0xB PUSH1 0x0 CALLER PUSH20 0xFFFFFFFFFFFFFFFFFFFFFFFFFFFFFFFFFFFFFFFF AND PUSH20 0xFFFFFFFFFFFFFFFFFFFFFFFFFFFFFFFFFFFFFFFF AND DUP2 MSTORE PUSH1 0x20 ADD SWAP1 DUP2 MSTORE PUSH1 0x20 ADD PUSH1 0x0 KECCAK256 PUSH1 0x1 ADD PUSH1 0x0 SWAP1 SLOAD SWAP1 PUSH2 0x100 EXP SWAP1 DIV PUSH1 0xFF AND PUSH2 0x1654 JUMPI PUSH1 0x40 MLOAD PUSH32 0x8C379A000000000000000000000000000000000000000000000000000000000 DUP2 MSTORE PUSH1 0x4 ADD PUSH2 0x164B SWAP1 PUSH2 0x38BE JUMP JUMPDEST PUSH1 0x40 MLOAD DUP1 SWAP2 SUB SWAP1 REVERT JUMPDEST PUSH1 0xC PUSH1 0x0 DUP3 PUSH20 0xFFFFFFFFFFFFFFFFFFFFFFFFFFFFFFFFFFFFFFFF AND PUSH20 0xFFFFFFFFFFFFFFFFFFFFFFFFFFFFFFFFFFFFFFFF AND DUP2 MSTORE PUSH1 0x20 ADD SWAP1 DUP2 MSTORE PUSH1 0x20 ADD PUSH1 0x0 KECCAK256 PUSH1 0x0 ADD PUSH1 0x1 SWAP1 SLOAD SWAP1 PUSH2 0x100 EXP SWAP1 DIV PUSH1 0xFF AND PUSH2 0x16E3 JUMPI PUSH1 0x40 MLOAD PUSH32 0x8C379A000000000000000000000000000000000000000000000000000000000 DUP2 MSTORE PUSH1 0x4 ADD PUSH2 0x16DA SWAP1 PUSH2 0x4369 JUMP JUMPDEST PUSH1 0x40 MLOAD DUP1 SWAP2 SUB SWAP1 REVERT JUMPDEST PUSH1 0xC PUSH1 0x0 DUP3 PUSH20 0xFFFFFFFFFFFFFFFFFFFFFFFFFFFFFFFFFFFFFFFF AND PUSH20 0xFFFFFFFFFFFFFFFFFFFFFFFFFFFFFFFFFFFFFFFF AND DUP2 MSTORE PUSH1 0x20 ADD SWAP1 DUP2 MSTORE PUSH1 0x20 ADD PUSH1 0x0 KECCAK256 PUSH1 0x0 ADD PUSH1 0x0 SWAP1 SLOAD SWAP1 PUSH2 0x100 EXP SWAP1 DIV PUSH1 0xFF AND PUSH2 0x1772 JUMPI PUSH1 0x40 MLOAD PUSH32 0x8C379A000000000000000000000000000000000000000000000000000000000 DUP2 MSTORE PUSH1 0x4 ADD PUSH2 0x1769 SWAP1 PUSH2 0x43D5 JUMP JUMPDEST PUSH1 0x40 MLOAD DUP1 SWAP2 SUB SWAP1 REVERT JUMPDEST PUSH1 0x0 PUSH1 0xC PUSH1 0x0 DUP4 PUSH20 0xFFFFFFFFFFFFFFFFFFFFFFFFFFFFFFFFFFFFFFFF AND PUSH20 0xFFFFFFFFFFFFFFFFFFFFFFFFFFFFFFFFFFFFFFFF AND DUP2 MSTORE PUSH1 0x20 ADD SWAP1 DUP2 MSTORE PUSH1 0x20 ADD PUSH1 0x0 KECCAK256 PUSH1 0x0 ADD PUSH1 0x0 PUSH2 0x100 EXP DUP2 SLOAD DUP2 PUSH1 0xFF MUL NOT AND SWAP1 DUP4 ISZERO ISZERO MUL OR SWAP1 SSTORE POP CALLER PUSH20 0xFFFFFFFFFFFFFFFFFFFFFFFFFFFFFFFFFFFFFFFF AND DUP2 PUSH20 0xFFFFFFFFFFFFFFFFFFFFFFFFFFFFFFFFFFFFFFFF AND PUSH32 0x6C10308B293B0427B53963D76D7ED3A44DDB3DEAC505A3BB199635D6092B886E PUSH1 0x40 MLOAD PUSH1 0x40 MLOAD DUP1 SWAP2 SUB SWAP1 LOG3 POP JUMP JUMPDEST PUSH2 0x1832 PUSH2 0x28AC JUMP JUMPDEST DUP1 PUSH1 0xA DUP2 SWAP1 SSTORE POP POP JUMP JUMPDEST PUSH1 0x0 PUSH1 0x5 PUSH1 0x0 SWAP1 SLOAD SWAP1 PUSH2 0x100 EXP SWAP1 DIV PUSH20 0xFFFFFFFFFFFFFFFFFFFFFFFFFFFFFFFFFFFFFFFF AND SWAP1 POP SWAP1 JUMP JUMPDEST PUSH1 0x60 DUP1 PUSH1 0xC PUSH1 0x0 CALLER PUSH20 0xFFFFFFFFFFFFFFFFFFFFFFFFFFFFFFFFFFFFFFFF AND PUSH20 0xFFFFFFFFFFFFFFFFFFFFFFFFFFFFFFFFFFFFFFFF AND DUP2 MSTORE PUSH1 0x20 ADD SWAP1 DUP2 MSTORE PUSH1 0x20 ADD PUSH1 0x0 KECCAK256 PUSH1 0x0 ADD PUSH1 0x0 SWAP1 SLOAD SWAP1 PUSH2 0x100 EXP SWAP1 DIV PUSH1 0xFF AND PUSH2 0x18F8 JUMPI PUSH1 0x40 MLOAD PUSH32 0x8C379A000000000000000000000000000000000000000000000000000000000 DUP2 MSTORE PUSH1 0x4 ADD PUSH2 0x18EF SWAP1 PUSH2 0x3B00 JUMP JUMPDEST PUSH1 0x40 MLOAD DUP1 SWAP2 SUB SWAP1 REVERT JUMPDEST PUSH1 0x0 PUSH1 0xD PUSH1 0x0 CALLER PUSH20 0xFFFFFFFFFFFFFFFFFFFFFFFFFFFFFFFFFFFFFFFF AND PUSH20 0xFFFFFFFFFFFFFFFFFFFFFFFFFFFFFFFFFFFFFFFF AND DUP2 MSTORE PUSH1 0x20 ADD SWAP1 DUP2 MSTORE PUSH1 0x20 ADD PUSH1 0x0 KECCAK256 SWAP1 POP PUSH1 0x0 DUP2 DUP1 SLOAD SWAP1 POP PUSH8 0xFFFFFFFFFFFFFFFF DUP2 GT ISZERO PUSH2 0x195B JUMPI PUSH2 0x195A PUSH2 0x3F12 JUMP JUMPDEST JUMPDEST PUSH1 0x40 MLOAD SWAP1 DUP1 DUP3 MSTORE DUP1 PUSH1 0x20 MUL PUSH1 0x20 ADD DUP3 ADD PUSH1 0x40 MSTORE DUP1 ISZERO PUSH2 0x1989 JUMPI DUP2 PUSH1 0x20 ADD PUSH1 0x20 DUP3 MUL DUP1 CALLDATASIZE DUP4 CALLDATACOPY DUP1 DUP3 ADD SWAP2 POP POP SWAP1 POP JUMPDEST POP SWAP1 POP PUSH1 0x0 DUP3 DUP1 SLOAD SWAP1 POP PUSH8 0xFFFFFFFFFFFFFFFF DUP2 GT ISZERO PUSH2 0x19AC JUMPI PUSH2 0x19AB PUSH2 0x3F12 JUMP JUMPDEST JUMPDEST PUSH1 0x40 MLOAD SWAP1 DUP1 DUP3 MSTORE DUP1 PUSH1 0x20 MUL PUSH1 0x20 ADD DUP3 ADD PUSH1 0x40 MSTORE DUP1 ISZERO PUSH2 0x19DA JUMPI DUP2 PUSH1 0x20 ADD PUSH1 0x20 DUP3 MUL DUP1 CALLDATASIZE DUP4 CALLDATACOPY DUP1 DUP3 ADD SWAP2 POP POP SWAP1 POP JUMPDEST POP SWAP1 POP PUSH1 0x0 DUP1 JUMPDEST DUP5 DUP1 SLOAD SWAP1 POP DUP2 LT ISZERO PUSH2 0x1B96 JUMPI PUSH1 0x0 DUP6 DUP3 DUP2 SLOAD DUP2 LT PUSH2 0x1A02 JUMPI PUSH2 0x1A01 PUSH2 0x3C8A JUMP JUMPDEST JUMPDEST SWAP1 PUSH1 0x0 MSTORE PUSH1 0x20 PUSH1 0x0 KECCAK256 SWAP1 PUSH1 0x3 MUL ADD PUSH1 0x0 ADD PUSH1 0x0 SWAP1 SLOAD SWAP1 PUSH2 0x100 EXP SWAP1 DIV PUSH20 0xFFFFFFFFFFFFFFFFFFFFFFFFFFFFFFFFFFFFFFFF AND SWAP1 POP PUSH1 0x0 DUP7 DUP4 DUP2 SLOAD DUP2 LT PUSH2 0x1A4B JUMPI PUSH2 0x1A4A PUSH2 0x3C8A JUMP JUMPDEST JUMPDEST SWAP1 PUSH1 0x0 MSTORE PUSH1 0x20 PUSH1 0x0 KECCAK256 SWAP1 PUSH1 0x3 MUL ADD PUSH1 0x1 ADD SLOAD SWAP1 POP PUSH1 0x0 PUSH1 0x1 SWAP1 POP PUSH1 0x0 JUMPDEST DUP6 DUP2 LT ISZERO PUSH2 0x1B02 JUMPI DUP4 PUSH20 0xFFFFFFFFFFFFFFFFFFFFFFFFFFFFFFFFFFFFFFFF AND DUP9 DUP3 DUP2 MLOAD DUP2 LT PUSH2 0x1A9A JUMPI PUSH2 0x1A99 PUSH2 0x3C8A JUMP JUMPDEST JUMPDEST PUSH1 0x20 MUL PUSH1 0x20 ADD ADD MLOAD PUSH20 0xFFFFFFFFFFFFFFFFFFFFFFFFFFFFFFFFFFFFFFFF AND SUB PUSH2 0x1AF5 JUMPI DUP3 DUP8 DUP3 DUP2 MLOAD DUP2 LT PUSH2 0x1AD1 JUMPI PUSH2 0x1AD0 PUSH2 0x3C8A JUMP JUMPDEST JUMPDEST PUSH1 0x20 MUL PUSH1 0x20 ADD ADD DUP2 DUP2 MLOAD PUSH2 0x1AE5 SWAP2 SWAP1 PUSH2 0x3CE8 JUMP JUMPDEST SWAP2 POP DUP2 DUP2 MSTORE POP POP PUSH1 0x0 SWAP2 POP PUSH2 0x1B02 JUMP JUMPDEST DUP1 DUP1 PUSH1 0x1 ADD SWAP2 POP POP PUSH2 0x1A68 JUMP JUMPDEST POP DUP1 ISZERO PUSH2 0x1B86 JUMPI DUP3 DUP8 DUP7 DUP2 MLOAD DUP2 LT PUSH2 0x1B1D JUMPI PUSH2 0x1B1C PUSH2 0x3C8A JUMP JUMPDEST JUMPDEST PUSH1 0x20 MUL PUSH1 0x20 ADD ADD SWAP1 PUSH20 0xFFFFFFFFFFFFFFFFFFFFFFFFFFFFFFFFFFFFFFFF AND SWAP1 DUP2 PUSH20 0xFFFFFFFFFFFFFFFFFFFFFFFFFFFFFFFFFFFFFFFF AND DUP2 MSTORE POP POP DUP2 DUP7 DUP7 DUP2 MLOAD DUP2 LT PUSH2 0x1B6B JUMPI PUSH2 0x1B6A PUSH2 0x3C8A JUMP JUMPDEST JUMPDEST PUSH1 0x20 MUL PUSH1 0x20 ADD ADD DUP2 DUP2 MSTORE POP POP DUP5 DUP1 PUSH2 0x1B82 SWAP1 PUSH2 0x3DF2 JUMP JUMPDEST SWAP6 POP POP JUMPDEST POP POP POP DUP1 DUP1 PUSH1 0x1 ADD SWAP2 POP POP PUSH2 0x19E1 JUMP JUMPDEST POP DUP1 PUSH8 0xFFFFFFFFFFFFFFFF DUP2 GT ISZERO PUSH2 0x1BB1 JUMPI PUSH2 0x1BB0 PUSH2 0x3F12 JUMP JUMPDEST JUMPDEST PUSH1 0x40 MLOAD SWAP1 DUP1 DUP3 MSTORE DUP1 PUSH1 0x20 MUL PUSH1 0x20 ADD DUP3 ADD PUSH1 0x40 MSTORE DUP1 ISZERO PUSH2 0x1BDF JUMPI DUP2 PUSH1 0x20 ADD PUSH1 0x20 DUP3 MUL DUP1 CALLDATASIZE DUP4 CALLDATACOPY DUP1 DUP3 ADD SWAP2 POP POP SWAP1 POP JUMPDEST POP SWAP6 POP DUP1 PUSH8 0xFFFFFFFFFFFFFFFF DUP2 GT ISZERO PUSH2 0x1BFC JUMPI PUSH2 0x1BFB PUSH2 0x3F12 JUMP JUMPDEST JUMPDEST PUSH1 0x40 MLOAD SWAP1 DUP1 DUP3 MSTORE DUP1 PUSH1 0x20 MUL PUSH1 0x20 ADD DUP3 ADD PUSH1 0x40 MSTORE DUP1 ISZERO PUSH2 0x1C2A JUMPI DUP2 PUSH1 0x20 ADD PUSH1 0x20 DUP3 MUL DUP1 CALLDATASIZE DUP4 CALLDATACOPY DUP1 DUP3 ADD SWAP2 POP POP SWAP1 POP JUMPDEST POP SWAP5 POP PUSH1 0x0 JUMPDEST DUP2 DUP2 LT ISZERO PUSH2 0x1CE7 JUMPI DUP4 DUP2 DUP2 MLOAD DUP2 LT PUSH2 0x1C4B JUMPI PUSH2 0x1C4A PUSH2 0x3C8A JUMP JUMPDEST JUMPDEST PUSH1 0x20 MUL PUSH1 0x20 ADD ADD MLOAD DUP8 DUP3 DUP2 MLOAD DUP2 LT PUSH2 0x1C66 JUMPI PUSH2 0x1C65 PUSH2 0x3C8A JUMP JUMPDEST JUMPDEST PUSH1 0x20 MUL PUSH1 0x20 ADD ADD SWAP1 PUSH20 0xFFFFFFFFFFFFFFFFFFFFFFFFFFFFFFFFFFFFFFFF AND SWAP1 DUP2 PUSH20 0xFFFFFFFFFFFFFFFFFFFFFFFFFFFFFFFFFFFFFFFF AND DUP2 MSTORE POP POP DUP3 DUP2 DUP2 MLOAD DUP2 LT PUSH2 0x1CB3 JUMPI PUSH2 0x1CB2 PUSH2 0x3C8A JUMP JUMPDEST JUMPDEST PUSH1 0x20 MUL PUSH1 0x20 ADD ADD MLOAD DUP7 DUP3 DUP2 MLOAD DUP2 LT PUSH2 0x1CCE JUMPI PUSH2 0x1CCD PUSH2 0x3C8A JUMP JUMPDEST JUMPDEST PUSH1 0x20 MUL PUSH1 0x20 ADD ADD DUP2 DUP2 MSTORE POP POP DUP1 DUP1 PUSH1 0x1 ADD SWAP2 POP POP PUSH2 0x1C30 JUMP JUMPDEST POP POP POP POP POP SWAP1 SWAP2 JUMP JUMPDEST PUSH1 0x60 PUSH1 0x4 DUP1 SLOAD PUSH2 0x1CFF SWAP1 PUSH2 0x37AF JUMP JUMPDEST DUP1 PUSH1 0x1F ADD PUSH1 0x20 DUP1 SWAP2 DIV MUL PUSH1 0x20 ADD PUSH1 0x40 MLOAD SWAP1 DUP2 ADD PUSH1 0x40 MSTORE DUP1 SWAP3 SWAP2 SWAP1 DUP2 DUP2 MSTORE PUSH1 0x20 ADD DUP3 DUP1 SLOAD PUSH2 0x1D2B SWAP1 PUSH2 0x37AF JUMP JUMPDEST DUP1 ISZERO PUSH2 0x1D78 JUMPI DUP1 PUSH1 0x1F LT PUSH2 0x1D4D JUMPI PUSH2 0x100 DUP1 DUP4 SLOAD DIV MUL DUP4 MSTORE SWAP2 PUSH1 0x20 ADD SWAP2 PUSH2 0x1D78 JUMP JUMPDEST DUP3 ADD SWAP2 SWAP1 PUSH1 0x0 MSTORE PUSH1 0x20 PUSH1 0x0 KECCAK256 SWAP1 JUMPDEST DUP2 SLOAD DUP2 MSTORE SWAP1 PUSH1 0x1 ADD SWAP1 PUSH1 0x20 ADD DUP1 DUP4 GT PUSH2 0x1D5B JUMPI DUP3 SWAP1 SUB PUSH1 0x1F AND DUP3 ADD SWAP2 JUMPDEST POP POP POP POP POP SWAP1 POP SWAP1 JUMP JUMPDEST PUSH2 0x1D8A PUSH2 0x300B JUMP JUMPDEST PUSH2 0x1D92 PUSH2 0x183C JUMP JUMPDEST PUSH20 0xFFFFFFFFFFFFFFFFFFFFFFFFFFFFFFFFFFFFFFFF AND CALLER PUSH20 0xFFFFFFFFFFFFFFFFFFFFFFFFFFFFFFFFFFFFFFFF AND EQ DUP1 PUSH2 0x1E17 JUMPI POP PUSH1 0xB PUSH1 0x0 CALLER PUSH20 0xFFFFFFFFFFFFFFFFFFFFFFFFFFFFFFFFFFFFFFFF AND PUSH20 0xFFFFFFFFFFFFFFFFFFFFFFFFFFFFFFFFFFFFFFFF AND DUP2 MSTORE PUSH1 0x20 ADD SWAP1 DUP2 MSTORE PUSH1 0x20 ADD PUSH1 0x0 KECCAK256 PUSH1 0x1 ADD PUSH1 0x0 SWAP1 SLOAD SWAP1 PUSH2 0x100 EXP SWAP1 DIV PUSH1 0xFF AND JUMPDEST PUSH2 0x1E56 JUMPI PUSH1 0x40 MLOAD PUSH32 0x8C379A000000000000000000000000000000000000000000000000000000000 DUP2 MSTORE PUSH1 0x4 ADD PUSH2 0x1E4D SWAP1 PUSH2 0x4467 JUMP JUMPDEST PUSH1 0x40 MLOAD DUP1 SWAP2 SUB SWAP1 REVERT JUMPDEST PUSH1 0xC PUSH1 0x0 DUP4 PUSH20 0xFFFFFFFFFFFFFFFFFFFFFFFFFFFFFFFFFFFFFFFF AND PUSH20 0xFFFFFFFFFFFFFFFFFFFFFFFFFFFFFFFFFFFFFFFF AND DUP2 MSTORE PUSH1 0x20 ADD SWAP1 DUP2 MSTORE PUSH1 0x20 ADD PUSH1 0x0 KECCAK256 PUSH1 0x0 ADD PUSH1 0x1 SWAP1 SLOAD SWAP1 PUSH2 0x100 EXP SWAP1 DIV PUSH1 0xFF AND PUSH2 0x1EE5 JUMPI PUSH1 0x40 MLOAD PUSH32 0x8C379A000000000000000000000000000000000000000000000000000000000 DUP2 MSTORE PUSH1 0x4 ADD PUSH2 0x1EDC SWAP1 PUSH2 0x4369 JUMP JUMPDEST PUSH1 0x40 MLOAD DUP1 SWAP2 SUB SWAP1 REVERT JUMPDEST PUSH1 0xC PUSH1 0x0 DUP4 PUSH20 0xFFFFFFFFFFFFFFFFFFFFFFFFFFFFFFFFFFFFFFFF AND PUSH20 0xFFFFFFFFFFFFFFFFFFFFFFFFFFFFFFFFFFFFFFFF AND DUP2 MSTORE PUSH1 0x20 ADD SWAP1 DUP2 MSTORE PUSH1 0x20 ADD PUSH1 0x0 KECCAK256 PUSH1 0x40 MLOAD DUP1 PUSH1 0x40 ADD PUSH1 0x40 MSTORE SWAP1 DUP2 PUSH1 0x0 DUP3 ADD PUSH1 0x0 SWAP1 SLOAD SWAP1 PUSH2 0x100 EXP SWAP1 DIV PUSH1 0xFF AND ISZERO ISZERO ISZERO ISZERO DUP2 MSTORE PUSH1 0x20 ADD PUSH1 0x0 DUP3 ADD PUSH1 0x1 SWAP1 SLOAD SWAP1 PUSH2 0x100 EXP SWAP1 DIV PUSH1 0xFF AND ISZERO ISZERO ISZERO ISZERO DUP2 MSTORE POP POP SWAP1 POP SWAP2 SWAP1 POP JUMP JUMPDEST PUSH2 0x1F74 PUSH2 0x28AC JUMP JUMPDEST DUP1 PUSH1 0x7 DUP2 SWAP1 SSTORE POP POP JUMP JUMPDEST PUSH1 0x0 PUSH1 0x40 MLOAD PUSH32 0x8C379A000000000000000000000000000000000000000000000000000000000 DUP2 MSTORE PUSH1 0x4 ADD PUSH2 0x1FB2 SWAP1 PUSH2 0x3996 JUMP JUMPDEST PUSH1 0x40 MLOAD DUP1 SWAP2 SUB SWAP1 REVERT JUMPDEST PUSH1 0x0 PUSH1 0x8 SLOAD SWAP1 POP SWAP1 JUMP JUMPDEST PUSH2 0x1FCD PUSH2 0x3029 JUMP JUMPDEST PUSH2 0x1FD5 PUSH2 0x28AC JUMP JUMPDEST PUSH1 0xB PUSH1 0x0 DUP4 PUSH20 0xFFFFFFFFFFFFFFFFFFFFFFFFFFFFFFFFFFFFFFFF AND PUSH20 0xFFFFFFFFFFFFFFFFFFFFFFFFFFFFFFFFFFFFFFFF AND DUP2 MSTORE PUSH1 0x20 ADD SWAP1 DUP2 MSTORE PUSH1 0x20 ADD PUSH1 0x0 KECCAK256 PUSH1 0x1 ADD PUSH1 0x1 SWAP1 SLOAD SWAP1 PUSH2 0x100 EXP SWAP1 DIV PUSH1 0xFF AND PUSH2 0x2064 JUMPI PUSH1 0x40 MLOAD PUSH32 0x8C379A000000000000000000000000000000000000000000000000000000000 DUP2 MSTORE PUSH1 0x4 ADD PUSH2 0x205B SWAP1 PUSH2 0x3A02 JUMP JUMPDEST PUSH1 0x40 MLOAD DUP1 SWAP2 SUB SWAP1 REVERT JUMPDEST PUSH1 0xB PUSH1 0x0 DUP4 PUSH20 0xFFFFFFFFFFFFFFFFFFFFFFFFFFFFFFFFFFFFFFFF AND PUSH20 0xFFFFFFFFFFFFFFFFFFFFFFFFFFFFFFFFFFFFFFFF AND DUP2 MSTORE PUSH1 0x20 ADD SWAP1 DUP2 MSTORE PUSH1 0x20 ADD PUSH1 0x0 KECCAK256 PUSH1 0x40 MLOAD DUP1 PUSH1 0x60 ADD PUSH1 0x40 MSTORE SWAP1 DUP2 PUSH1 0x0 DUP3 ADD DUP1 SLOAD PUSH2 0x20BE SWAP1 PUSH2 0x37AF JUMP JUMPDEST DUP1 PUSH1 0x1F ADD PUSH1 0x20 DUP1 SWAP2 DIV MUL PUSH1 0x20 ADD PUSH1 0x40 MLOAD SWAP1 DUP2 ADD PUSH1 0x40 MSTORE DUP1 SWAP3 SWAP2 SWAP1 DUP2 DUP2 MSTORE PUSH1 0x20 ADD DUP3 DUP1 SLOAD PUSH2 0x20EA SWAP1 PUSH2 0x37AF JUMP JUMPDEST DUP1 ISZERO PUSH2 0x2137 JUMPI DUP1 PUSH1 0x1F LT PUSH2 0x210C JUMPI PUSH2 0x100 DUP1 DUP4 SLOAD DIV MUL DUP4 MSTORE SWAP2 PUSH1 0x20 ADD SWAP2 PUSH2 0x2137 JUMP JUMPDEST DUP3 ADD SWAP2 SWAP1 PUSH1 0x0 MSTORE PUSH1 0x20 PUSH1 0x0 KECCAK256 SWAP1 JUMPDEST DUP2 SLOAD DUP2 MSTORE SWAP1 PUSH1 0x1 ADD SWAP1 PUSH1 0x20 ADD DUP1 DUP4 GT PUSH2 0x211A JUMPI DUP3 SWAP1 SUB PUSH1 0x1F AND DUP3 ADD SWAP2 JUMPDEST POP POP POP POP POP DUP2 MSTORE PUSH1 0x20 ADD PUSH1 0x1 DUP3 ADD PUSH1 0x0 SWAP1 SLOAD SWAP1 PUSH2 0x100 EXP SWAP1 DIV PUSH1 0xFF AND ISZERO ISZERO ISZERO ISZERO DUP2 MSTORE PUSH1 0x20 ADD PUSH1 0x1 DUP3 ADD PUSH1 0x1 SWAP1 SLOAD SWAP1 PUSH2 0x100 EXP SWAP1 DIV PUSH1 0xFF AND ISZERO ISZERO ISZERO ISZERO DUP2 MSTORE POP POP SWAP1 POP SWAP2 SWAP1 POP JUMP JUMPDEST PUSH1 0x0 PUSH1 0x7 SLOAD SWAP1 POP SWAP1 JUMP JUMPDEST PUSH1 0xB PUSH1 0x0 CALLER PUSH20 0xFFFFFFFFFFFFFFFFFFFFFFFFFFFFFFFFFFFFFFFF AND PUSH20 0xFFFFFFFFFFFFFFFFFFFFFFFFFFFFFFFFFFFFFFFF AND DUP2 MSTORE PUSH1 0x20 ADD SWAP1 DUP2 MSTORE PUSH1 0x20 ADD PUSH1 0x0 KECCAK256 PUSH1 0x1 ADD PUSH1 0x0 SWAP1 SLOAD SWAP1 PUSH2 0x100 EXP SWAP1 DIV PUSH1 0xFF AND PUSH2 0x2216 JUMPI PUSH1 0x40 MLOAD PUSH32 0x8C379A000000000000000000000000000000000000000000000000000000000 DUP2 MSTORE PUSH1 0x4 ADD PUSH2 0x220D SWAP1 PUSH2 0x38BE JUMP JUMPDEST PUSH1 0x40 MLOAD DUP1 SWAP2 SUB SWAP1 REVERT JUMPDEST PUSH1 0xC PUSH1 0x0 DUP3 PUSH20 0xFFFFFFFFFFFFFFFFFFFFFFFFFFFFFFFFFFFFFFFF AND PUSH20 0xFFFFFFFFFFFFFFFFFFFFFFFFFFFFFFFFFFFFFFFF AND DUP2 MSTORE PUSH1 0x20 ADD SWAP1 DUP2 MSTORE PUSH1 0x20 ADD PUSH1 0x0 KECCAK256 PUSH1 0x0 ADD PUSH1 0x1 SWAP1 SLOAD SWAP1 PUSH2 0x100 EXP SWAP1 DIV PUSH1 0xFF AND PUSH2 0x22A5 JUMPI PUSH1 0x40 MLOAD PUSH32 0x8C379A000000000000000000000000000000000000000000000000000000000 DUP2 MSTORE PUSH1 0x4 ADD PUSH2 0x229C SWAP1 PUSH2 0x4369 JUMP JUMPDEST PUSH1 0x40 MLOAD DUP1 SWAP2 SUB SWAP1 REVERT JUMPDEST PUSH1 0xC PUSH1 0x0 DUP3 PUSH20 0xFFFFFFFFFFFFFFFFFFFFFFFFFFFFFFFFFFFFFFFF AND PUSH20 0xFFFFFFFFFFFFFFFFFFFFFFFFFFFFFFFFFFFFFFFF AND DUP2 MSTORE PUSH1 0x20 ADD SWAP1 DUP2 MSTORE PUSH1 0x20 ADD PUSH1 0x0 KECCAK256 PUSH1 0x0 ADD PUSH1 0x0 SWAP1 SLOAD SWAP1 PUSH2 0x100 EXP SWAP1 DIV PUSH1 0xFF AND ISZERO PUSH2 0x2335 JUMPI PUSH1 0x40 MLOAD PUSH32 0x8C379A000000000000000000000000000000000000000000000000000000000 DUP2 MSTORE PUSH1 0x4 ADD PUSH2 0x232C SWAP1 PUSH2 0x44D3 JUMP JUMPDEST PUSH1 0x40 MLOAD DUP1 SWAP2 SUB SWAP1 REVERT JUMPDEST PUSH1 0x1 PUSH1 0xC PUSH1 0x0 DUP4 PUSH20 0xFFFFFFFFFFFFFFFFFFFFFFFFFFFFFFFFFFFFFFFF AND PUSH20 0xFFFFFFFFFFFFFFFFFFFFFFFFFFFFFFFFFFFFFFFF AND DUP2 MSTORE PUSH1 0x20 ADD SWAP1 DUP2 MSTORE PUSH1 0x20 ADD PUSH1 0x0 KECCAK256 PUSH1 0x0 ADD PUSH1 0x0 PUSH2 0x100 EXP DUP2 SLOAD DUP2 PUSH1 0xFF MUL NOT AND SWAP1 DUP4 ISZERO ISZERO MUL OR SWAP1 SSTORE POP CALLER PUSH20 0xFFFFFFFFFFFFFFFFFFFFFFFFFFFFFFFFFFFFFFFF AND DUP2 PUSH20 0xFFFFFFFFFFFFFFFFFFFFFFFFFFFFFFFFFFFFFFFF AND PUSH32 0xC716F45F9B4BCA673D35ED1050D1B551542210E116CC85AD2AD531487EAAA17C PUSH1 0x40 MLOAD PUSH1 0x40 MLOAD DUP1 SWAP2 SUB SWAP1 LOG3 POP JUMP JUMPDEST PUSH1 0x0 PUSH1 0xA SLOAD SWAP1 POP SWAP1 JUMP JUMPDEST PUSH1 0x0 PUSH1 0x1 PUSH1 0x0 DUP5 PUSH20 0xFFFFFFFFFFFFFFFFFFFFFFFFFFFFFFFFFFFFFFFF AND PUSH20 0xFFFFFFFFFFFFFFFFFFFFFFFFFFFFFFFFFFFFFFFF AND DUP2 MSTORE PUSH1 0x20 ADD SWAP1 DUP2 MSTORE PUSH1 0x20 ADD PUSH1 0x0 KECCAK256 PUSH1 0x0 DUP4 PUSH20 0xFFFFFFFFFFFFFFFFFFFFFFFFFFFFFFFFFFFFFFFF AND PUSH20 0xFFFFFFFFFFFFFFFFFFFFFFFFFFFFFFFFFFFFFFFF AND DUP2 MSTORE PUSH1 0x20 ADD SWAP1 DUP2 MSTORE PUSH1 0x20 ADD PUSH1 0x0 KECCAK256 SLOAD SWAP1 POP SWAP3 SWAP2 POP POP JUMP JUMPDEST PUSH1 0xB PUSH1 0x20 MSTORE DUP1 PUSH1 0x0 MSTORE PUSH1 0x40 PUSH1 0x0 KECCAK256 PUSH1 0x0 SWAP2 POP SWAP1 POP DUP1 PUSH1 0x0 ADD DUP1 SLOAD PUSH2 0x24A1 SWAP1 PUSH2 0x37AF JUMP JUMPDEST DUP1 PUSH1 0x1F ADD PUSH1 0x20 DUP1 SWAP2 DIV MUL PUSH1 0x20 ADD PUSH1 0x40 MLOAD SWAP1 DUP2 ADD PUSH1 0x40 MSTORE DUP1 SWAP3 SWAP2 SWAP1 DUP2 DUP2 MSTORE PUSH1 0x20 ADD DUP3 DUP1 SLOAD PUSH2 0x24CD SWAP1 PUSH2 0x37AF JUMP JUMPDEST DUP1 ISZERO PUSH2 0x251A JUMPI DUP1 PUSH1 0x1F LT PUSH2 0x24EF JUMPI PUSH2 0x100 DUP1 DUP4 SLOAD DIV MUL DUP4 MSTORE SWAP2 PUSH1 0x20 ADD SWAP2 PUSH2 0x251A JUMP JUMPDEST DUP3 ADD SWAP2 SWAP1 PUSH1 0x0 MSTORE PUSH1 0x20 PUSH1 0x0 KECCAK256 SWAP1 JUMPDEST DUP2 SLOAD DUP2 MSTORE SWAP1 PUSH1 0x1 ADD SWAP1 PUSH1 0x20 ADD DUP1 DUP4 GT PUSH2 0x24FD JUMPI DUP3 SWAP1 SUB PUSH1 0x1F AND DUP3 ADD SWAP2 JUMPDEST POP POP POP POP POP SWAP1 DUP1 PUSH1 0x1 ADD PUSH1 0x0 SWAP1 SLOAD SWAP1 PUSH2 0x100 EXP SWAP1 DIV PUSH1 0xFF AND SWAP1 DUP1 PUSH1 0x1 ADD PUSH1 0x1 SWAP1 SLOAD SWAP1 PUSH2 0x100 EXP SWAP1 DIV PUSH1 0xFF AND SWAP1 POP DUP4 JUMP JUMPDEST PUSH1 0xB PUSH1 0x0 CALLER PUSH20 0xFFFFFFFFFFFFFFFFFFFFFFFFFFFFFFFFFFFFFFFF AND PUSH20 0xFFFFFFFFFFFFFFFFFFFFFFFFFFFFFFFFFFFFFFFF AND DUP2 MSTORE PUSH1 0x20 ADD SWAP1 DUP2 MSTORE PUSH1 0x20 ADD PUSH1 0x0 KECCAK256 PUSH1 0x1 ADD PUSH1 0x0 SWAP1 SLOAD SWAP1 PUSH2 0x100 EXP SWAP1 DIV PUSH1 0xFF AND PUSH2 0x25D9 JUMPI PUSH1 0x40 MLOAD PUSH32 0x8C379A000000000000000000000000000000000000000000000000000000000 DUP2 MSTORE PUSH1 0x4 ADD PUSH2 0x25D0 SWAP1 PUSH2 0x38BE JUMP JUMPDEST PUSH1 0x40 MLOAD DUP1 SWAP2 SUB SWAP1 REVERT JUMPDEST PUSH1 0xC PUSH1 0x0 DUP4 PUSH20 0xFFFFFFFFFFFFFFFFFFFFFFFFFFFFFFFFFFFFFFFF AND PUSH20 0xFFFFFFFFFFFFFFFFFFFFFFFFFFFFFFFFFFFFFFFF AND DUP2 MSTORE PUSH1 0x20 ADD SWAP1 DUP2 MSTORE PUSH1 0x20 ADD PUSH1 0x0 KECCAK256 PUSH1 0x0 ADD PUSH1 0x0 SWAP1 SLOAD SWAP1 PUSH2 0x100 EXP SWAP1 DIV PUSH1 0xFF AND PUSH2 0x2668 JUMPI PUSH1 0x40 MLOAD PUSH32 0x8C379A000000000000000000000000000000000000000000000000000000000 DUP2 MSTORE PUSH1 0x4 ADD PUSH2 0x265F SWAP1 PUSH2 0x4565 JUMP JUMPDEST PUSH1 0x40 MLOAD DUP1 SWAP2 SUB SWAP1 REVERT JUMPDEST PUSH1 0x0 DUP2 GT PUSH2 0x26AB JUMPI PUSH1 0x40 MLOAD PUSH32 0x8C379A000000000000000000000000000000000000000000000000000000000 DUP2 MSTORE PUSH1 0x4 ADD PUSH2 0x26A2 SWAP1 PUSH2 0x3BFE JUMP JUMPDEST PUSH1 0x40 MLOAD DUP1 SWAP2 SUB SWAP1 REVERT JUMPDEST PUSH2 0x26B5 DUP3 DUP3 PUSH2 0x2D5C JUMP JUMPDEST PUSH1 0xD PUSH1 0x0 DUP4 PUSH20 0xFFFFFFFFFFFFFFFFFFFFFFFFFFFFFFFFFFFFFFFF AND PUSH20 0xFFFFFFFFFFFFFFFFFFFFFFFFFFFFFFFFFFFFFFFF AND DUP2 MSTORE PUSH1 0x20 ADD SWAP1 DUP2 MSTORE PUSH1 0x20 ADD PUSH1 0x0 KECCAK256 PUSH1 0x40 MLOAD DUP1 PUSH1 0x60 ADD PUSH1 0x40 MSTORE DUP1 CALLER PUSH20 0xFFFFFFFFFFFFFFFFFFFFFFFFFFFFFFFFFFFFFFFF AND DUP2 MSTORE PUSH1 0x20 ADD DUP4 DUP2 MSTORE PUSH1 0x20 ADD TIMESTAMP DUP2 MSTORE POP SWAP1 DUP1 PUSH1 0x1 DUP2 SLOAD ADD DUP1 DUP3 SSTORE DUP1 SWAP2 POP POP PUSH1 0x1 SWAP1 SUB SWAP1 PUSH1 0x0 MSTORE PUSH1 0x20 PUSH1 0x0 KECCAK256 SWAP1 PUSH1 0x3 MUL ADD PUSH1 0x0 SWAP1 SWAP2 SWAP1 SWAP2 SWAP1 SWAP2 POP PUSH1 0x0 DUP3 ADD MLOAD DUP2 PUSH1 0x0 ADD PUSH1 0x0 PUSH2 0x100 EXP DUP2 SLOAD DUP2 PUSH20 0xFFFFFFFFFFFFFFFFFFFFFFFFFFFFFFFFFFFFFFFF MUL NOT AND SWAP1 DUP4 PUSH20 0xFFFFFFFFFFFFFFFFFFFFFFFFFFFFFFFFFFFFFFFF AND MUL OR SWAP1 SSTORE POP PUSH1 0x20 DUP3 ADD MLOAD DUP2 PUSH1 0x1 ADD SSTORE PUSH1 0x40 DUP3 ADD MLOAD DUP2 PUSH1 0x2 ADD SSTORE POP POP DUP2 PUSH20 0xFFFFFFFFFFFFFFFFFFFFFFFFFFFFFFFFFFFFFFFF AND CALLER PUSH20 0xFFFFFFFFFFFFFFFFFFFFFFFFFFFFFFFFFFFFFFFF AND PUSH32 0xDF1B2B09E9800D31C599375056BE9F9E4EB37F078102643600C4E149714EFAAD DUP4 PUSH1 0x40 MLOAD PUSH2 0x2808 SWAP2 SWAP1 PUSH2 0x3279 JUMP JUMPDEST PUSH1 0x40 MLOAD DUP1 SWAP2 SUB SWAP1 LOG3 POP POP JUMP JUMPDEST PUSH2 0x281C PUSH2 0x28AC JUMP JUMPDEST PUSH1 0x0 PUSH20 0xFFFFFFFFFFFFFFFFFFFFFFFFFFFFFFFFFFFFFFFF AND DUP2 PUSH20 0xFFFFFFFFFFFFFFFFFFFFFFFFFFFFFFFFFFFFFFFF AND SUB PUSH2 0x288E JUMPI PUSH1 0x0 PUSH1 0x40 MLOAD PUSH32 0x1E4FBDF700000000000000000000000000000000000000000000000000000000 DUP2 MSTORE PUSH1 0x4 ADD PUSH2 0x2885 SWAP2 SWAP1 PUSH2 0x341F JUMP JUMPDEST PUSH1 0x40 MLOAD DUP1 SWAP2 SUB SWAP1 REVERT JUMPDEST PUSH2 0x2897 DUP2 PUSH2 0x2C96 JUMP JUMPDEST POP JUMP JUMPDEST PUSH2 0x28A2 PUSH2 0x28AC JUMP JUMPDEST DUP1 PUSH1 0x8 DUP2 SWAP1 SSTORE POP POP JUMP JUMPDEST PUSH2 0x28B4 PUSH2 0x2DDE JUMP JUMPDEST PUSH20 0xFFFFFFFFFFFFFFFFFFFFFFFFFFFFFFFFFFFFFFFF AND PUSH2 0x28D2 PUSH2 0x183C JUMP JUMPDEST PUSH20 0xFFFFFFFFFFFFFFFFFFFFFFFFFFFFFFFFFFFFFFFF AND EQ PUSH2 0x2931 JUMPI PUSH2 0x28F5 PUSH2 0x2DDE JUMP JUMPDEST PUSH1 0x40 MLOAD PUSH32 0x118CDAA700000000000000000000000000000000000000000000000000000000 DUP2 MSTORE PUSH1 0x4 ADD PUSH2 0x2928 SWAP2 SWAP1 PUSH2 0x341F JUMP JUMPDEST PUSH1 0x40 MLOAD DUP1 SWAP2 SUB SWAP1 REVERT JUMPDEST JUMP JUMPDEST PUSH1 0xC PUSH1 0x0 DUP3 PUSH20 0xFFFFFFFFFFFFFFFFFFFFFFFFFFFFFFFFFFFFFFFF AND PUSH20 0xFFFFFFFFFFFFFFFFFFFFFFFFFFFFFFFFFFFFFFFF AND DUP2 MSTORE PUSH1 0x20 ADD SWAP1 DUP2 MSTORE PUSH1 0x20 ADD PUSH1 0x0 KECCAK256 PUSH1 0x0 ADD PUSH1 0x1 SWAP1 SLOAD SWAP1 PUSH2 0x100 EXP SWAP1 DIV PUSH1 0xFF AND PUSH2 0x29C2 JUMPI PUSH1 0x40 MLOAD PUSH32 0x8C379A000000000000000000000000000000000000000000000000000000000 DUP2 MSTORE PUSH1 0x4 ADD PUSH2 0x29B9 SWAP1 PUSH2 0x4369 JUMP JUMPDEST PUSH1 0x40 MLOAD DUP1 SWAP2 SUB SWAP1 REVERT JUMPDEST PUSH1 0x0 PUSH1 0xD PUSH1 0x0 DUP4 PUSH20 0xFFFFFFFFFFFFFFFFFFFFFFFFFFFFFFFFFFFFFFFF AND PUSH20 0xFFFFFFFFFFFFFFFFFFFFFFFFFFFFFFFFFFFFFFFF AND DUP2 MSTORE PUSH1 0x20 ADD SWAP1 DUP2 MSTORE PUSH1 0x20 ADD PUSH1 0x0 KECCAK256 SWAP1 POP PUSH1 0x0 TIMESTAMP SWAP1 POP PUSH1 0x0 JUMPDEST DUP3 DUP1 SLOAD SWAP1 POP DUP2 LT ISZERO PUSH2 0x2B9C JUMPI PUSH1 0x0 DUP4 DUP3 DUP2 SLOAD DUP2 LT PUSH2 0x2A2E JUMPI PUSH2 0x2A2D PUSH2 0x3C8A JUMP JUMPDEST JUMPDEST SWAP1 PUSH1 0x0 MSTORE PUSH1 0x20 PUSH1 0x0 KECCAK256 SWAP1 PUSH1 0x3 MUL ADD SWAP1 POP PUSH1 0x0 DUP2 PUSH1 0x2 ADD SLOAD DUP5 PUSH2 0x2A50 SWAP2 SWAP1 PUSH2 0x3DBE JUMP JUMPDEST SWAP1 POP PUSH1 0x6 SLOAD DUP2 GT ISZERO PUSH2 0x2B8D JUMPI PUSH1 0x0 PUSH1 0x6 SLOAD DUP3 PUSH2 0x2A6C SWAP2 SWAP1 PUSH2 0x3D8D JUMP JUMPDEST SWAP1 POP PUSH1 0x0 DUP2 PUSH1 0x2 PUSH2 0x2A7D SWAP2 SWAP1 PUSH2 0x46B8 JUMP JUMPDEST DUP5 PUSH1 0x1 ADD SLOAD PUSH2 0x2A8C SWAP2 SWAP1 PUSH2 0x3D8D JUMP JUMPDEST DUP5 PUSH1 0x1 ADD SLOAD PUSH2 0x2A9B SWAP2 SWAP1 PUSH2 0x3DBE JUMP JUMPDEST SWAP1 POP DUP2 PUSH1 0x2 PUSH2 0x2AAA SWAP2 SWAP1 PUSH2 0x46B8 JUMP JUMPDEST DUP5 PUSH1 0x1 ADD SLOAD PUSH2 0x2AB9 SWAP2 SWAP1 PUSH2 0x3D8D JUMP JUMPDEST DUP5 PUSH1 0x1 ADD DUP2 SWAP1 SSTORE POP PUSH1 0x0 DUP2 GT ISZERO PUSH2 0x2B62 JUMPI PUSH1 0x0 PUSH1 0x64 PUSH1 0x2 PUSH1 0x7 SLOAD DUP5 PUSH2 0x2ADE SWAP2 SWAP1 PUSH2 0x3D1C JUMP JUMPDEST PUSH2 0x2AE8 SWAP2 SWAP1 PUSH2 0x3D1C JUMP JUMPDEST PUSH2 0x2AF2 SWAP2 SWAP1 PUSH2 0x3D8D JUMP JUMPDEST SWAP1 POP PUSH1 0x0 PUSH1 0x64 PUSH1 0x2 PUSH1 0x8 SLOAD DUP6 PUSH2 0x2B08 SWAP2 SWAP1 PUSH2 0x3D1C JUMP JUMPDEST PUSH2 0x2B12 SWAP2 SWAP1 PUSH2 0x3D1C JUMP JUMPDEST PUSH2 0x2B1C SWAP2 SWAP1 PUSH2 0x3D8D JUMP JUMPDEST SWAP1 POP PUSH2 0x2B30 DUP11 PUSH2 0x2B2A PUSH2 0x183C JUMP JUMPDEST DUP5 PUSH2 0x2BA2 JUMP JUMPDEST PUSH2 0x2B5F DUP11 DUP8 PUSH1 0x0 ADD PUSH1 0x0 SWAP1 SLOAD SWAP1 PUSH2 0x100 EXP SWAP1 DIV PUSH20 0xFFFFFFFFFFFFFFFFFFFFFFFFFFFFFFFFFFFFFFFF AND DUP4 PUSH2 0x2BA2 JUMP JUMPDEST POP POP JUMPDEST PUSH1 0x6 SLOAD DUP3 PUSH2 0x2B70 SWAP2 SWAP1 PUSH2 0x3D1C JUMP JUMPDEST DUP5 PUSH1 0x2 ADD PUSH1 0x0 DUP3 DUP3 SLOAD PUSH2 0x2B83 SWAP2 SWAP1 PUSH2 0x3CE8 JUMP JUMPDEST SWAP3 POP POP DUP2 SWAP1 SSTORE POP POP POP JUMPDEST POP POP DUP1 DUP1 PUSH1 0x1 ADD SWAP2 POP POP PUSH2 0x2A0D JUMP JUMPDEST POP POP POP POP JUMP JUMPDEST PUSH1 0x0 PUSH20 0xFFFFFFFFFFFFFFFFFFFFFFFFFFFFFFFFFFFFFFFF AND DUP4 PUSH20 0xFFFFFFFFFFFFFFFFFFFFFFFFFFFFFFFFFFFFFFFF AND SUB PUSH2 0x2C14 JUMPI PUSH1 0x0 PUSH1 0x40 MLOAD PUSH32 0x96C6FD1E00000000000000000000000000000000000000000000000000000000 DUP2 MSTORE PUSH1 0x4 ADD PUSH2 0x2C0B SWAP2 SWAP1 PUSH2 0x341F JUMP JUMPDEST PUSH1 0x40 MLOAD DUP1 SWAP2 SUB SWAP1 REVERT JUMPDEST PUSH1 0x0 PUSH20 0xFFFFFFFFFFFFFFFFFFFFFFFFFFFFFFFFFFFFFFFF AND DUP3 PUSH20 0xFFFFFFFFFFFFFFFFFFFFFFFFFFFFFFFFFFFFFFFF AND SUB PUSH2 0x2C86 JUMPI PUSH1 0x0 PUSH1 0x40 MLOAD PUSH32 0xEC442F0500000000000000000000000000000000000000000000000000000000 DUP2 MSTORE PUSH1 0x4 ADD PUSH2 0x2C7D SWAP2 SWAP1 PUSH2 0x341F JUMP JUMPDEST PUSH1 0x40 MLOAD DUP1 SWAP2 SUB SWAP1 REVERT JUMPDEST PUSH2 0x2C91 DUP4 DUP4 DUP4 PUSH2 0x2DE6 JUMP JUMPDEST POP POP POP JUMP JUMPDEST PUSH1 0x0 PUSH1 0x5 PUSH1 0x0 SWAP1 SLOAD SWAP1 PUSH2 0x100 EXP SWAP1 DIV PUSH20 0xFFFFFFFFFFFFFFFFFFFFFFFFFFFFFFFFFFFFFFFF AND SWAP1 POP DUP2 PUSH1 0x5 PUSH1 0x0 PUSH2 0x100 EXP DUP2 SLOAD DUP2 PUSH20 0xFFFFFFFFFFFFFFFFFFFFFFFFFFFFFFFFFFFFFFFF MUL NOT AND SWAP1 DUP4 PUSH20 0xFFFFFFFFFFFFFFFFFFFFFFFFFFFFFFFFFFFFFFFF AND MUL OR SWAP1 SSTORE POP DUP2 PUSH20 0xFFFFFFFFFFFFFFFFFFFFFFFFFFFFFFFFFFFFFFFF AND DUP2 PUSH20 0xFFFFFFFFFFFFFFFFFFFFFFFFFFFFFFFFFFFFFFFF AND PUSH32 0x8BE0079C531659141344CD1FD0A4F28419497F9722A3DAAFE3B4186F6B6457E0 PUSH1 0x40 MLOAD PUSH1 0x40 MLOAD DUP1 SWAP2 SUB SWAP1 LOG3 POP POP JUMP JUMPDEST PUSH1 0x0 PUSH20 0xFFFFFFFFFFFFFFFFFFFFFFFFFFFFFFFFFFFFFFFF AND DUP3 PUSH20 0xFFFFFFFFFFFFFFFFFFFFFFFFFFFFFFFFFFFFFFFF AND SUB PUSH2 0x2DCE JUMPI PUSH1 0x0 PUSH1 0x40 MLOAD PUSH32 0xEC442F0500000000000000000000000000000000000000000000000000000000 DUP2 MSTORE PUSH1 0x4 ADD PUSH2 0x2DC5 SWAP2 SWAP1 PUSH2 0x341F JUMP JUMPDEST PUSH1 0x40 MLOAD DUP1 SWAP2 SUB SWAP1 REVERT JUMPDEST PUSH2 0x2DDA PUSH1 0x0 DUP4 DUP4 PUSH2 0x2DE6 JUMP JUMPDEST POP POP JUMP JUMPDEST PUSH1 0x0 CALLER SWAP1 POP SWAP1 JUMP JUMPDEST PUSH1 0x0 PUSH20 0xFFFFFFFFFFFFFFFFFFFFFFFFFFFFFFFFFFFFFFFF AND DUP4 PUSH20 0xFFFFFFFFFFFFFFFFFFFFFFFFFFFFFFFFFFFFFFFF AND SUB PUSH2 0x2E38 JUMPI DUP1 PUSH1 0x2 PUSH1 0x0 DUP3 DUP3 SLOAD PUSH2 0x2E2C SWAP2 SWAP1 PUSH2 0x3CE8 JUMP JUMPDEST SWAP3 POP POP DUP2 SWAP1 SSTORE POP PUSH2 0x2F0B JUMP JUMPDEST PUSH1 0x0 DUP1 PUSH1 0x0 DUP6 PUSH20 0xFFFFFFFFFFFFFFFFFFFFFFFFFFFFFFFFFFFFFFFF AND PUSH20 0xFFFFFFFFFFFFFFFFFFFFFFFFFFFFFFFFFFFFFFFF AND DUP2 MSTORE PUSH1 0x20 ADD SWAP1 DUP2 MSTORE PUSH1 0x20 ADD PUSH1 0x0 KECCAK256 SLOAD SWAP1 POP DUP2 DUP2 LT ISZERO PUSH2 0x2EC4 JUMPI DUP4 DUP2 DUP4 PUSH1 0x40 MLOAD PUSH32 0xE450D38C00000000000000000000000000000000000000000000000000000000 DUP2 MSTORE PUSH1 0x4 ADD PUSH2 0x2EBB SWAP4 SWAP3 SWAP2 SWAP1 PUSH2 0x4703 JUMP JUMPDEST PUSH1 0x40 MLOAD DUP1 SWAP2 SUB SWAP1 REVERT JUMPDEST DUP2 DUP2 SUB PUSH1 0x0 DUP1 DUP7 PUSH20 0xFFFFFFFFFFFFFFFFFFFFFFFFFFFFFFFFFFFFFFFF AND PUSH20 0xFFFFFFFFFFFFFFFFFFFFFFFFFFFFFFFFFFFFFFFF AND DUP2 MSTORE PUSH1 0x20 ADD SWAP1 DUP2 MSTORE PUSH1 0x20 ADD PUSH1 0x0 KECCAK256 DUP2 SWAP1 SSTORE POP POP JUMPDEST PUSH1 0x0 PUSH20 0xFFFFFFFFFFFFFFFFFFFFFFFFFFFFFFFFFFFFFFFF AND DUP3 PUSH20 0xFFFFFFFFFFFFFFFFFFFFFFFFFFFFFFFFFFFFFFFF AND SUB PUSH2 0x2F54 JUMPI DUP1 PUSH1 0x2 PUSH1 0x0 DUP3 DUP3 SLOAD SUB SWAP3 POP POP DUP2 SWAP1 SSTORE POP PUSH2 0x2FA1 JUMP JUMPDEST DUP1 PUSH1 0x0 DUP1 DUP5 PUSH20 0xFFFFFFFFFFFFFFFFFFFFFFFFFFFFFFFFFFFFFFFF AND PUSH20 0xFFFFFFFFFFFFFFFFFFFFFFFFFFFFFFFFFFFFFFFF AND DUP2 MSTORE PUSH1 0x20 ADD SWAP1 DUP2 MSTORE PUSH1 0x20 ADD PUSH1 0x0 KECCAK256 PUSH1 0x0 DUP3 DUP3 SLOAD ADD SWAP3 POP POP DUP2 SWAP1 SSTORE POP JUMPDEST DUP2 PUSH20 0xFFFFFFFFFFFFFFFFFFFFFFFFFFFFFFFFFFFFFFFF AND DUP4 PUSH20 0xFFFFFFFFFFFFFFFFFFFFFFFFFFFFFFFFFFFFFFFF AND PUSH32 0xDDF252AD1BE2C89B69C2B068FC378DAA952BA7F163C4A11628F55A4DF523B3EF DUP4 PUSH1 0x40 MLOAD PUSH2 0x2FFE SWAP2 SWAP1 PUSH2 0x3279 JUMP JUMPDEST PUSH1 0x40 MLOAD DUP1 SWAP2 SUB SWAP1 LOG3 POP POP POP JUMP JUMPDEST PUSH1 0x40 MLOAD DUP1 PUSH1 0x40 ADD PUSH1 0x40 MSTORE DUP1 PUSH1 0x0 ISZERO ISZERO DUP2 MSTORE PUSH1 0x20 ADD PUSH1 0x0 ISZERO ISZERO DUP2 MSTORE POP SWAP1 JUMP JUMPDEST PUSH1 0x40 MLOAD DUP1 PUSH1 0x60 ADD PUSH1 0x40 MSTORE DUP1 PUSH1 0x60 DUP2 MSTORE PUSH1 0x20 ADD PUSH1 0x0 ISZERO ISZERO DUP2 MSTORE PUSH1 0x20 ADD PUSH1 0x0 ISZERO ISZERO DUP2 MSTORE POP SWAP1 JUMP JUMPDEST PUSH1 0x0 DUP2 MLOAD SWAP1 POP SWAP2 SWAP1 POP JUMP JUMPDEST PUSH1 0x0 DUP3 DUP3 MSTORE PUSH1 0x20 DUP3 ADD SWAP1 POP SWAP3 SWAP2 POP POP JUMP JUMPDEST PUSH1 0x0 JUMPDEST DUP4 DUP2 LT ISZERO PUSH2 0x3088 JUMPI DUP1 DUP3 ADD MLOAD DUP2 DUP5 ADD MSTORE PUSH1 0x20 DUP2 ADD SWAP1 POP PUSH2 0x306D JUMP JUMPDEST PUSH1 0x0 DUP5 DUP5 ADD MSTORE POP POP POP POP JUMP JUMPDEST PUSH1 0x0 PUSH1 0x1F NOT PUSH1 0x1F DUP4 ADD AND SWAP1 POP SWAP2 SWAP1 POP JUMP JUMPDEST PUSH1 0x0 PUSH2 0x30B0 DUP3 PUSH2 0x304E JUMP JUMPDEST PUSH2 0x30BA DUP2 DUP6 PUSH2 0x3059 JUMP JUMPDEST SWAP4 POP PUSH2 0x30CA DUP2 DUP6 PUSH1 0x20 DUP7 ADD PUSH2 0x306A JUMP JUMPDEST PUSH2 0x30D3 DUP2 PUSH2 0x3094 JUMP JUMPDEST DUP5 ADD SWAP2 POP POP SWAP3 SWAP2 POP POP JUMP JUMPDEST PUSH1 0x0 PUSH1 0x20 DUP3 ADD SWAP1 POP DUP2 DUP2 SUB PUSH1 0x0 DUP4 ADD MSTORE PUSH2 0x30F8 DUP2 DUP5 PUSH2 0x30A5 JUMP JUMPDEST SWAP1 POP SWAP3 SWAP2 POP POP JUMP JUMPDEST PUSH1 0x0 DUP1 REVERT JUMPDEST PUSH1 0x0 DUP1 REVERT JUMPDEST PUSH1 0x0 PUSH20 0xFFFFFFFFFFFFFFFFFFFFFFFFFFFFFFFFFFFFFFFF DUP3 AND SWAP1 POP SWAP2 SWAP1 POP JUMP JUMPDEST PUSH1 0x0 PUSH2 0x3135 DUP3 PUSH2 0x310A JUMP JUMPDEST SWAP1 POP SWAP2 SWAP1 POP JUMP JUMPDEST PUSH2 0x3145 DUP2 PUSH2 0x312A JUMP JUMPDEST DUP2 EQ PUSH2 0x3150 JUMPI PUSH1 0x0 DUP1 REVERT JUMPDEST POP JUMP JUMPDEST PUSH1 0x0 DUP2 CALLDATALOAD SWAP1 POP PUSH2 0x3162 DUP2 PUSH2 0x313C JUMP JUMPDEST SWAP3 SWAP2 POP POP JUMP JUMPDEST PUSH1 0x0 DUP2 SWAP1 POP SWAP2 SWAP1 POP JUMP JUMPDEST PUSH2 0x317B DUP2 PUSH2 0x3168 JUMP JUMPDEST DUP2 EQ PUSH2 0x3186 JUMPI PUSH1 0x0 DUP1 REVERT JUMPDEST POP JUMP JUMPDEST PUSH1 0x0 DUP2 CALLDATALOAD SWAP1 POP PUSH2 0x3198 DUP2 PUSH2 0x3172 JUMP JUMPDEST SWAP3 SWAP2 POP POP JUMP JUMPDEST PUSH1 0x0 DUP1 PUSH1 0x40 DUP4 DUP6 SUB SLT ISZERO PUSH2 0x31B5 JUMPI PUSH2 0x31B4 PUSH2 0x3100 JUMP JUMPDEST JUMPDEST PUSH1 0x0 PUSH2 0x31C3 DUP6 DUP3 DUP7 ADD PUSH2 0x3153 JUMP JUMPDEST SWAP3 POP POP PUSH1 0x20 PUSH2 0x31D4 DUP6 DUP3 DUP7 ADD PUSH2 0x3189 JUMP JUMPDEST SWAP2 POP POP SWAP3 POP SWAP3 SWAP1 POP JUMP JUMPDEST PUSH1 0x0 DUP2 ISZERO ISZERO SWAP1 POP SWAP2 SWAP1 POP JUMP JUMPDEST PUSH2 0x31F3 DUP2 PUSH2 0x31DE JUMP JUMPDEST DUP3 MSTORE POP POP JUMP JUMPDEST PUSH1 0x0 PUSH1 0x20 DUP3 ADD SWAP1 POP PUSH2 0x320E PUSH1 0x0 DUP4 ADD DUP5 PUSH2 0x31EA JUMP JUMPDEST SWAP3 SWAP2 POP POP JUMP JUMPDEST PUSH1 0x0 PUSH1 0x20 DUP3 DUP5 SUB SLT ISZERO PUSH2 0x322A JUMPI PUSH2 0x3229 PUSH2 0x3100 JUMP JUMPDEST JUMPDEST PUSH1 0x0 PUSH2 0x3238 DUP5 DUP3 DUP6 ADD PUSH2 0x3153 JUMP JUMPDEST SWAP2 POP POP SWAP3 SWAP2 POP POP JUMP JUMPDEST PUSH1 0x0 PUSH1 0x40 DUP3 ADD SWAP1 POP PUSH2 0x3256 PUSH1 0x0 DUP4 ADD DUP6 PUSH2 0x31EA JUMP JUMPDEST PUSH2 0x3263 PUSH1 0x20 DUP4 ADD DUP5 PUSH2 0x31EA JUMP JUMPDEST SWAP4 SWAP3 POP POP POP JUMP JUMPDEST PUSH2 0x3273 DUP2 PUSH2 0x3168 JUMP JUMPDEST DUP3 MSTORE POP POP JUMP JUMPDEST PUSH1 0x0 PUSH1 0x20 DUP3 ADD SWAP1 POP PUSH2 0x328E PUSH1 0x0 DUP4 ADD DUP5 PUSH2 0x326A JUMP JUMPDEST SWAP3 SWAP2 POP POP JUMP JUMPDEST PUSH1 0x0 DUP1 PUSH1 0x0 PUSH1 0x60 DUP5 DUP7 SUB SLT ISZERO PUSH2 0x32AD JUMPI PUSH2 0x32AC PUSH2 0x3100 JUMP JUMPDEST JUMPDEST PUSH1 0x0 PUSH2 0x32BB DUP7 DUP3 DUP8 ADD PUSH2 0x3153 JUMP JUMPDEST SWAP4 POP POP PUSH1 0x20 PUSH2 0x32CC DUP7 DUP3 DUP8 ADD PUSH2 0x3153 JUMP JUMPDEST SWAP3 POP POP PUSH1 0x40 PUSH2 0x32DD DUP7 DUP3 DUP8 ADD PUSH2 0x3189 JUMP JUMPDEST SWAP2 POP POP SWAP3 POP SWAP3 POP SWAP3 JUMP JUMPDEST PUSH1 0x0 PUSH1 0xFF DUP3 AND SWAP1 POP SWAP2 SWAP1 POP JUMP JUMPDEST PUSH2 0x32FD DUP2 PUSH2 0x32E7 JUMP JUMPDEST DUP3 MSTORE POP POP JUMP JUMPDEST PUSH1 0x0 PUSH1 0x20 DUP3 ADD SWAP1 POP PUSH2 0x3318 PUSH1 0x0 DUP4 ADD DUP5 PUSH2 0x32F4 JUMP JUMPDEST SWAP3 SWAP2 POP POP JUMP JUMPDEST PUSH1 0x0 DUP1 REVERT JUMPDEST PUSH1 0x0 DUP1 REVERT JUMPDEST PUSH1 0x0 DUP1 REVERT JUMPDEST PUSH1 0x0 DUP1 DUP4 PUSH1 0x1F DUP5 ADD SLT PUSH2 0x3343 JUMPI PUSH2 0x3342 PUSH2 0x331E JUMP JUMPDEST JUMPDEST DUP3 CALLDATALOAD SWAP1 POP PUSH8 0xFFFFFFFFFFFFFFFF DUP2 GT ISZERO PUSH2 0x3360 JUMPI PUSH2 0x335F PUSH2 0x3323 JUMP JUMPDEST JUMPDEST PUSH1 0x20 DUP4 ADD SWAP2 POP DUP4 PUSH1 0x1 DUP3 MUL DUP4 ADD GT ISZERO PUSH2 0x337C JUMPI PUSH2 0x337B PUSH2 0x3328 JUMP JUMPDEST JUMPDEST SWAP3 POP SWAP3 SWAP1 POP JUMP JUMPDEST PUSH1 0x0 DUP1 PUSH1 0x0 PUSH1 0x40 DUP5 DUP7 SUB SLT ISZERO PUSH2 0x339C JUMPI PUSH2 0x339B PUSH2 0x3100 JUMP JUMPDEST JUMPDEST PUSH1 0x0 PUSH2 0x33AA DUP7 DUP3 DUP8 ADD PUSH2 0x3153 JUMP JUMPDEST SWAP4 POP POP PUSH1 0x20 DUP5 ADD CALLDATALOAD PUSH8 0xFFFFFFFFFFFFFFFF DUP2 GT ISZERO PUSH2 0x33CB JUMPI PUSH2 0x33CA PUSH2 0x3105 JUMP JUMPDEST JUMPDEST PUSH2 0x33D7 DUP7 DUP3 DUP8 ADD PUSH2 0x332D JUMP JUMPDEST SWAP3 POP SWAP3 POP POP SWAP3 POP SWAP3 POP SWAP3 JUMP JUMPDEST PUSH1 0x0 PUSH1 0x20 DUP3 DUP5 SUB SLT ISZERO PUSH2 0x33F9 JUMPI PUSH2 0x33F8 PUSH2 0x3100 JUMP JUMPDEST JUMPDEST PUSH1 0x0 PUSH2 0x3407 DUP5 DUP3 DUP6 ADD PUSH2 0x3189 JUMP JUMPDEST SWAP2 POP POP SWAP3 SWAP2 POP POP JUMP JUMPDEST PUSH2 0x3419 DUP2 PUSH2 0x312A JUMP JUMPDEST DUP3 MSTORE POP POP JUMP JUMPDEST PUSH1 0x0 PUSH1 0x20 DUP3 ADD SWAP1 POP PUSH2 0x3434 PUSH1 0x0 DUP4 ADD DUP5 PUSH2 0x3410 JUMP JUMPDEST SWAP3 SWAP2 POP POP JUMP JUMPDEST PUSH1 0x0 DUP2 MLOAD SWAP1 POP SWAP2 SWAP1 POP JUMP JUMPDEST PUSH1 0x0 DUP3 DUP3 MSTORE PUSH1 0x20 DUP3 ADD SWAP1 POP SWAP3 SWAP2 POP POP JUMP JUMPDEST PUSH1 0x0 DUP2 SWAP1 POP PUSH1 0x20 DUP3 ADD SWAP1 POP SWAP2 SWAP1 POP JUMP JUMPDEST PUSH2 0x346F DUP2 PUSH2 0x312A JUMP JUMPDEST DUP3 MSTORE POP POP JUMP JUMPDEST PUSH1 0x0 PUSH2 0x3481 DUP4 DUP4 PUSH2 0x3466 JUMP JUMPDEST PUSH1 0x20 DUP4 ADD SWAP1 POP SWAP3 SWAP2 POP POP JUMP JUMPDEST PUSH1 0x0 PUSH1 0x20 DUP3 ADD SWAP1 POP SWAP2 SWAP1 POP JUMP JUMPDEST PUSH1 0x0 PUSH2 0x34A5 DUP3 PUSH2 0x343A JUMP JUMPDEST PUSH2 0x34AF DUP2 DUP6 PUSH2 0x3445 JUMP JUMPDEST SWAP4 POP PUSH2 0x34BA DUP4 PUSH2 0x3456 JUMP JUMPDEST DUP1 PUSH1 0x0 JUMPDEST DUP4 DUP2 LT ISZERO PUSH2 0x34EB JUMPI DUP2 MLOAD PUSH2 0x34D2 DUP9 DUP3 PUSH2 0x3475 JUMP JUMPDEST SWAP8 POP PUSH2 0x34DD DUP4 PUSH2 0x348D JUMP JUMPDEST SWAP3 POP POP PUSH1 0x1 DUP2 ADD SWAP1 POP PUSH2 0x34BE JUMP JUMPDEST POP DUP6 SWAP4 POP POP POP POP SWAP3 SWAP2 POP POP JUMP JUMPDEST PUSH1 0x0 DUP2 MLOAD SWAP1 POP SWAP2 SWAP1 POP JUMP JUMPDEST PUSH1 0x0 DUP3 DUP3 MSTORE PUSH1 0x20 DUP3 ADD SWAP1 POP SWAP3 SWAP2 POP POP JUMP JUMPDEST PUSH1 0x0 DUP2 SWAP1 POP PUSH1 0x20 DUP3 ADD SWAP1 POP SWAP2 SWAP1 POP JUMP JUMPDEST PUSH2 0x352D DUP2 PUSH2 0x3168 JUMP JUMPDEST DUP3 MSTORE POP POP JUMP JUMPDEST PUSH1 0x0 PUSH2 0x353F DUP4 DUP4 PUSH2 0x3524 JUMP JUMPDEST PUSH1 0x20 DUP4 ADD SWAP1 POP SWAP3 SWAP2 POP POP JUMP JUMPDEST PUSH1 0x0 PUSH1 0x20 DUP3 ADD SWAP1 POP SWAP2 SWAP1 POP JUMP JUMPDEST PUSH1 0x0 PUSH2 0x3563 DUP3 PUSH2 0x34F8 JUMP JUMPDEST PUSH2 0x356D DUP2 DUP6 PUSH2 0x3503 JUMP JUMPDEST SWAP4 POP PUSH2 0x3578 DUP4 PUSH2 0x3514 JUMP JUMPDEST DUP1 PUSH1 0x0 JUMPDEST DUP4 DUP2 LT ISZERO PUSH2 0x35A9 JUMPI DUP2 MLOAD PUSH2 0x3590 DUP9 DUP3 PUSH2 0x3533 JUMP JUMPDEST SWAP8 POP PUSH2 0x359B DUP4 PUSH2 0x354B JUMP JUMPDEST SWAP3 POP POP PUSH1 0x1 DUP2 ADD SWAP1 POP PUSH2 0x357C JUMP JUMPDEST POP DUP6 SWAP4 POP POP POP POP SWAP3 SWAP2 POP POP JUMP JUMPDEST PUSH1 0x0 PUSH1 0x40 DUP3 ADD SWAP1 POP DUP2 DUP2 SUB PUSH1 0x0 DUP4 ADD MSTORE PUSH2 0x35D0 DUP2 DUP6 PUSH2 0x349A JUMP JUMPDEST SWAP1 POP DUP2 DUP2 SUB PUSH1 0x20 DUP4 ADD MSTORE PUSH2 0x35E4 DUP2 DUP5 PUSH2 0x3558 JUMP JUMPDEST SWAP1 POP SWAP4 SWAP3 POP POP POP JUMP JUMPDEST PUSH2 0x35F6 DUP2 PUSH2 0x31DE JUMP JUMPDEST DUP3 MSTORE POP POP JUMP JUMPDEST PUSH1 0x40 DUP3 ADD PUSH1 0x0 DUP3 ADD MLOAD PUSH2 0x3612 PUSH1 0x0 DUP6 ADD DUP3 PUSH2 0x35ED JUMP JUMPDEST POP PUSH1 0x20 DUP3 ADD MLOAD PUSH2 0x3625 PUSH1 0x20 DUP6 ADD DUP3 PUSH2 0x35ED JUMP JUMPDEST POP POP POP POP JUMP JUMPDEST PUSH1 0x0 PUSH1 0x40 DUP3 ADD SWAP1 POP PUSH2 0x3640 PUSH1 0x0 DUP4 ADD DUP5 PUSH2 0x35FC JUMP JUMPDEST SWAP3 SWAP2 POP POP JUMP JUMPDEST PUSH1 0x0 DUP3 DUP3 MSTORE PUSH1 0x20 DUP3 ADD SWAP1 POP SWAP3 SWAP2 POP POP JUMP JUMPDEST PUSH1 0x0 PUSH2 0x3662 DUP3 PUSH2 0x304E JUMP JUMPDEST PUSH2 0x366C DUP2 DUP6 PUSH2 0x3646 JUMP JUMPDEST SWAP4 POP PUSH2 0x367C DUP2 DUP6 PUSH1 0x20 DUP7 ADD PUSH2 0x306A JUMP JUMPDEST PUSH2 0x3685 DUP2 PUSH2 0x3094 JUMP JUMPDEST DUP5 ADD SWAP2 POP POP SWAP3 SWAP2 POP POP JUMP JUMPDEST PUSH1 0x0 PUSH1 0x60 DUP4 ADD PUSH1 0x0 DUP4 ADD MLOAD DUP5 DUP3 SUB PUSH1 0x0 DUP7 ADD MSTORE PUSH2 0x36AD DUP3 DUP3 PUSH2 0x3657 JUMP JUMPDEST SWAP2 POP POP PUSH1 0x20 DUP4 ADD MLOAD PUSH2 0x36C2 PUSH1 0x20 DUP7 ADD DUP3 PUSH2 0x35ED JUMP JUMPDEST POP PUSH1 0x40 DUP4 ADD MLOAD PUSH2 0x36D5 PUSH1 0x40 DUP7 ADD DUP3 PUSH2 0x35ED JUMP JUMPDEST POP DUP1 SWAP2 POP POP SWAP3 SWAP2 POP POP JUMP JUMPDEST PUSH1 0x0 PUSH1 0x20 DUP3 ADD SWAP1 POP DUP2 DUP2 SUB PUSH1 0x0 DUP4 ADD MSTORE PUSH2 0x36FA DUP2 DUP5 PUSH2 0x3690 JUMP JUMPDEST SWAP1 POP SWAP3 SWAP2 POP POP JUMP JUMPDEST PUSH1 0x0 DUP1 PUSH1 0x40 DUP4 DUP6 SUB SLT ISZERO PUSH2 0x3719 JUMPI PUSH2 0x3718 PUSH2 0x3100 JUMP JUMPDEST JUMPDEST PUSH1 0x0 PUSH2 0x3727 DUP6 DUP3 DUP7 ADD PUSH2 0x3153 JUMP JUMPDEST SWAP3 POP POP PUSH1 0x20 PUSH2 0x3738 DUP6 DUP3 DUP7 ADD PUSH2 0x3153 JUMP JUMPDEST SWAP2 POP POP SWAP3 POP SWAP3 SWAP1 POP JUMP JUMPDEST PUSH1 0x0 PUSH1 0x60 DUP3 ADD SWAP1 POP DUP2 DUP2 SUB PUSH1 0x0 DUP4 ADD MSTORE PUSH2 0x375C DUP2 DUP7 PUSH2 0x30A5 JUMP JUMPDEST SWAP1 POP PUSH2 0x376B PUSH1 0x20 DUP4 ADD DUP6 PUSH2 0x31EA JUMP JUMPDEST PUSH2 0x3778 PUSH1 0x40 DUP4 ADD DUP5 PUSH2 0x31EA JUMP JUMPDEST SWAP5 SWAP4 POP POP POP POP JUMP JUMPDEST PUSH32 0x4E487B7100000000000000000000000000000000000000000000000000000000 PUSH1 0x0 MSTORE PUSH1 0x22 PUSH1 0x4 MSTORE PUSH1 0x24 PUSH1 0x0 REVERT JUMPDEST PUSH1 0x0 PUSH1 0x2 DUP3 DIV SWAP1 POP PUSH1 0x1 DUP3 AND DUP1 PUSH2 0x37C7 JUMPI PUSH1 0x7F DUP3 AND SWAP2 POP JUMPDEST PUSH1 0x20 DUP3 LT DUP2 SUB PUSH2 0x37DA JUMPI PUSH2 0x37D9 PUSH2 0x3780 JUMP JUMPDEST JUMPDEST POP SWAP2 SWAP1 POP JUMP JUMPDEST PUSH32 0x417070726F76652069732064697361626C656400000000000000000000000000 PUSH1 0x0 DUP3 ADD MSTORE POP JUMP JUMPDEST PUSH1 0x0 PUSH2 0x3816 PUSH1 0x13 DUP4 PUSH2 0x3059 JUMP JUMPDEST SWAP2 POP PUSH2 0x3821 DUP3 PUSH2 0x37E0 JUMP JUMPDEST PUSH1 0x20 DUP3 ADD SWAP1 POP SWAP2 SWAP1 POP JUMP JUMPDEST PUSH1 0x0 PUSH1 0x20 DUP3 ADD SWAP1 POP DUP2 DUP2 SUB PUSH1 0x0 DUP4 ADD MSTORE PUSH2 0x3845 DUP2 PUSH2 0x3809 JUMP JUMPDEST SWAP1 POP SWAP2 SWAP1 POP JUMP JUMPDEST PUSH32 0x4F6E6C7920616374697665206D65726368616E74732063616E2063616C6C2074 PUSH1 0x0 DUP3 ADD MSTORE PUSH32 0x6869732066756E6374696F6E0000000000000000000000000000000000000000 PUSH1 0x20 DUP3 ADD MSTORE POP JUMP JUMPDEST PUSH1 0x0 PUSH2 0x38A8 PUSH1 0x2C DUP4 PUSH2 0x3059 JUMP JUMPDEST SWAP2 POP PUSH2 0x38B3 DUP3 PUSH2 0x384C JUMP JUMPDEST PUSH1 0x40 DUP3 ADD SWAP1 POP SWAP2 SWAP1 POP JUMP JUMPDEST PUSH1 0x0 PUSH1 0x20 DUP3 ADD SWAP1 POP DUP2 DUP2 SUB PUSH1 0x0 DUP4 ADD MSTORE PUSH2 0x38D7 DUP2 PUSH2 0x389B JUMP JUMPDEST SWAP1 POP SWAP2 SWAP1 POP JUMP JUMPDEST PUSH32 0x436F6E73756D657220616C726561647920657869737473000000000000000000 PUSH1 0x0 DUP3 ADD MSTORE POP JUMP JUMPDEST PUSH1 0x0 PUSH2 0x3914 PUSH1 0x17 DUP4 PUSH2 0x3059 JUMP JUMPDEST SWAP2 POP PUSH2 0x391F DUP3 PUSH2 0x38DE JUMP JUMPDEST PUSH1 0x20 DUP3 ADD SWAP1 POP SWAP2 SWAP1 POP JUMP JUMPDEST PUSH1 0x0 PUSH1 0x20 DUP3 ADD SWAP1 POP DUP2 DUP2 SUB PUSH1 0x0 DUP4 ADD MSTORE PUSH2 0x3943 DUP2 PUSH2 0x3907 JUMP JUMPDEST SWAP1 POP SWAP2 SWAP1 POP JUMP JUMPDEST PUSH32 0x5472616E736665722069732064697361626C6564000000000000000000000000 PUSH1 0x0 DUP3 ADD MSTORE POP JUMP JUMPDEST PUSH1 0x0 PUSH2 0x3980 PUSH1 0x14 DUP4 PUSH2 0x3059 JUMP JUMPDEST SWAP2 POP PUSH2 0x398B DUP3 PUSH2 0x394A JUMP JUMPDEST PUSH1 0x20 DUP3 ADD SWAP1 POP SWAP2 SWAP1 POP JUMP JUMPDEST PUSH1 0x0 PUSH1 0x20 DUP3 ADD SWAP1 POP DUP2 DUP2 SUB PUSH1 0x0 DUP4 ADD MSTORE PUSH2 0x39AF DUP2 PUSH2 0x3973 JUMP JUMPDEST SWAP1 POP SWAP2 SWAP1 POP JUMP JUMPDEST PUSH32 0x4D65726368616E7420646F6573206E6F74206578697374000000000000000000 PUSH1 0x0 DUP3 ADD MSTORE POP JUMP JUMPDEST PUSH1 0x0 PUSH2 0x39EC PUSH1 0x17 DUP4 PUSH2 0x3059 JUMP JUMPDEST SWAP2 POP PUSH2 0x39F7 DUP3 PUSH2 0x39B6 JUMP JUMPDEST PUSH1 0x20 DUP3 ADD SWAP1 POP SWAP2 SWAP1 POP JUMP JUMPDEST PUSH1 0x0 PUSH1 0x20 DUP3 ADD SWAP1 POP DUP2 DUP2 SUB PUSH1 0x0 DUP4 ADD MSTORE PUSH2 0x3A1B DUP2 PUSH2 0x39DF JUMP JUMPDEST SWAP1 POP SWAP2 SWAP1 POP JUMP JUMPDEST PUSH32 0x4D65726368616E7420616C72656164792064697361626C656400000000000000 PUSH1 0x0 DUP3 ADD MSTORE POP JUMP JUMPDEST PUSH1 0x0 PUSH2 0x3A58 PUSH1 0x19 DUP4 PUSH2 0x3059 JUMP JUMPDEST SWAP2 POP PUSH2 0x3A63 DUP3 PUSH2 0x3A22 JUMP JUMPDEST PUSH1 0x20 DUP3 ADD SWAP1 POP SWAP2 SWAP1 POP JUMP JUMPDEST PUSH1 0x0 PUSH1 0x20 DUP3 ADD SWAP1 POP DUP2 DUP2 SUB PUSH1 0x0 DUP4 ADD MSTORE PUSH2 0x3A87 DUP2 PUSH2 0x3A4B JUMP JUMPDEST SWAP1 POP SWAP2 SWAP1 POP JUMP JUMPDEST PUSH32 0x4F6E6C792061637469766520636F6E73756D6572732063616E2063616C6C2074 PUSH1 0x0 DUP3 ADD MSTORE PUSH32 0x6869732066756E6374696F6E0000000000000000000000000000000000000000 PUSH1 0x20 DUP3 ADD MSTORE POP JUMP JUMPDEST PUSH1 0x0 PUSH2 0x3AEA PUSH1 0x2C DUP4 PUSH2 0x3059 JUMP JUMPDEST SWAP2 POP PUSH2 0x3AF5 DUP3 PUSH2 0x3A8E JUMP JUMPDEST PUSH1 0x40 DUP3 ADD SWAP1 POP SWAP2 SWAP1 POP JUMP JUMPDEST PUSH1 0x0 PUSH1 0x20 DUP3 ADD SWAP1 POP DUP2 DUP2 SUB PUSH1 0x0 DUP4 ADD MSTORE PUSH2 0x3B19 DUP2 PUSH2 0x3ADD JUMP JUMPDEST SWAP1 POP SWAP2 SWAP1 POP JUMP JUMPDEST PUSH32 0x4D65726368616E7420646F6573206E6F74206578697374206F72206973206469 PUSH1 0x0 DUP3 ADD MSTORE PUSH32 0x7361626C65640000000000000000000000000000000000000000000000000000 PUSH1 0x20 DUP3 ADD MSTORE POP JUMP JUMPDEST PUSH1 0x0 PUSH2 0x3B7C PUSH1 0x26 DUP4 PUSH2 0x3059 JUMP JUMPDEST SWAP2 POP PUSH2 0x3B87 DUP3 PUSH2 0x3B20 JUMP JUMPDEST PUSH1 0x40 DUP3 ADD SWAP1 POP SWAP2 SWAP1 POP JUMP JUMPDEST PUSH1 0x0 PUSH1 0x20 DUP3 ADD SWAP1 POP DUP2 DUP2 SUB PUSH1 0x0 DUP4 ADD MSTORE PUSH2 0x3BAB DUP2 PUSH2 0x3B6F JUMP JUMPDEST SWAP1 POP SWAP2 SWAP1 POP JUMP JUMPDEST PUSH32 0x416D6F756E74206D7573742062652067726561746572207468616E2030000000 PUSH1 0x0 DUP3 ADD MSTORE POP JUMP JUMPDEST PUSH1 0x0 PUSH2 0x3BE8 PUSH1 0x1D DUP4 PUSH2 0x3059 JUMP JUMPDEST SWAP2 POP PUSH2 0x3BF3 DUP3 PUSH2 0x3BB2 JUMP JUMPDEST PUSH1 0x20 DUP3 ADD SWAP1 POP SWAP2 SWAP1 POP JUMP JUMPDEST PUSH1 0x0 PUSH1 0x20 DUP3 ADD SWAP1 POP DUP2 DUP2 SUB PUSH1 0x0 DUP4 ADD MSTORE PUSH2 0x3C17 DUP2 PUSH2 0x3BDB JUMP JUMPDEST SWAP1 POP SWAP2 SWAP1 POP JUMP JUMPDEST PUSH32 0x596F7520646F6E2774206861766520656E6F75676820746F6B656E7300000000 PUSH1 0x0 DUP3 ADD MSTORE POP JUMP JUMPDEST PUSH1 0x0 PUSH2 0x3C54 PUSH1 0x1C DUP4 PUSH2 0x3059 JUMP JUMPDEST SWAP2 POP PUSH2 0x3C5F DUP3 PUSH2 0x3C1E JUMP JUMPDEST PUSH1 0x20 DUP3 ADD SWAP1 POP SWAP2 SWAP1 POP JUMP JUMPDEST PUSH1 0x0 PUSH1 0x20 DUP3 ADD SWAP1 POP DUP2 DUP2 SUB PUSH1 0x0 DUP4 ADD MSTORE PUSH2 0x3C83 DUP2 PUSH2 0x3C47 JUMP JUMPDEST SWAP1 POP SWAP2 SWAP1 POP JUMP JUMPDEST PUSH32 0x4E487B7100000000000000000000000000000000000000000000000000000000 PUSH1 0x0 MSTORE PUSH1 0x32 PUSH1 0x4 MSTORE PUSH1 0x24 PUSH1 0x0 REVERT JUMPDEST PUSH32 0x4E487B7100000000000000000000000000000000000000000000000000000000 PUSH1 0x0 MSTORE PUSH1 0x11 PUSH1 0x4 MSTORE PUSH1 0x24 PUSH1 0x0 REVERT JUMPDEST PUSH1 0x0 PUSH2 0x3CF3 DUP3 PUSH2 0x3168 JUMP JUMPDEST SWAP2 POP PUSH2 0x3CFE DUP4 PUSH2 0x3168 JUMP JUMPDEST SWAP3 POP DUP3 DUP3 ADD SWAP1 POP DUP1 DUP3 GT ISZERO PUSH2 0x3D16 JUMPI PUSH2 0x3D15 PUSH2 0x3CB9 JUMP JUMPDEST JUMPDEST SWAP3 SWAP2 POP POP JUMP JUMPDEST PUSH1 0x0 PUSH2 0x3D27 DUP3 PUSH2 0x3168 JUMP JUMPDEST SWAP2 POP PUSH2 0x3D32 DUP4 PUSH2 0x3168 JUMP JUMPDEST SWAP3 POP DUP3 DUP3 MUL PUSH2 0x3D40 DUP2 PUSH2 0x3168 JUMP JUMPDEST SWAP2 POP DUP3 DUP3 DIV DUP5 EQ DUP4 ISZERO OR PUSH2 0x3D57 JUMPI PUSH2 0x3D56 PUSH2 0x3CB9 JUMP JUMPDEST JUMPDEST POP SWAP3 SWAP2 POP POP JUMP JUMPDEST PUSH32 0x4E487B7100000000000000000000000000000000000000000000000000000000 PUSH1 0x0 MSTORE PUSH1 0x12 PUSH1 0x4 MSTORE PUSH1 0x24 PUSH1 0x0 REVERT JUMPDEST PUSH1 0x0 PUSH2 0x3D98 DUP3 PUSH2 0x3168 JUMP JUMPDEST SWAP2 POP PUSH2 0x3DA3 DUP4 PUSH2 0x3168 JUMP JUMPDEST SWAP3 POP DUP3 PUSH2 0x3DB3 JUMPI PUSH2 0x3DB2 PUSH2 0x3D5E JUMP JUMPDEST JUMPDEST DUP3 DUP3 DIV SWAP1 POP SWAP3 SWAP2 POP POP JUMP JUMPDEST PUSH1 0x0 PUSH2 0x3DC9 DUP3 PUSH2 0x3168 JUMP JUMPDEST SWAP2 POP PUSH2 0x3DD4 DUP4 PUSH2 0x3168 JUMP JUMPDEST SWAP3 POP DUP3 DUP3 SUB SWAP1 POP DUP2 DUP2 GT ISZERO PUSH2 0x3DEC JUMPI PUSH2 0x3DEB PUSH2 0x3CB9 JUMP JUMPDEST JUMPDEST SWAP3 SWAP2 POP POP JUMP JUMPDEST PUSH1 0x0 PUSH2 0x3DFD DUP3 PUSH2 0x3168 JUMP JUMPDEST SWAP2 POP PUSH32 0xFFFFFFFFFFFFFFFFFFFFFFFFFFFFFFFFFFFFFFFFFFFFFFFFFFFFFFFFFFFFFFFF DUP3 SUB PUSH2 0x3E2F JUMPI PUSH2 0x3E2E PUSH2 0x3CB9 JUMP JUMPDEST JUMPDEST PUSH1 0x1 DUP3 ADD SWAP1 POP SWAP2 SWAP1 POP JUMP JUMPDEST PUSH32 0x4E6F7420656E6F7567682076616C696420746F6B656E73000000000000000000 PUSH1 0x0 DUP3 ADD MSTORE POP JUMP JUMPDEST PUSH1 0x0 PUSH2 0x3E70 PUSH1 0x17 DUP4 PUSH2 0x3059 JUMP JUMPDEST SWAP2 POP PUSH2 0x3E7B DUP3 PUSH2 0x3E3A JUMP JUMPDEST PUSH1 0x20 DUP3 ADD SWAP1 POP SWAP2 SWAP1 POP JUMP JUMPDEST PUSH1 0x0 PUSH1 0x20 DUP3 ADD SWAP1 POP DUP2 DUP2 SUB PUSH1 0x0 DUP4 ADD MSTORE PUSH2 0x3E9F DUP2 PUSH2 0x3E63 JUMP JUMPDEST SWAP1 POP SWAP2 SWAP1 POP JUMP JUMPDEST PUSH32 0x4D65726368616E7420616C726561647920657869737473000000000000000000 PUSH1 0x0 DUP3 ADD MSTORE POP JUMP JUMPDEST PUSH1 0x0 PUSH2 0x3EDC PUSH1 0x17 DUP4 PUSH2 0x3059 JUMP JUMPDEST SWAP2 POP PUSH2 0x3EE7 DUP3 PUSH2 0x3EA6 JUMP JUMPDEST PUSH1 0x20 DUP3 ADD SWAP1 POP SWAP2 SWAP1 POP JUMP JUMPDEST PUSH1 0x0 PUSH1 0x20 DUP3 ADD SWAP1 POP DUP2 DUP2 SUB PUSH1 0x0 DUP4 ADD MSTORE PUSH2 0x3F0B DUP2 PUSH2 0x3ECF JUMP JUMPDEST SWAP1 POP SWAP2 SWAP1 POP JUMP JUMPDEST PUSH32 0x4E487B7100000000000000000000000000000000000000000000000000000000 PUSH1 0x0 MSTORE PUSH1 0x41 PUSH1 0x4 MSTORE PUSH1 0x24 PUSH1 0x0 REVERT JUMPDEST PUSH1 0x0 DUP2 SWAP1 POP DUP2 PUSH1 0x0 MSTORE PUSH1 0x20 PUSH1 0x0 KECCAK256 SWAP1 POP SWAP2 SWAP1 POP JUMP JUMPDEST PUSH1 0x0 PUSH1 0x20 PUSH1 0x1F DUP4 ADD DIV SWAP1 POP SWAP2 SWAP1 POP JUMP JUMPDEST PUSH1 0x0 DUP3 DUP3 SHL SWAP1 POP SWAP3 SWAP2 POP POP JUMP JUMPDEST PUSH1 0x0 PUSH1 0x8 DUP4 MUL PUSH2 0x3FA3 PUSH32 0xFFFFFFFFFFFFFFFFFFFFFFFFFFFFFFFFFFFFFFFFFFFFFFFFFFFFFFFFFFFFFFFF DUP3 PUSH2 0x3F66 JUMP JUMPDEST PUSH2 0x3FAD DUP7 DUP4 PUSH2 0x3F66 JUMP JUMPDEST SWAP6 POP DUP1 NOT DUP5 AND SWAP4 POP DUP1 DUP7 AND DUP5 OR SWAP3 POP POP POP SWAP4 SWAP3 POP POP POP JUMP JUMPDEST PUSH1 0x0 DUP2 SWAP1 POP SWAP2 SWAP1 POP JUMP JUMPDEST PUSH1 0x0 PUSH2 0x3FEA PUSH2 0x3FE5 PUSH2 0x3FE0 DUP5 PUSH2 0x3168 JUMP JUMPDEST PUSH2 0x3FC5 JUMP JUMPDEST PUSH2 0x3168 JUMP JUMPDEST SWAP1 POP SWAP2 SWAP1 POP JUMP JUMPDEST PUSH1 0x0 DUP2 SWAP1 POP SWAP2 SWAP1 POP JUMP JUMPDEST PUSH2 0x4004 DUP4 PUSH2 0x3FCF JUMP JUMPDEST PUSH2 0x4018 PUSH2 0x4010 DUP3 PUSH2 0x3FF1 JUMP JUMPDEST DUP5 DUP5 SLOAD PUSH2 0x3F73 JUMP JUMPDEST DUP3 SSTORE POP POP POP POP JUMP JUMPDEST PUSH1 0x0 SWAP1 JUMP JUMPDEST PUSH2 0x402D PUSH2 0x4020 JUMP JUMPDEST PUSH2 0x4038 DUP2 DUP5 DUP5 PUSH2 0x3FFB JUMP JUMPDEST POP POP POP JUMP JUMPDEST JUMPDEST DUP2 DUP2 LT ISZERO PUSH2 0x405C JUMPI PUSH2 0x4051 PUSH1 0x0 DUP3 PUSH2 0x4025 JUMP JUMPDEST PUSH1 0x1 DUP2 ADD SWAP1 POP PUSH2 0x403E JUMP JUMPDEST POP POP JUMP JUMPDEST PUSH1 0x1F DUP3 GT ISZERO PUSH2 0x40A1 JUMPI PUSH2 0x4072 DUP2 PUSH2 0x3F41 JUMP JUMPDEST PUSH2 0x407B DUP5 PUSH2 0x3F56 JUMP JUMPDEST DUP2 ADD PUSH1 0x20 DUP6 LT ISZERO PUSH2 0x408A JUMPI DUP2 SWAP1 POP JUMPDEST PUSH2 0x409E PUSH2 0x4096 DUP6 PUSH2 0x3F56 JUMP JUMPDEST DUP4 ADD DUP3 PUSH2 0x403D JUMP JUMPDEST POP POP JUMPDEST POP POP POP JUMP JUMPDEST PUSH1 0x0 DUP3 DUP3 SHR SWAP1 POP SWAP3 SWAP2 POP POP JUMP JUMPDEST PUSH1 0x0 PUSH2 0x40C4 PUSH1 0x0 NOT DUP5 PUSH1 0x8 MUL PUSH2 0x40A6 JUMP JUMPDEST NOT DUP1 DUP4 AND SWAP2 POP POP SWAP3 SWAP2 POP POP JUMP JUMPDEST PUSH1 0x0 PUSH2 0x40DD DUP4 DUP4 PUSH2 0x40B3 JUMP JUMPDEST SWAP2 POP DUP3 PUSH1 0x2 MUL DUP3 OR SWAP1 POP SWAP3 SWAP2 POP POP JUMP JUMPDEST PUSH2 0x40F6 DUP3 PUSH2 0x304E JUMP JUMPDEST PUSH8 0xFFFFFFFFFFFFFFFF DUP2 GT ISZERO PUSH2 0x410F JUMPI PUSH2 0x410E PUSH2 0x3F12 JUMP JUMPDEST JUMPDEST PUSH2 0x4119 DUP3 SLOAD PUSH2 0x37AF JUMP JUMPDEST PUSH2 0x4124 DUP3 DUP3 DUP6 PUSH2 0x4060 JUMP JUMPDEST PUSH1 0x0 PUSH1 0x20 SWAP1 POP PUSH1 0x1F DUP4 GT PUSH1 0x1 DUP2 EQ PUSH2 0x4157 JUMPI PUSH1 0x0 DUP5 ISZERO PUSH2 0x4145 JUMPI DUP3 DUP8 ADD MLOAD SWAP1 POP JUMPDEST PUSH2 0x414F DUP6 DUP3 PUSH2 0x40D1 JUMP JUMPDEST DUP7 SSTORE POP PUSH2 0x41B7 JUMP JUMPDEST PUSH1 0x1F NOT DUP5 AND PUSH2 0x4165 DUP7 PUSH2 0x3F41 JUMP JUMPDEST PUSH1 0x0 JUMPDEST DUP3 DUP2 LT ISZERO PUSH2 0x418D JUMPI DUP5 DUP10 ADD MLOAD DUP3 SSTORE PUSH1 0x1 DUP3 ADD SWAP2 POP PUSH1 0x20 DUP6 ADD SWAP5 POP PUSH1 0x20 DUP2 ADD SWAP1 POP PUSH2 0x4168 JUMP JUMPDEST DUP7 DUP4 LT ISZERO PUSH2 0x41AA JUMPI DUP5 DUP10 ADD MLOAD PUSH2 0x41A6 PUSH1 0x1F DUP10 AND DUP3 PUSH2 0x40B3 JUMP JUMPDEST DUP4 SSTORE POP JUMPDEST PUSH1 0x1 PUSH1 0x2 DUP9 MUL ADD DUP9 SSTORE POP POP POP JUMPDEST POP POP POP POP POP POP JUMP JUMPDEST DUP3 DUP2 DUP4 CALLDATACOPY PUSH1 0x0 DUP4 DUP4 ADD MSTORE POP POP POP JUMP JUMPDEST PUSH1 0x0 PUSH2 0x41DA DUP4 DUP6 PUSH2 0x3059 JUMP JUMPDEST SWAP4 POP PUSH2 0x41E7 DUP4 DUP6 DUP5 PUSH2 0x41BF JUMP JUMPDEST PUSH2 0x41F0 DUP4 PUSH2 0x3094 JUMP JUMPDEST DUP5 ADD SWAP1 POP SWAP4 SWAP3 POP POP POP JUMP JUMPDEST PUSH1 0x0 PUSH1 0x20 DUP3 ADD SWAP1 POP DUP2 DUP2 SUB PUSH1 0x0 DUP4 ADD MSTORE PUSH2 0x4216 DUP2 DUP5 DUP7 PUSH2 0x41CE JUMP JUMPDEST SWAP1 POP SWAP4 SWAP3 POP POP POP JUMP JUMPDEST PUSH32 0x45787069726174696F6E206475726174696F6E206D7573742062652067726561 PUSH1 0x0 DUP3 ADD MSTORE PUSH32 0x746572207468616E207A65726F00000000000000000000000000000000000000 PUSH1 0x20 DUP3 ADD MSTORE POP JUMP JUMPDEST PUSH1 0x0 PUSH2 0x427B PUSH1 0x2D DUP4 PUSH2 0x3059 JUMP JUMPDEST SWAP2 POP PUSH2 0x4286 DUP3 PUSH2 0x421F JUMP JUMPDEST PUSH1 0x40 DUP3 ADD SWAP1 POP SWAP2 SWAP1 POP JUMP JUMPDEST PUSH1 0x0 PUSH1 0x20 DUP3 ADD SWAP1 POP DUP2 DUP2 SUB PUSH1 0x0 DUP4 ADD MSTORE PUSH2 0x42AA DUP2 PUSH2 0x426E JUMP JUMPDEST SWAP1 POP SWAP2 SWAP1 POP JUMP JUMPDEST PUSH32 0x4D65726368616E7420616C726561647920616374697665000000000000000000 PUSH1 0x0 DUP3 ADD MSTORE POP JUMP JUMPDEST PUSH1 0x0 PUSH2 0x42E7 PUSH1 0x17 DUP4 PUSH2 0x3059 JUMP JUMPDEST SWAP2 POP PUSH2 0x42F2 DUP3 PUSH2 0x42B1 JUMP JUMPDEST PUSH1 0x20 DUP3 ADD SWAP1 POP SWAP2 SWAP1 POP JUMP JUMPDEST PUSH1 0x0 PUSH1 0x20 DUP3 ADD SWAP1 POP DUP2 DUP2 SUB PUSH1 0x0 DUP4 ADD MSTORE PUSH2 0x4316 DUP2 PUSH2 0x42DA JUMP JUMPDEST SWAP1 POP SWAP2 SWAP1 POP JUMP JUMPDEST PUSH32 0x436F6E73756D657220646F6573206E6F74206578697374000000000000000000 PUSH1 0x0 DUP3 ADD MSTORE POP JUMP JUMPDEST PUSH1 0x0 PUSH2 0x4353 PUSH1 0x17 DUP4 PUSH2 0x3059 JUMP JUMPDEST SWAP2 POP PUSH2 0x435E DUP3 PUSH2 0x431D JUMP JUMPDEST PUSH1 0x20 DUP3 ADD SWAP1 POP SWAP2 SWAP1 POP JUMP JUMPDEST PUSH1 0x0 PUSH1 0x20 DUP3 ADD SWAP1 POP DUP2 DUP2 SUB PUSH1 0x0 DUP4 ADD MSTORE PUSH2 0x4382 DUP2 PUSH2 0x4346 JUMP JUMPDEST SWAP1 POP SWAP2 SWAP1 POP JUMP JUMPDEST PUSH32 0x436F6E73756D657220616C72656164792064697361626C656400000000000000 PUSH1 0x0 DUP3 ADD MSTORE POP JUMP JUMPDEST PUSH1 0x0 PUSH2 0x43BF PUSH1 0x19 DUP4 PUSH2 0x3059 JUMP JUMPDEST SWAP2 POP PUSH2 0x43CA DUP3 PUSH2 0x4389 JUMP JUMPDEST PUSH1 0x20 DUP3 ADD SWAP1 POP SWAP2 SWAP1 POP JUMP JUMPDEST PUSH1 0x0 PUSH1 0x20 DUP3 ADD SWAP1 POP DUP2 DUP2 SUB PUSH1 0x0 DUP4 ADD MSTORE PUSH2 0x43EE DUP2 PUSH2 0x43B2 JUMP JUMPDEST SWAP1 POP SWAP2 SWAP1 POP JUMP JUMPDEST PUSH32 0x4F6E6C79206F776E6572206F7220616374697665206D65726368616E74732063 PUSH1 0x0 DUP3 ADD MSTORE PUSH32 0x616E2063616C6C20746869732066756E6374696F6E0000000000000000000000 PUSH1 0x20 DUP3 ADD MSTORE POP JUMP JUMPDEST PUSH1 0x0 PUSH2 0x4451 PUSH1 0x35 DUP4 PUSH2 0x3059 JUMP JUMPDEST SWAP2 POP PUSH2 0x445C DUP3 PUSH2 0x43F5 JUMP JUMPDEST PUSH1 0x40 DUP3 ADD SWAP1 POP SWAP2 SWAP1 POP JUMP JUMPDEST PUSH1 0x0 PUSH1 0x20 DUP3 ADD SWAP1 POP DUP2 DUP2 SUB PUSH1 0x0 DUP4 ADD MSTORE PUSH2 0x4480 DUP2 PUSH2 0x4444 JUMP JUMPDEST SWAP1 POP SWAP2 SWAP1 POP JUMP JUMPDEST PUSH32 0x436F6E73756D657220616C726561647920616374697665000000000000000000 PUSH1 0x0 DUP3 ADD MSTORE POP JUMP JUMPDEST PUSH1 0x0 PUSH2 0x44BD PUSH1 0x17 DUP4 PUSH2 0x3059 JUMP JUMPDEST SWAP2 POP PUSH2 0x44C8 DUP3 PUSH2 0x4487 JUMP JUMPDEST PUSH1 0x20 DUP3 ADD SWAP1 POP SWAP2 SWAP1 POP JUMP JUMPDEST PUSH1 0x0 PUSH1 0x20 DUP3 ADD SWAP1 POP DUP2 DUP2 SUB PUSH1 0x0 DUP4 ADD MSTORE PUSH2 0x44EC DUP2 PUSH2 0x44B0 JUMP JUMPDEST SWAP1 POP SWAP2 SWAP1 POP JUMP JUMPDEST PUSH32 0x436F6E73756D657220646F6573206E6F74206578697374206F72206973206469 PUSH1 0x0 DUP3 ADD MSTORE PUSH32 0x7361626C65640000000000000000000000000000000000000000000000000000 PUSH1 0x20 DUP3 ADD MSTORE POP JUMP JUMPDEST PUSH1 0x0 PUSH2 0x454F PUSH1 0x26 DUP4 PUSH2 0x3059 JUMP JUMPDEST SWAP2 POP PUSH2 0x455A DUP3 PUSH2 0x44F3 JUMP JUMPDEST PUSH1 0x40 DUP3 ADD SWAP1 POP SWAP2 SWAP1 POP JUMP JUMPDEST PUSH1 0x0 PUSH1 0x20 DUP3 ADD SWAP1 POP DUP2 DUP2 SUB PUSH1 0x0 DUP4 ADD MSTORE PUSH2 0x457E DUP2 PUSH2 0x4542 JUMP JUMPDEST SWAP1 POP SWAP2 SWAP1 POP JUMP JUMPDEST PUSH1 0x0 DUP2 PUSH1 0x1 SHR SWAP1 POP SWAP2 SWAP1 POP JUMP JUMPDEST PUSH1 0x0 DUP1 DUP3 SWAP2 POP DUP4 SWAP1 POP JUMPDEST PUSH1 0x1 DUP6 GT ISZERO PUSH2 0x45DC JUMPI DUP1 DUP7 DIV DUP2 GT ISZERO PUSH2 0x45B8 JUMPI PUSH2 0x45B7 PUSH2 0x3CB9 JUMP JUMPDEST JUMPDEST PUSH1 0x1 DUP6 AND ISZERO PUSH2 0x45C7 JUMPI DUP1 DUP3 MUL SWAP2 POP JUMPDEST DUP1 DUP2 MUL SWAP1 POP PUSH2 0x45D5 DUP6 PUSH2 0x4585 JUMP JUMPDEST SWAP5 POP PUSH2 0x459C JUMP JUMPDEST SWAP5 POP SWAP5 SWAP3 POP POP POP JUMP JUMPDEST PUSH1 0x0 DUP3 PUSH2 0x45F5 JUMPI PUSH1 0x1 SWAP1 POP PUSH2 0x46B1 JUMP JUMPDEST DUP2 PUSH2 0x4603 JUMPI PUSH1 0x0 SWAP1 POP PUSH2 0x46B1 JUMP JUMPDEST DUP2 PUSH1 0x1 DUP2 EQ PUSH2 0x4619 JUMPI PUSH1 0x2 DUP2 EQ PUSH2 0x4623 JUMPI PUSH2 0x4652 JUMP JUMPDEST PUSH1 0x1 SWAP2 POP POP PUSH2 0x46B1 JUMP JUMPDEST PUSH1 0xFF DUP5 GT ISZERO PUSH2 0x4635 JUMPI PUSH2 0x4634 PUSH2 0x3CB9 JUMP JUMPDEST JUMPDEST DUP4 PUSH1 0x2 EXP SWAP2 POP DUP5 DUP3 GT ISZERO PUSH2 0x464C JUMPI PUSH2 0x464B PUSH2 0x3CB9 JUMP JUMPDEST JUMPDEST POP PUSH2 0x46B1 JUMP JUMPDEST POP PUSH1 0x20 DUP4 LT PUSH2 0x133 DUP4 LT AND PUSH1 0x4E DUP5 LT PUSH1 0xB DUP5 LT AND OR ISZERO PUSH2 0x4687 JUMPI DUP3 DUP3 EXP SWAP1 POP DUP4 DUP2 GT ISZERO PUSH2 0x4682 JUMPI PUSH2 0x4681 PUSH2 0x3CB9 JUMP JUMPDEST JUMPDEST PUSH2 0x46B1 JUMP JUMPDEST PUSH2 0x4694 DUP5 DUP5 DUP5 PUSH1 0x1 PUSH2 0x4592 JUMP JUMPDEST SWAP3 POP SWAP1 POP DUP2 DUP5 DIV DUP2 GT ISZERO PUSH2 0x46AB JUMPI PUSH2 0x46AA PUSH2 0x3CB9 JUMP JUMPDEST JUMPDEST DUP2 DUP2 MUL SWAP1 POP JUMPDEST SWAP4 SWAP3 POP POP POP JUMP JUMPDEST PUSH1 0x0 PUSH2 0x46C3 DUP3 PUSH2 0x3168 JUMP JUMPDEST SWAP2 POP PUSH2 0x46CE DUP4 PUSH2 0x3168 JUMP JUMPDEST SWAP3 POP PUSH2 0x46FB PUSH32 0xFFFFFFFFFFFFFFFFFFFFFFFFFFFFFFFFFFFFFFFFFFFFFFFFFFFFFFFFFFFFFFFF DUP5 DUP5 PUSH2 0x45E5 JUMP JUMPDEST SWAP1 POP SWAP3 SWAP2 POP POP JUMP JUMPDEST PUSH1 0x0 PUSH1 0x60 DUP3 ADD SWAP1 POP PUSH2 0x4718 PUSH1 0x0 DUP4 ADD DUP7 PUSH2 0x3410 JUMP JUMPDEST PUSH2 0x4725 PUSH1 0x20 DUP4 ADD DUP6 PUSH2 0x326A JUMP JUMPDEST PUSH2 0x4732 PUSH1 0x40 DUP4 ADD DUP5 PUSH2 0x326A JUMP JUMPDEST SWAP5 SWAP4 POP POP POP POP JUMP INVALID LOG2 PUSH5 0x6970667358 0x22 SLT KECCAK256 0x4C 0xC0 0xCD DUP11 0xDA ADDMOD LOG2 DUP11 SWAP6 0xC8 SWAP11 0xB8 ADD DUP4 PUSH3 0x2E4EA9 0xAE EXP PUSH29 0xB8382F4B646879EFCA396864736F6C634300081C003300000000000000 "
        },
        "methodIdentifiers": {
          "addConsumer(address)": "112940f9",
          "addMerchant(address,string)": "613416ac",
          "allowance(address,address)": "dd62ed3e",
          "approve(address,uint256)": "095ea7b3",
          "balanceOf(address)": "70a08231",
          "consumers(address)": "0bf53668",
          "decimals()": "313ce567",
          "disableConsumer(address)": "82ff33cf",
          "disableMerchant(address)": "3d4248a3",
          "enableConsumer(address)": "ba5b810e",
          "enableMerchant(address)": "7c6d115b",
          "getBalance()": "12065fe0",
          "getBalanceByMerchant()": "93175bb7",
          "getConsumer(address)": "993084e8",
          "getExpirationDuration()": "40800868",
          "getExpirationMerchantPercentage()": "af06610d",
          "getExpirationOwnerPercentage()": "ba0b3d8c",
          "getMerchant(address)": "b2734eaf",
          "getRedistributionMerchantPercentage()": "cd6269bd",
          "getRedistributionOwnerPercentage()": "7477a5a0",
          "merchants(address)": "ee14e939",
          "mintTokens(address,uint256)": "f0dda65c",
          "name()": "06fdde03",
          "owner()": "8da5cb5b",
          "renounceOwnership()": "715018a6",
          "setExpirationDuration(uint256)": "626485a3",
          "setExpirationMerchantPercentage(uint256)": "f5febbd7",
          "setExpirationOwnerPercentage(uint256)": "a848a202",
          "setRedistributionMerchantPercentage(uint256)": "8335e61a",
          "setRedistributionOwnerPercentage(uint256)": "71e070ac",
          "spendTokens(address,uint256)": "5dec8ae9",
          "symbol()": "95d89b41",
          "totalSupply()": "18160ddd",
          "transfer(address,uint256)": "a9059cbb",
          "transferFrom(address,address,uint256)": "23b872dd",
          "transferOwnership(address)": "f2fde38b",
          "updateConsumerTokens(address)": "1ae3228d"
        }
      }
    }
  }
}